{
  "address": "0xEAcb572C4A7560f710F1546d318e9ED61DeA1397",
  "abi": [
    {
      "inputs": [
        {
          "internalType": "contract ITransferBridge",
          "name": "_transferBridge",
          "type": "address"
        },
        {
          "internalType": "address",
          "name": "_hubLiquidator",
          "type": "address"
        },
        {
          "internalType": "uint32",
          "name": "_hubChainId",
          "type": "uint32"
        },
        {
          "internalType": "address",
          "name": "admin",
          "type": "address"
        }
      ],
      "stateMutability": "nonpayable",
      "type": "constructor"
    },
    {
      "inputs": [],
      "name": "AccessControlBadConfirmation",
      "type": "error"
    },
    {
      "inputs": [
        {
          "internalType": "address",
          "name": "account",
          "type": "address"
        },
        {
          "internalType": "bytes32",
          "name": "neededRole",
          "type": "bytes32"
        }
      ],
      "name": "AccessControlUnauthorizedAccount",
      "type": "error"
    },
    {
      "anonymous": false,
      "inputs": [
        {
          "indexed": true,
          "internalType": "bytes32",
          "name": "role",
          "type": "bytes32"
        },
        {
          "indexed": true,
          "internalType": "bytes32",
          "name": "previousAdminRole",
          "type": "bytes32"
        },
        {
          "indexed": true,
          "internalType": "bytes32",
          "name": "newAdminRole",
          "type": "bytes32"
        }
      ],
      "name": "RoleAdminChanged",
      "type": "event"
    },
    {
      "anonymous": false,
      "inputs": [
        {
          "indexed": true,
          "internalType": "bytes32",
          "name": "role",
          "type": "bytes32"
        },
        {
          "indexed": true,
          "internalType": "address",
          "name": "account",
          "type": "address"
        },
        {
          "indexed": true,
          "internalType": "address",
          "name": "sender",
          "type": "address"
        }
      ],
      "name": "RoleGranted",
      "type": "event"
    },
    {
      "anonymous": false,
      "inputs": [
        {
          "indexed": true,
          "internalType": "bytes32",
          "name": "role",
          "type": "bytes32"
        },
        {
          "indexed": true,
          "internalType": "address",
          "name": "account",
          "type": "address"
        },
        {
          "indexed": true,
          "internalType": "address",
          "name": "sender",
          "type": "address"
        }
      ],
      "name": "RoleRevoked",
      "type": "event"
    },
    {
      "inputs": [],
      "name": "DEFAULT_ADMIN_ROLE",
      "outputs": [
        {
          "internalType": "bytes32",
          "name": "",
          "type": "bytes32"
        }
      ],
      "stateMutability": "view",
      "type": "function"
    },
    {
      "inputs": [],
      "name": "LIQUIDATOR_ADMIN_ROLE",
      "outputs": [
        {
          "internalType": "bytes32",
          "name": "",
          "type": "bytes32"
        }
      ],
      "stateMutability": "view",
      "type": "function"
    },
    {
      "inputs": [
        {
          "internalType": "bytes32",
          "name": "role",
          "type": "bytes32"
        }
      ],
      "name": "getRoleAdmin",
      "outputs": [
        {
          "internalType": "bytes32",
          "name": "",
          "type": "bytes32"
        }
      ],
      "stateMutability": "view",
      "type": "function"
    },
    {
      "inputs": [
        {
          "internalType": "bytes32",
          "name": "role",
          "type": "bytes32"
        },
        {
          "internalType": "address",
          "name": "account",
          "type": "address"
        }
      ],
      "name": "grantRole",
      "outputs": [],
      "stateMutability": "nonpayable",
      "type": "function"
    },
    {
      "inputs": [
        {
          "internalType": "bytes32",
          "name": "role",
          "type": "bytes32"
        },
        {
          "internalType": "address",
          "name": "account",
          "type": "address"
        }
      ],
      "name": "hasRole",
      "outputs": [
        {
          "internalType": "bool",
          "name": "",
          "type": "bool"
        }
      ],
      "stateMutability": "view",
      "type": "function"
    },
    {
      "inputs": [],
      "name": "hubChainId",
      "outputs": [
        {
          "internalType": "uint32",
          "name": "",
          "type": "uint32"
        }
      ],
      "stateMutability": "view",
      "type": "function"
    },
    {
      "inputs": [],
      "name": "hubLiquidator",
      "outputs": [
        {
          "internalType": "address",
          "name": "",
          "type": "address"
        }
      ],
      "stateMutability": "view",
      "type": "function"
    },
    {
      "inputs": [
        {
          "internalType": "address",
          "name": "asset",
          "type": "address"
        },
        {
          "internalType": "uint256",
          "name": "assetAmount",
          "type": "uint256"
        },
        {
          "internalType": "uint256",
          "name": "debtAmount",
          "type": "uint256"
        }
      ],
      "name": "liquidate",
      "outputs": [],
      "stateMutability": "nonpayable",
      "type": "function"
    },
    {
      "inputs": [
        {
          "internalType": "bytes32",
          "name": "role",
          "type": "bytes32"
        },
        {
          "internalType": "address",
          "name": "callerConfirmation",
          "type": "address"
        }
      ],
      "name": "renounceRole",
      "outputs": [],
      "stateMutability": "nonpayable",
      "type": "function"
    },
    {
      "inputs": [
        {
          "internalType": "bytes32",
          "name": "role",
          "type": "bytes32"
        },
        {
          "internalType": "address",
          "name": "account",
          "type": "address"
        }
      ],
      "name": "revokeRole",
      "outputs": [],
      "stateMutability": "nonpayable",
      "type": "function"
    },
    {
      "inputs": [
        {
          "internalType": "bytes4",
          "name": "interfaceId",
          "type": "bytes4"
        }
      ],
      "name": "supportsInterface",
      "outputs": [
        {
          "internalType": "bool",
          "name": "",
          "type": "bool"
        }
      ],
      "stateMutability": "view",
      "type": "function"
    },
    {
      "inputs": [],
      "name": "transferBridge",
      "outputs": [
        {
          "internalType": "contract ITransferBridge",
          "name": "",
          "type": "address"
        }
      ],
      "stateMutability": "view",
      "type": "function"
    }
  ],
  "transactionHash": "0xe324da0831e31122ee760e894501218415d5620887e9308d63d7d8d56d7a78ff",
  "args": [
    "0xD1Aac82Db3FEB269e43c28E0B22b0D43d77CBbd9",
    "0x9aA6E6f8FDb201ccdDeEF680b375f4d03dD06439",
    167009,
    "0xF7b01b40305aF7b5bBc6a3344892dAb7c6Ce4905"
  ],
  "numDeployments": 1,
  "solcInputHash": "61060eb6fb9a8ee51f4f9d8bf09ee0ff",
  "bytecode": "0x608060405234801561001057600080fd5b506040516108f43803806108f483398101604081905261002f91610200565b6001600160a01b03841661008a5760405162461bcd60e51b815260206004820152601f60248201527f496e76616c6964207472616e736665722062726964676520616464726573730060448201526064015b60405180910390fd5b6001600160a01b0383166100e05760405162461bcd60e51b815260206004820152601e60248201527f496e76616c696420687562206c697175696461746f72206164647265737300006044820152606401610081565b600180546001600160a01b0319166001600160a01b0386811691909117909155600280549185166001600160c01b031990921691909117600160a01b63ffffffff85160217905561013260008261013c565b5050505050610268565b6000828152602081815260408083206001600160a01b038516845290915281205460ff166101de576000838152602081815260408083206001600160a01b03861684529091529020805460ff191660011790556101963390565b6001600160a01b0316826001600160a01b0316847f2f8788117e7eff1d82e926ec794901d17c78024a50270940304540a733656f0d60405160405180910390a45060016101e2565b5060005b92915050565b6001600160a01b03811681146101fd57600080fd5b50565b6000806000806080858703121561021657600080fd5b8451610221816101e8565b6020860151909450610232816101e8565b604086015190935063ffffffff8116811461024c57600080fd5b606086015190925061025d816101e8565b939692955090935050565b61067d806102776000396000f3fe608060405234801561001057600080fd5b50600436106100b45760003560e01c80635f96e11b116100715780635f96e11b1461017457806391d148541461019f578063929f5840146101b2578063a217fddf146101de578063d547741f146101e6578063ddeeb896146101f957600080fd5b806301ffc9a7146100b957806305dfefa8146100e15780630710285c14610116578063248a9ca31461012b5780632f2ff15d1461014e57806336568abe14610161575b600080fd5b6100cc6100c7366004610504565b61020c565b60405190151581526020015b60405180910390f35b6101087f9ce59597c934dedd904171f26bf62ea86832059580bda1abc4da8223acaaa66481565b6040519081526020016100d8565b610129610124366004610551565b610243565b005b610108610139366004610584565b60009081526020819052604090206001015490565b61012961015c36600461059d565b610308565b61012961016f36600461059d565b610333565b600254610187906001600160a01b031681565b6040516001600160a01b0390911681526020016100d8565b6100cc6101ad36600461059d565b61036b565b6002546101c990600160a01b900463ffffffff1681565b60405163ffffffff90911681526020016100d8565b610108600081565b6101296101f436600461059d565b610394565b600154610187906001600160a01b031681565b60006001600160e01b03198216637965db0b60e01b148061023d57506301ffc9a760e01b6001600160e01b03198316145b92915050565b7f9ce59597c934dedd904171f26bf62ea86832059580bda1abc4da8223acaaa66461026d816103b9565b600154600254604080516020808201879052825180830390910181528183019283905263538bd3c760e11b9092526001600160a01b039384169363a717a78e936102d0938a9363ffffffff600160a01b84041693909216918a91906044016105c9565b600060405180830381600087803b1580156102ea57600080fd5b505af11580156102fe573d6000803e3d6000fd5b5050505050505050565b600082815260208190526040902060010154610323816103b9565b61032d83836103c6565b50505050565b6001600160a01b038116331461035c5760405163334bd91960e11b815260040160405180910390fd5b6103668282610458565b505050565b6000918252602082815260408084206001600160a01b0393909316845291905290205460ff1690565b6000828152602081905260409020600101546103af816103b9565b61032d8383610458565b6103c381336104c3565b50565b60006103d2838361036b565b610450576000838152602081815260408083206001600160a01b03861684529091529020805460ff191660011790556104083390565b6001600160a01b0316826001600160a01b0316847f2f8788117e7eff1d82e926ec794901d17c78024a50270940304540a733656f0d60405160405180910390a450600161023d565b50600061023d565b6000610464838361036b565b15610450576000838152602081815260408083206001600160a01b0386168085529252808320805460ff1916905551339286917ff6391f5c32d9c69d2a47ea670b442974b53935d1edc7fd64eb21e047a839171b9190a450600161023d565b6104cd828261036b565b6105005760405163e2517d3f60e01b81526001600160a01b03821660048201526024810183905260440160405180910390fd5b5050565b60006020828403121561051657600080fd5b81356001600160e01b03198116811461052e57600080fd5b9392505050565b80356001600160a01b038116811461054c57600080fd5b919050565b60008060006060848603121561056657600080fd5b61056f84610535565b95602085013595506040909401359392505050565b60006020828403121561059657600080fd5b5035919050565b600080604083850312156105b057600080fd5b823591506105c060208401610535565b90509250929050565b6001600160a01b03868116825263ffffffff86166020830152841660408201526060810183905260a0608082018190528251908201819052600090815b8181101561062357602081860181015160c0868401015201610606565b50600060c0828501015260c0601f19601f830116840101915050969550505050505056fea26469706673582212207dbf0751f958a89b15e38b0f2b0bf256cd4a89f97a723d8984b64e6a1236b71064736f6c634300081c0033",
  "devdoc": {
    "errors": {
      "AccessControlBadConfirmation()": [
        {
          "details": "The caller of a function is not the expected one. NOTE: Don't confuse with {AccessControlUnauthorizedAccount}."
        }
      ],
      "AccessControlUnauthorizedAccount(address,bytes32)": [
        {
          "details": "The `account` is missing a role."
        }
      ]
    },
    "events": {
      "RoleAdminChanged(bytes32,bytes32,bytes32)": {
        "details": "Emitted when `newAdminRole` is set as ``role``'s admin role, replacing `previousAdminRole` `DEFAULT_ADMIN_ROLE` is the starting admin for all roles, despite {RoleAdminChanged} not being emitted signaling this."
      },
      "RoleGranted(bytes32,address,address)": {
        "details": "Emitted when `account` is granted `role`. `sender` is the account that originated the contract call, an admin role bearer except when using {AccessControl-_setupRole}."
      },
      "RoleRevoked(bytes32,address,address)": {
        "details": "Emitted when `account` is revoked `role`. `sender` is the account that originated the contract call:   - if using `revokeRole`, it is the admin role bearer   - if using `renounceRole`, it is the role bearer (i.e. `account`)"
      }
    },
    "kind": "dev",
    "methods": {
      "getRoleAdmin(bytes32)": {
        "details": "Returns the admin role that controls `role`. See {grantRole} and {revokeRole}. To change a role's admin, use {_setRoleAdmin}."
      },
      "grantRole(bytes32,address)": {
        "details": "Grants `role` to `account`. If `account` had not been already granted `role`, emits a {RoleGranted} event. Requirements: - the caller must have ``role``'s admin role. May emit a {RoleGranted} event."
      },
      "hasRole(bytes32,address)": {
        "details": "Returns `true` if `account` has been granted `role`."
      },
      "renounceRole(bytes32,address)": {
        "details": "Revokes `role` from the calling account. Roles are often managed via {grantRole} and {revokeRole}: this function's purpose is to provide a mechanism for accounts to lose their privileges if they are compromised (such as when a trusted device is misplaced). If the calling account had been revoked `role`, emits a {RoleRevoked} event. Requirements: - the caller must be `callerConfirmation`. May emit a {RoleRevoked} event."
      },
      "revokeRole(bytes32,address)": {
        "details": "Revokes `role` from `account`. If `account` had been granted `role`, emits a {RoleRevoked} event. Requirements: - the caller must have ``role``'s admin role. May emit a {RoleRevoked} event."
      },
      "supportsInterface(bytes4)": {
        "details": "See {IERC165-supportsInterface}."
      }
    },
    "title": "CrossChainLiquidator.sol",
    "version": 1
  },
  "userdoc": {
    "kind": "user",
    "methods": {},
    "notice": "Bridges tokens to another Liquidator on another chain",
    "version": 1
  },
  "storageLayout": {
    "storage": [
      {
        "astId": 4361,
        "contract": "contracts/liquidators/CrossChainLiquidator.sol:CrossChainLiquidator",
        "label": "_roles",
        "offset": 0,
        "slot": "0",
        "type": "t_mapping(t_bytes32,t_struct(RoleData)4356_storage)"
      },
      {
        "astId": 11875,
        "contract": "contracts/liquidators/CrossChainLiquidator.sol:CrossChainLiquidator",
        "label": "transferBridge",
        "offset": 0,
        "slot": "1",
        "type": "t_contract(ITransferBridge)11857"
      },
      {
        "astId": 11877,
        "contract": "contracts/liquidators/CrossChainLiquidator.sol:CrossChainLiquidator",
        "label": "hubLiquidator",
        "offset": 0,
        "slot": "2",
        "type": "t_address"
      },
      {
        "astId": 11879,
        "contract": "contracts/liquidators/CrossChainLiquidator.sol:CrossChainLiquidator",
        "label": "hubChainId",
        "offset": 20,
        "slot": "2",
        "type": "t_uint32"
      }
    ],
    "types": {
      "t_address": {
        "encoding": "inplace",
        "label": "address",
        "numberOfBytes": "20"
      },
      "t_bool": {
        "encoding": "inplace",
        "label": "bool",
        "numberOfBytes": "1"
      },
      "t_bytes32": {
        "encoding": "inplace",
        "label": "bytes32",
        "numberOfBytes": "32"
      },
      "t_contract(ITransferBridge)11857": {
        "encoding": "inplace",
        "label": "contract ITransferBridge",
        "numberOfBytes": "20"
      },
      "t_mapping(t_address,t_bool)": {
        "encoding": "mapping",
        "key": "t_address",
        "label": "mapping(address => bool)",
        "numberOfBytes": "32",
        "value": "t_bool"
      },
      "t_mapping(t_bytes32,t_struct(RoleData)4356_storage)": {
        "encoding": "mapping",
        "key": "t_bytes32",
        "label": "mapping(bytes32 => struct AccessControl.RoleData)",
        "numberOfBytes": "32",
        "value": "t_struct(RoleData)4356_storage"
      },
      "t_struct(RoleData)4356_storage": {
        "encoding": "inplace",
        "label": "struct AccessControl.RoleData",
        "members": [
          {
            "astId": 4353,
            "contract": "contracts/liquidators/CrossChainLiquidator.sol:CrossChainLiquidator",
            "label": "hasRole",
            "offset": 0,
            "slot": "0",
            "type": "t_mapping(t_address,t_bool)"
          },
          {
            "astId": 4355,
            "contract": "contracts/liquidators/CrossChainLiquidator.sol:CrossChainLiquidator",
            "label": "adminRole",
            "offset": 0,
            "slot": "1",
            "type": "t_bytes32"
          }
        ],
        "numberOfBytes": "64"
      },
      "t_uint32": {
        "encoding": "inplace",
        "label": "uint32",
        "numberOfBytes": "4"
      }
    }
  }
}