{
  "address": "0x31e90e6D21fE135DF1a0b1A804A5bBA03c3e240b",
  "abi": [
    {
      "inputs": [
        {
          "internalType": "contract IRouterClient",
          "name": "ccipRouter_",
          "type": "address"
        },
        {
          "internalType": "contract IERC20Metadata",
          "name": "linkToken_",
          "type": "address"
        },
        {
          "internalType": "address",
          "name": "admin",
          "type": "address"
        }
      ],
      "stateMutability": "nonpayable",
      "type": "constructor"
    },
    {
      "inputs": [],
      "name": "AccessControlBadConfirmation",
      "type": "error"
    },
    {
      "inputs": [
        {
          "internalType": "address",
          "name": "account",
          "type": "address"
        },
        {
          "internalType": "bytes32",
          "name": "neededRole",
          "type": "bytes32"
        }
      ],
      "name": "AccessControlUnauthorizedAccount",
      "type": "error"
    },
    {
      "inputs": [
        {
          "internalType": "address",
          "name": "target",
          "type": "address"
        }
      ],
      "name": "AddressEmptyCode",
      "type": "error"
    },
    {
      "inputs": [
        {
          "internalType": "address",
          "name": "account",
          "type": "address"
        }
      ],
      "name": "AddressInsufficientBalance",
      "type": "error"
    },
    {
      "inputs": [],
      "name": "AmountIsZero",
      "type": "error"
    },
    {
      "inputs": [],
      "name": "FailedInnerCall",
      "type": "error"
    },
    {
      "inputs": [
        {
          "internalType": "uint64",
          "name": "destinationChainSelector",
          "type": "uint64"
        }
      ],
      "name": "NoGasLimitOnDestinationChain",
      "type": "error"
    },
    {
      "inputs": [
        {
          "internalType": "uint64",
          "name": "destinationChainSelector",
          "type": "uint64"
        }
      ],
      "name": "NoReceiverOnDestinationChain",
      "type": "error"
    },
    {
      "inputs": [
        {
          "internalType": "uint256",
          "name": "currentBalance",
          "type": "uint256"
        },
        {
          "internalType": "uint256",
          "name": "calculatedFees",
          "type": "uint256"
        }
      ],
      "name": "NotEnoughBalance",
      "type": "error"
    },
    {
      "inputs": [],
      "name": "NotImplemented",
      "type": "error"
    },
    {
      "inputs": [
        {
          "internalType": "address",
          "name": "token",
          "type": "address"
        }
      ],
      "name": "SafeERC20FailedOperation",
      "type": "error"
    },
    {
      "anonymous": false,
      "inputs": [
        {
          "indexed": true,
          "internalType": "bytes32",
          "name": "messageId",
          "type": "bytes32"
        },
        {
          "indexed": true,
          "internalType": "uint64",
          "name": "destinationChainSelector",
          "type": "uint64"
        },
        {
          "indexed": true,
          "internalType": "address",
          "name": "receiver",
          "type": "address"
        },
        {
          "indexed": false,
          "internalType": "address",
          "name": "beneficiary",
          "type": "address"
        },
        {
          "indexed": false,
          "internalType": "address",
          "name": "token",
          "type": "address"
        },
        {
          "indexed": false,
          "internalType": "uint256",
          "name": "tokenAmount",
          "type": "uint256"
        },
        {
          "indexed": false,
          "internalType": "address",
          "name": "feeToken",
          "type": "address"
        },
        {
          "indexed": false,
          "internalType": "uint256",
          "name": "fees",
          "type": "uint256"
        }
      ],
      "name": "MessageSent",
      "type": "event"
    },
    {
      "anonymous": false,
      "inputs": [
        {
          "indexed": true,
          "internalType": "bytes32",
          "name": "role",
          "type": "bytes32"
        },
        {
          "indexed": true,
          "internalType": "bytes32",
          "name": "previousAdminRole",
          "type": "bytes32"
        },
        {
          "indexed": true,
          "internalType": "bytes32",
          "name": "newAdminRole",
          "type": "bytes32"
        }
      ],
      "name": "RoleAdminChanged",
      "type": "event"
    },
    {
      "anonymous": false,
      "inputs": [
        {
          "indexed": true,
          "internalType": "bytes32",
          "name": "role",
          "type": "bytes32"
        },
        {
          "indexed": true,
          "internalType": "address",
          "name": "account",
          "type": "address"
        },
        {
          "indexed": true,
          "internalType": "address",
          "name": "sender",
          "type": "address"
        }
      ],
      "name": "RoleGranted",
      "type": "event"
    },
    {
      "anonymous": false,
      "inputs": [
        {
          "indexed": true,
          "internalType": "bytes32",
          "name": "role",
          "type": "bytes32"
        },
        {
          "indexed": true,
          "internalType": "address",
          "name": "account",
          "type": "address"
        },
        {
          "indexed": true,
          "internalType": "address",
          "name": "sender",
          "type": "address"
        }
      ],
      "name": "RoleRevoked",
      "type": "event"
    },
    {
      "inputs": [],
      "name": "CHAIN_ADMIN_ROLE",
      "outputs": [
        {
          "internalType": "bytes32",
          "name": "",
          "type": "bytes32"
        }
      ],
      "stateMutability": "view",
      "type": "function"
    },
    {
      "inputs": [],
      "name": "DEFAULT_ADMIN_ROLE",
      "outputs": [
        {
          "internalType": "bytes32",
          "name": "",
          "type": "bytes32"
        }
      ],
      "stateMutability": "view",
      "type": "function"
    },
    {
      "inputs": [
        {
          "internalType": "uint64",
          "name": "",
          "type": "uint64"
        },
        {
          "internalType": "address",
          "name": "",
          "type": "address"
        },
        {
          "internalType": "bytes",
          "name": "",
          "type": "bytes"
        }
      ],
      "name": "callCrossChain",
      "outputs": [],
      "stateMutability": "pure",
      "type": "function"
    },
    {
      "inputs": [],
      "name": "ccipRouter",
      "outputs": [
        {
          "internalType": "contract IRouterClient",
          "name": "",
          "type": "address"
        }
      ],
      "stateMutability": "view",
      "type": "function"
    },
    {
      "inputs": [
        {
          "internalType": "uint64",
          "name": "",
          "type": "uint64"
        }
      ],
      "name": "chains",
      "outputs": [
        {
          "internalType": "address",
          "name": "receiver",
          "type": "address"
        },
        {
          "internalType": "uint64",
          "name": "gasLimit",
          "type": "uint64"
        }
      ],
      "stateMutability": "view",
      "type": "function"
    },
    {
      "inputs": [
        {
          "internalType": "bytes32",
          "name": "role",
          "type": "bytes32"
        }
      ],
      "name": "getRoleAdmin",
      "outputs": [
        {
          "internalType": "bytes32",
          "name": "",
          "type": "bytes32"
        }
      ],
      "stateMutability": "view",
      "type": "function"
    },
    {
      "inputs": [
        {
          "internalType": "bytes32",
          "name": "role",
          "type": "bytes32"
        },
        {
          "internalType": "address",
          "name": "account",
          "type": "address"
        }
      ],
      "name": "grantRole",
      "outputs": [],
      "stateMutability": "nonpayable",
      "type": "function"
    },
    {
      "inputs": [
        {
          "internalType": "bytes32",
          "name": "role",
          "type": "bytes32"
        },
        {
          "internalType": "address",
          "name": "account",
          "type": "address"
        }
      ],
      "name": "hasRole",
      "outputs": [
        {
          "internalType": "bool",
          "name": "",
          "type": "bool"
        }
      ],
      "stateMutability": "view",
      "type": "function"
    },
    {
      "inputs": [],
      "name": "linkToken",
      "outputs": [
        {
          "internalType": "contract IERC20Metadata",
          "name": "",
          "type": "address"
        }
      ],
      "stateMutability": "view",
      "type": "function"
    },
    {
      "inputs": [
        {
          "internalType": "bytes32",
          "name": "role",
          "type": "bytes32"
        },
        {
          "internalType": "address",
          "name": "callerConfirmation",
          "type": "address"
        }
      ],
      "name": "renounceRole",
      "outputs": [],
      "stateMutability": "nonpayable",
      "type": "function"
    },
    {
      "inputs": [
        {
          "internalType": "bytes32",
          "name": "role",
          "type": "bytes32"
        },
        {
          "internalType": "address",
          "name": "account",
          "type": "address"
        }
      ],
      "name": "revokeRole",
      "outputs": [],
      "stateMutability": "nonpayable",
      "type": "function"
    },
    {
      "inputs": [
        {
          "internalType": "uint64",
          "name": "chainId",
          "type": "uint64"
        },
        {
          "internalType": "address",
          "name": "receiver",
          "type": "address"
        },
        {
          "internalType": "uint256",
          "name": "gasLimit_",
          "type": "uint256"
        }
      ],
      "name": "setTargetChain",
      "outputs": [],
      "stateMutability": "nonpayable",
      "type": "function"
    },
    {
      "inputs": [
        {
          "internalType": "bytes4",
          "name": "interfaceId",
          "type": "bytes4"
        }
      ],
      "name": "supportsInterface",
      "outputs": [
        {
          "internalType": "bool",
          "name": "",
          "type": "bool"
        }
      ],
      "stateMutability": "view",
      "type": "function"
    },
    {
      "inputs": [
        {
          "internalType": "contract IERC20Metadata",
          "name": "token",
          "type": "address"
        },
        {
          "internalType": "uint64",
          "name": "chainId",
          "type": "uint64"
        },
        {
          "internalType": "address",
          "name": "target",
          "type": "address"
        },
        {
          "internalType": "uint256",
          "name": "amount",
          "type": "uint256"
        }
      ],
      "name": "transferToken",
      "outputs": [],
      "stateMutability": "nonpayable",
      "type": "function"
    },
    {
      "inputs": [
        {
          "internalType": "contract IERC20Metadata",
          "name": "",
          "type": "address"
        },
        {
          "internalType": "uint64",
          "name": "",
          "type": "uint64"
        },
        {
          "internalType": "address",
          "name": "",
          "type": "address"
        },
        {
          "internalType": "uint256",
          "name": "",
          "type": "uint256"
        },
        {
          "internalType": "bytes",
          "name": "",
          "type": "bytes"
        }
      ],
      "name": "transferTokenAndData",
      "outputs": [],
      "stateMutability": "pure",
      "type": "function"
    }
  ],
  "transactionHash": "0x75179d3e9d37a5619de6ed267f3a1e7eb3f5ed779df1d0dd01375a90f4f96319",
  "args": [
    "0x2a9C5afB0d0e4BAb2BCdaE109EC4b0c4Be15a165",
    "0xb1D4538B4571d411F07960EF2838Ce337FE1E80E",
    "0x9a5c5a447a4A324771107140EfC226aA6b3be7F4"
  ],
  "numDeployments": 2,
  "solcInputHash": "d0c1ad53bdce9b194f6fa5f2af87ce22",
  "bytecode": "0x60c060405234801561001057600080fd5b5060405161146738038061146783398101604081905261002f9161011a565b6001600160a01b03808416608052821660a05261004d600082610056565b50505050610167565b6000828152602081815260408083206001600160a01b038516845290915281205460ff166100f8576000838152602081815260408083206001600160a01b03861684529091529020805460ff191660011790556100b03390565b6001600160a01b0316826001600160a01b0316847f2f8788117e7eff1d82e926ec794901d17c78024a50270940304540a733656f0d60405160405180910390a45060016100fc565b5060005b92915050565b6001600160a01b038116811461011757600080fd5b50565b60008060006060848603121561012f57600080fd5b835161013a81610102565b602085015190935061014b81610102565b604085015190925061015c81610102565b809150509250925092565b60805160a05161129c6101cb600039600081816101f90152818161052a0152818161067801528181610707015281816107e401526109b201526000818161015c015281816105e8015281816107b50152818161087e0152610915015261129c6000f3fe608060405234801561001057600080fd5b50600436106100f55760003560e01c806357970e9311610097578063ada8bcdc11610066578063ada8bcdc14610244578063b093aee3146102a6578063b7663247146102b9578063d547741f146102cc57600080fd5b806357970e93146101f457806391d148541461021b578063a217fddf1461022e578063a717a78e1461023657600080fd5b8063248a9ca3116100d3578063248a9ca3146101965780632f2ff15d146101b957806336568abe146101ce5780634ac4ff2b146101e157600080fd5b806301ffc9a7146100fa57806306170b8c146101225780630de2298414610157575b600080fd5b61010d610108366004610e50565b6102df565b60405190151581526020015b60405180910390f35b6101497f155b0871cca71c816fdac5e9acada123aa1eed80c9435d654112f5669ea6ec2a81565b604051908152602001610119565b61017e7f000000000000000000000000000000000000000000000000000000000000000081565b6040516001600160a01b039091168152602001610119565b6101496101a4366004610e7a565b60009081526020819052604090206001015490565b6101cc6101c7366004610ea8565b610316565b005b6101cc6101dc366004610ea8565b610341565b6101cc6101ef366004610f3c565b610379565b61017e7f000000000000000000000000000000000000000000000000000000000000000081565b61010d610229366004610ea8565b610392565b610149600081565b6101cc6101ef366004610f9e565b61027f610252366004611020565b6001602052600090815260409020546001600160a01b03811690600160a01b90046001600160401b031682565b604080516001600160a01b0390931683526001600160401b03909116602083015201610119565b6101cc6102b436600461103b565b6103bb565b6101cc6102c736600461108a565b610a29565b6101cc6102da366004610ea8565b610af0565b60006001600160e01b03198216637965db0b60e01b148061031057506301ffc9a760e01b6001600160e01b03198316145b92915050565b60008281526020819052604090206001015461033181610b15565b61033b8383610b22565b50505050565b6001600160a01b038116331461036a5760405163334bd91960e11b815260040160405180910390fd5b6103748282610bb4565b505050565b60405163d623472560e01b815260040160405180910390fd5b6000918252602082815260408084206001600160a01b0393909316845291905290205460ff1690565b6001600160401b0383166000908152600160205260409020805484906001600160a01b031661040e576040516367a1bf1d60e01b81526001600160401b0390911660048201526024015b60405180910390fd5b5081600003610430576040516310eb483f60e21b815260040160405180910390fd5b604080516001808252818301909252600091816020015b60408051808201909152600080825260208201528152602001906001900390816104475790505090506040518060400160405280876001600160a01b0316815260200184815250816000815181106104a1576104a16110c9565b6020908102919091018101919091526040805160a08101825284546001600160a01b0380821660c0808501919091528451808503909101815260e08401855283528351898216602482015260448082018a9052855180830390910181526064909101855280860180516001600160e01b03166356e4bb9760e11b179052838601528284018690527f00000000000000000000000000000000000000000000000000000000000000001660608301528251808401909352600160a01b90046001600160401b031682526001928201929092526000919060808201906105c9906040805182516024820152602092830151151560448083019190915282518083039091018152606490910190915290810180516001600160e01b0316630181dcf160e41b17905290565b90526040516320487ded60e01b81529091506000906001600160a01b037f000000000000000000000000000000000000000000000000000000000000000016906320487ded9061061f908a90869060040161112f565b602060405180830381865afa15801561063c573d6000803e3d6000fd5b505050506040513d601f19601f82011682018060405250810190610660919061120f565b6040516370a0823160e01b81523060048201529091507f00000000000000000000000000000000000000000000000000000000000000006001600160a01b0316906370a0823190602401602060405180830381865afa1580156106c7573d6000803e3d6000fd5b505050506040513d601f19601f820116820180604052508101906106eb919061120f565b81111561079e576040516370a0823160e01b81523060048201527f00000000000000000000000000000000000000000000000000000000000000006001600160a01b0316906370a0823190602401602060405180830381865afa158015610756573d6000803e3d6000fd5b505050506040513d601f19601f8201168201806040525081019061077a919061120f565b604051634787a10360e11b8152600481019190915260248101829052604401610405565b60405163095ea7b360e01b81526001600160a01b037f000000000000000000000000000000000000000000000000000000000000000081166004830152602482018390527f0000000000000000000000000000000000000000000000000000000000000000169063095ea7b3906044016020604051808303816000875af115801561082d573d6000803e3d6000fd5b505050506040513d601f19601f820116820180604052508101906108519190611228565b506108676001600160a01b038916333088610c1f565b60405163095ea7b360e01b81526001600160a01b037f0000000000000000000000000000000000000000000000000000000000000000811660048301526024820187905289169063095ea7b3906044016020604051808303816000875af11580156108d6573d6000803e3d6000fd5b505050506040513d601f19601f820116820180604052508101906108fa9190611228565b506040516396f4e9f960e01b81526000906001600160a01b037f000000000000000000000000000000000000000000000000000000000000000016906396f4e9f99061094c908b90879060040161112f565b6020604051808303816000875af115801561096b573d6000803e3d6000fd5b505050506040513d601f19601f8201168201806040525081019061098f919061120f565b8554604080516001600160a01b038b811682528d811660208301529181018a90527f0000000000000000000000000000000000000000000000000000000000000000821660608201526080810186905292935016906001600160401b038a169083907f80f8e2b9197752b9e33afaa4f92703ac7efbbf247cddcc732b1b555ff1dea27b9060a00160405180910390a4505050505050505050565b7f155b0871cca71c816fdac5e9acada123aa1eed80c9435d654112f5669ea6ec2a610a5381610b15565b6001600160401b038416600090815260016020526040902080546001600160a01b0319166001600160a01b0385161790558382610aaf5760405163b638ee9f60e01b81526001600160401b039091166004820152602401610405565b50506001600160401b039283166000908152600160205260409020805493909116600160a01b0267ffffffffffffffff60a01b199093169290921790915550565b600082815260208190526040902060010154610b0b81610b15565b61033b8383610bb4565b610b1f8133610c79565b50565b6000610b2e8383610392565b610bac576000838152602081815260408083206001600160a01b03861684529091529020805460ff19166001179055610b643390565b6001600160a01b0316826001600160a01b0316847f2f8788117e7eff1d82e926ec794901d17c78024a50270940304540a733656f0d60405160405180910390a4506001610310565b506000610310565b6000610bc08383610392565b15610bac576000838152602081815260408083206001600160a01b0386168085529252808320805460ff1916905551339286917ff6391f5c32d9c69d2a47ea670b442974b53935d1edc7fd64eb21e047a839171b9190a4506001610310565b604080516001600160a01b0385811660248301528416604482015260648082018490528251808303909101815260849091019091526020810180516001600160e01b03166323b872dd60e01b17905261033b908590610cb6565b610c838282610392565b610cb25760405163e2517d3f60e01b81526001600160a01b038216600482015260248101839052604401610405565b5050565b6000610ccb6001600160a01b03841683610d19565b90508051600014158015610cf0575080806020019051810190610cee9190611228565b155b1561037457604051635274afe760e01b81526001600160a01b0384166004820152602401610405565b6060610d2783836000610d2e565b9392505050565b606081471015610d535760405163cd78605960e01b8152306004820152602401610405565b600080856001600160a01b03168486604051610d6f919061124a565b60006040518083038185875af1925050503d8060008114610dac576040519150601f19603f3d011682016040523d82523d6000602084013e610db1565b606091505b5091509150610dc1868383610dcb565b9695505050505050565b606082610de057610ddb82610e27565b610d27565b8151158015610df757506001600160a01b0384163b155b15610e2057604051639996b31560e01b81526001600160a01b0385166004820152602401610405565b5080610d27565b805115610e375780518082602001fd5b604051630a12f52160e11b815260040160405180910390fd5b600060208284031215610e6257600080fd5b81356001600160e01b031981168114610d2757600080fd5b600060208284031215610e8c57600080fd5b5035919050565b6001600160a01b0381168114610b1f57600080fd5b60008060408385031215610ebb57600080fd5b823591506020830135610ecd81610e93565b809150509250929050565b80356001600160401b0381168114610eef57600080fd5b919050565b60008083601f840112610f0657600080fd5b5081356001600160401b03811115610f1d57600080fd5b602083019150836020828501011115610f3557600080fd5b9250929050565b60008060008060608587031215610f5257600080fd5b610f5b85610ed8565b93506020850135610f6b81610e93565b925060408501356001600160401b03811115610f8657600080fd5b610f9287828801610ef4565b95989497509550505050565b60008060008060008060a08789031215610fb757600080fd5b8635610fc281610e93565b9550610fd060208801610ed8565b94506040870135610fe081610e93565b93506060870135925060808701356001600160401b0381111561100257600080fd5b61100e89828a01610ef4565b979a9699509497509295939492505050565b60006020828403121561103257600080fd5b610d2782610ed8565b6000806000806080858703121561105157600080fd5b843561105c81610e93565b935061106a60208601610ed8565b9250604085013561107a81610e93565b9396929550929360600135925050565b60008060006060848603121561109f57600080fd5b6110a884610ed8565b925060208401356110b881610e93565b929592945050506040919091013590565b634e487b7160e01b600052603260045260246000fd5b60005b838110156110fa5781810151838201526020016110e2565b50506000910152565b6000815180845261111b8160208601602086016110df565b601f01601f19169290920160200192915050565b6001600160401b0383168152604060208201526000825160a0604084015261115a60e0840182611103565b90506020840151603f198483030160608501526111778282611103565b6040860151858203603f19016080870152805180835260209182019450600093509101905b808310156111d357835180516001600160a01b0316835260209081015181840152909301926001929092019160409091019061119c565b5060608601516001600160a01b031660a08601526080860151858203603f190160c087015292506112048184611103565b979650505050505050565b60006020828403121561122157600080fd5b5051919050565b60006020828403121561123a57600080fd5b81518015158114610d2757600080fd5b6000825161125c8184602087016110df565b919091019291505056fea26469706673582212209a7815682bd5ff83ec951054fd38febfe04908566b141c2cbf60327b28daf50364736f6c634300081c0033",
  "devdoc": {
    "errors": {
      "AccessControlBadConfirmation()": [
        {
          "details": "The caller of a function is not the expected one. NOTE: Don't confuse with {AccessControlUnauthorizedAccount}."
        }
      ],
      "AccessControlUnauthorizedAccount(address,bytes32)": [
        {
          "details": "The `account` is missing a role."
        }
      ],
      "AddressEmptyCode(address)": [
        {
          "details": "There's no code at `target` (it is not a contract)."
        }
      ],
      "AddressInsufficientBalance(address)": [
        {
          "details": "The ETH balance of the account is not enough to perform the operation."
        }
      ],
      "FailedInnerCall()": [
        {
          "details": "A call to an address target failed. The target may have reverted."
        }
      ],
      "SafeERC20FailedOperation(address)": [
        {
          "details": "An operation with an ERC20 token failed."
        }
      ]
    },
    "events": {
      "RoleAdminChanged(bytes32,bytes32,bytes32)": {
        "details": "Emitted when `newAdminRole` is set as ``role``'s admin role, replacing `previousAdminRole` `DEFAULT_ADMIN_ROLE` is the starting admin for all roles, despite {RoleAdminChanged} not being emitted signaling this."
      },
      "RoleGranted(bytes32,address,address)": {
        "details": "Emitted when `account` is granted `role`. `sender` is the account that originated the contract call, an admin role bearer except when using {AccessControl-_setupRole}."
      },
      "RoleRevoked(bytes32,address,address)": {
        "details": "Emitted when `account` is revoked `role`. `sender` is the account that originated the contract call:   - if using `revokeRole`, it is the admin role bearer   - if using `renounceRole`, it is the role bearer (i.e. `account`)"
      }
    },
    "kind": "dev",
    "methods": {
      "getRoleAdmin(bytes32)": {
        "details": "Returns the admin role that controls `role`. See {grantRole} and {revokeRole}. To change a role's admin, use {_setRoleAdmin}."
      },
      "grantRole(bytes32,address)": {
        "details": "Grants `role` to `account`. If `account` had not been already granted `role`, emits a {RoleGranted} event. Requirements: - the caller must have ``role``'s admin role. May emit a {RoleGranted} event."
      },
      "hasRole(bytes32,address)": {
        "details": "Returns `true` if `account` has been granted `role`."
      },
      "renounceRole(bytes32,address)": {
        "details": "Revokes `role` from the calling account. Roles are often managed via {grantRole} and {revokeRole}: this function's purpose is to provide a mechanism for accounts to lose their privileges if they are compromised (such as when a trusted device is misplaced). If the calling account had been revoked `role`, emits a {RoleRevoked} event. Requirements: - the caller must be `callerConfirmation`. May emit a {RoleRevoked} event."
      },
      "revokeRole(bytes32,address)": {
        "details": "Revokes `role` from `account`. If `account` had been granted `role`, emits a {RoleRevoked} event. Requirements: - the caller must have ``role``'s admin role. May emit a {RoleRevoked} event."
      },
      "supportsInterface(bytes4)": {
        "details": "See {IERC165-supportsInterface}."
      }
    },
    "title": "CCIPBridge",
    "version": 1
  },
  "userdoc": {
    "kind": "user",
    "methods": {},
    "notice": "Implementation of the bridge using CCIP Chainlink protocol.",
    "version": 1
  },
  "storageLayout": {
    "storage": [
      {
        "astId": 149,
        "contract": "contracts/bridges/CCIPBridge.sol:CCIPBridge",
        "label": "_roles",
        "offset": 0,
        "slot": "0",
        "type": "t_mapping(t_bytes32,t_struct(RoleData)144_storage)"
      },
      {
        "astId": 1339,
        "contract": "contracts/bridges/CCIPBridge.sol:CCIPBridge",
        "label": "chains",
        "offset": 0,
        "slot": "1",
        "type": "t_mapping(t_uint64,t_struct(ChainConfig)1334_storage)"
      }
    ],
    "types": {
      "t_address": {
        "encoding": "inplace",
        "label": "address",
        "numberOfBytes": "20"
      },
      "t_bool": {
        "encoding": "inplace",
        "label": "bool",
        "numberOfBytes": "1"
      },
      "t_bytes32": {
        "encoding": "inplace",
        "label": "bytes32",
        "numberOfBytes": "32"
      },
      "t_mapping(t_address,t_bool)": {
        "encoding": "mapping",
        "key": "t_address",
        "label": "mapping(address => bool)",
        "numberOfBytes": "32",
        "value": "t_bool"
      },
      "t_mapping(t_bytes32,t_struct(RoleData)144_storage)": {
        "encoding": "mapping",
        "key": "t_bytes32",
        "label": "mapping(bytes32 => struct AccessControl.RoleData)",
        "numberOfBytes": "32",
        "value": "t_struct(RoleData)144_storage"
      },
      "t_mapping(t_uint64,t_struct(ChainConfig)1334_storage)": {
        "encoding": "mapping",
        "key": "t_uint64",
        "label": "mapping(uint64 => struct CCIPBridge.ChainConfig)",
        "numberOfBytes": "32",
        "value": "t_struct(ChainConfig)1334_storage"
      },
      "t_struct(ChainConfig)1334_storage": {
        "encoding": "inplace",
        "label": "struct CCIPBridge.ChainConfig",
        "members": [
          {
            "astId": 1331,
            "contract": "contracts/bridges/CCIPBridge.sol:CCIPBridge",
            "label": "receiver",
            "offset": 0,
            "slot": "0",
            "type": "t_address"
          },
          {
            "astId": 1333,
            "contract": "contracts/bridges/CCIPBridge.sol:CCIPBridge",
            "label": "gasLimit",
            "offset": 20,
            "slot": "0",
            "type": "t_uint64"
          }
        ],
        "numberOfBytes": "32"
      },
      "t_struct(RoleData)144_storage": {
        "encoding": "inplace",
        "label": "struct AccessControl.RoleData",
        "members": [
          {
            "astId": 141,
            "contract": "contracts/bridges/CCIPBridge.sol:CCIPBridge",
            "label": "hasRole",
            "offset": 0,
            "slot": "0",
            "type": "t_mapping(t_address,t_bool)"
          },
          {
            "astId": 143,
            "contract": "contracts/bridges/CCIPBridge.sol:CCIPBridge",
            "label": "adminRole",
            "offset": 0,
            "slot": "1",
            "type": "t_bytes32"
          }
        ],
        "numberOfBytes": "64"
      },
      "t_uint64": {
        "encoding": "inplace",
        "label": "uint64",
        "numberOfBytes": "8"
      }
    }
  }
}