{
  "address": "0x9d5D5C247e09Cdd1F696D8FCD2ffc0e6EEc59a1D",
  "abi": [
    {
      "inputs": [
        {
          "internalType": "contract IRouterClient",
          "name": "ccipRouter_",
          "type": "address"
        },
        {
          "internalType": "contract IERC20Metadata",
          "name": "linkToken_",
          "type": "address"
        },
        {
          "internalType": "address",
          "name": "admin",
          "type": "address"
        },
        {
          "internalType": "contract IInterchainAccountRouter",
          "name": "_interchainAccountRouter",
          "type": "address"
        }
      ],
      "stateMutability": "nonpayable",
      "type": "constructor"
    },
    {
      "inputs": [],
      "name": "AccessControlBadConfirmation",
      "type": "error"
    },
    {
      "inputs": [
        {
          "internalType": "address",
          "name": "account",
          "type": "address"
        },
        {
          "internalType": "bytes32",
          "name": "neededRole",
          "type": "bytes32"
        }
      ],
      "name": "AccessControlUnauthorizedAccount",
      "type": "error"
    },
    {
      "inputs": [
        {
          "internalType": "address",
          "name": "target",
          "type": "address"
        }
      ],
      "name": "AddressEmptyCode",
      "type": "error"
    },
    {
      "inputs": [
        {
          "internalType": "address",
          "name": "account",
          "type": "address"
        }
      ],
      "name": "AddressInsufficientBalance",
      "type": "error"
    },
    {
      "inputs": [],
      "name": "AmountIsZero",
      "type": "error"
    },
    {
      "inputs": [],
      "name": "FailedInnerCall",
      "type": "error"
    },
    {
      "inputs": [
        {
          "internalType": "uint64",
          "name": "destinationChainSelector",
          "type": "uint64"
        }
      ],
      "name": "NoGasLimitOnDestinationChain",
      "type": "error"
    },
    {
      "inputs": [
        {
          "internalType": "uint64",
          "name": "destinationChainSelector",
          "type": "uint64"
        }
      ],
      "name": "NoReceiverOnDestinationChain",
      "type": "error"
    },
    {
      "inputs": [
        {
          "internalType": "uint256",
          "name": "currentBalance",
          "type": "uint256"
        },
        {
          "internalType": "uint256",
          "name": "calculatedFees",
          "type": "uint256"
        }
      ],
      "name": "NotEnoughBalance",
      "type": "error"
    },
    {
      "inputs": [],
      "name": "NotImplemented",
      "type": "error"
    },
    {
      "inputs": [
        {
          "internalType": "address",
          "name": "token",
          "type": "address"
        }
      ],
      "name": "SafeERC20FailedOperation",
      "type": "error"
    },
    {
      "anonymous": false,
      "inputs": [
        {
          "indexed": true,
          "internalType": "bytes32",
          "name": "messageId",
          "type": "bytes32"
        },
        {
          "indexed": true,
          "internalType": "uint64",
          "name": "destinationChainSelector",
          "type": "uint64"
        },
        {
          "indexed": true,
          "internalType": "address",
          "name": "receiver",
          "type": "address"
        },
        {
          "indexed": false,
          "internalType": "address",
          "name": "beneficiary",
          "type": "address"
        },
        {
          "indexed": false,
          "internalType": "address",
          "name": "token",
          "type": "address"
        },
        {
          "indexed": false,
          "internalType": "uint256",
          "name": "tokenAmount",
          "type": "uint256"
        },
        {
          "indexed": false,
          "internalType": "address",
          "name": "feeToken",
          "type": "address"
        },
        {
          "indexed": false,
          "internalType": "uint256",
          "name": "fees",
          "type": "uint256"
        }
      ],
      "name": "MessageSent",
      "type": "event"
    },
    {
      "anonymous": false,
      "inputs": [
        {
          "indexed": true,
          "internalType": "bytes32",
          "name": "role",
          "type": "bytes32"
        },
        {
          "indexed": true,
          "internalType": "bytes32",
          "name": "previousAdminRole",
          "type": "bytes32"
        },
        {
          "indexed": true,
          "internalType": "bytes32",
          "name": "newAdminRole",
          "type": "bytes32"
        }
      ],
      "name": "RoleAdminChanged",
      "type": "event"
    },
    {
      "anonymous": false,
      "inputs": [
        {
          "indexed": true,
          "internalType": "bytes32",
          "name": "role",
          "type": "bytes32"
        },
        {
          "indexed": true,
          "internalType": "address",
          "name": "account",
          "type": "address"
        },
        {
          "indexed": true,
          "internalType": "address",
          "name": "sender",
          "type": "address"
        }
      ],
      "name": "RoleGranted",
      "type": "event"
    },
    {
      "anonymous": false,
      "inputs": [
        {
          "indexed": true,
          "internalType": "bytes32",
          "name": "role",
          "type": "bytes32"
        },
        {
          "indexed": true,
          "internalType": "address",
          "name": "account",
          "type": "address"
        },
        {
          "indexed": true,
          "internalType": "address",
          "name": "sender",
          "type": "address"
        }
      ],
      "name": "RoleRevoked",
      "type": "event"
    },
    {
      "inputs": [],
      "name": "CHAIN_ADMIN_ROLE",
      "outputs": [
        {
          "internalType": "bytes32",
          "name": "",
          "type": "bytes32"
        }
      ],
      "stateMutability": "view",
      "type": "function"
    },
    {
      "inputs": [],
      "name": "DEFAULT_ADMIN_ROLE",
      "outputs": [
        {
          "internalType": "bytes32",
          "name": "",
          "type": "bytes32"
        }
      ],
      "stateMutability": "view",
      "type": "function"
    },
    {
      "inputs": [
        {
          "internalType": "uint64",
          "name": "chainId",
          "type": "uint64"
        },
        {
          "internalType": "address",
          "name": "target",
          "type": "address"
        },
        {
          "internalType": "bytes",
          "name": "data",
          "type": "bytes"
        }
      ],
      "name": "callCrossChain",
      "outputs": [],
      "stateMutability": "nonpayable",
      "type": "function"
    },
    {
      "inputs": [],
      "name": "ccipRouter",
      "outputs": [
        {
          "internalType": "contract IRouterClient",
          "name": "",
          "type": "address"
        }
      ],
      "stateMutability": "view",
      "type": "function"
    },
    {
      "inputs": [
        {
          "internalType": "uint64",
          "name": "",
          "type": "uint64"
        }
      ],
      "name": "chains",
      "outputs": [
        {
          "internalType": "address",
          "name": "receiver",
          "type": "address"
        },
        {
          "internalType": "uint64",
          "name": "chainSelector",
          "type": "uint64"
        },
        {
          "internalType": "uint32",
          "name": "gasLimit",
          "type": "uint32"
        }
      ],
      "stateMutability": "view",
      "type": "function"
    },
    {
      "inputs": [
        {
          "internalType": "uint32",
          "name": "_destination",
          "type": "uint32"
        }
      ],
      "name": "getRemoteInterchainAccount",
      "outputs": [
        {
          "internalType": "address",
          "name": "",
          "type": "address"
        }
      ],
      "stateMutability": "view",
      "type": "function"
    },
    {
      "inputs": [
        {
          "internalType": "bytes32",
          "name": "role",
          "type": "bytes32"
        }
      ],
      "name": "getRoleAdmin",
      "outputs": [
        {
          "internalType": "bytes32",
          "name": "",
          "type": "bytes32"
        }
      ],
      "stateMutability": "view",
      "type": "function"
    },
    {
      "inputs": [
        {
          "internalType": "bytes32",
          "name": "role",
          "type": "bytes32"
        },
        {
          "internalType": "address",
          "name": "account",
          "type": "address"
        }
      ],
      "name": "grantRole",
      "outputs": [],
      "stateMutability": "nonpayable",
      "type": "function"
    },
    {
      "inputs": [
        {
          "internalType": "bytes32",
          "name": "role",
          "type": "bytes32"
        },
        {
          "internalType": "address",
          "name": "account",
          "type": "address"
        }
      ],
      "name": "hasRole",
      "outputs": [
        {
          "internalType": "bool",
          "name": "",
          "type": "bool"
        }
      ],
      "stateMutability": "view",
      "type": "function"
    },
    {
      "inputs": [],
      "name": "interchainAccountRouter",
      "outputs": [
        {
          "internalType": "contract IInterchainAccountRouter",
          "name": "",
          "type": "address"
        }
      ],
      "stateMutability": "view",
      "type": "function"
    },
    {
      "inputs": [],
      "name": "linkToken",
      "outputs": [
        {
          "internalType": "contract IERC20Metadata",
          "name": "",
          "type": "address"
        }
      ],
      "stateMutability": "view",
      "type": "function"
    },
    {
      "inputs": [
        {
          "internalType": "bytes32",
          "name": "role",
          "type": "bytes32"
        },
        {
          "internalType": "address",
          "name": "callerConfirmation",
          "type": "address"
        }
      ],
      "name": "renounceRole",
      "outputs": [],
      "stateMutability": "nonpayable",
      "type": "function"
    },
    {
      "inputs": [
        {
          "internalType": "bytes32",
          "name": "role",
          "type": "bytes32"
        },
        {
          "internalType": "address",
          "name": "account",
          "type": "address"
        }
      ],
      "name": "revokeRole",
      "outputs": [],
      "stateMutability": "nonpayable",
      "type": "function"
    },
    {
      "inputs": [
        {
          "internalType": "uint64",
          "name": "chainId",
          "type": "uint64"
        },
        {
          "internalType": "uint64",
          "name": "chainSelector",
          "type": "uint64"
        },
        {
          "internalType": "address",
          "name": "receiver",
          "type": "address"
        },
        {
          "internalType": "uint256",
          "name": "gasLimit_",
          "type": "uint256"
        }
      ],
      "name": "setTargetChain",
      "outputs": [],
      "stateMutability": "nonpayable",
      "type": "function"
    },
    {
      "inputs": [
        {
          "internalType": "bytes4",
          "name": "interfaceId",
          "type": "bytes4"
        }
      ],
      "name": "supportsInterface",
      "outputs": [
        {
          "internalType": "bool",
          "name": "",
          "type": "bool"
        }
      ],
      "stateMutability": "view",
      "type": "function"
    },
    {
      "inputs": [
        {
          "internalType": "contract IERC20Metadata",
          "name": "token",
          "type": "address"
        },
        {
          "internalType": "uint64",
          "name": "chainId",
          "type": "uint64"
        },
        {
          "internalType": "address",
          "name": "target",
          "type": "address"
        },
        {
          "internalType": "uint256",
          "name": "amount",
          "type": "uint256"
        }
      ],
      "name": "transferToken",
      "outputs": [],
      "stateMutability": "nonpayable",
      "type": "function"
    },
    {
      "inputs": [
        {
          "internalType": "contract IERC20Metadata",
          "name": "",
          "type": "address"
        },
        {
          "internalType": "uint64",
          "name": "",
          "type": "uint64"
        },
        {
          "internalType": "address",
          "name": "",
          "type": "address"
        },
        {
          "internalType": "uint256",
          "name": "",
          "type": "uint256"
        },
        {
          "internalType": "bytes",
          "name": "",
          "type": "bytes"
        }
      ],
      "name": "transferTokenAndData",
      "outputs": [],
      "stateMutability": "pure",
      "type": "function"
    },
    {
      "stateMutability": "payable",
      "type": "receive"
    }
  ],
  "transactionHash": "0xecc5111ea19741ac3b817bdb259104b932c957aa7ee5586ea90d3a82605141f4",
  "args": [
    "0x2a9C5afB0d0e4BAb2BCdaE109EC4b0c4Be15a165",
    "0xb1D4538B4571d411F07960EF2838Ce337FE1E80E",
    "0x9a5c5a447a4A324771107140EfC226aA6b3be7F4",
    "0x20cC3a33C49fa13627303669edf2DcA7F1E76a50"
  ],
  "numDeployments": 1,
  "solcInputHash": "f7ec174934b675dd2f06f5bd41191c6d",
  "bytecode": "0x60c060405234801561001057600080fd5b506040516118a63803806118a683398101604081905261002f91610123565b600080546001600160a01b0319166001600160a01b03838116919091178255858116608052841660a0528490849084906100699082610076565b5050505050505050610182565b60008281526001602090815260408083206001600160a01b038516845290915281205460ff166101015760008381526001602081815260408084206001600160a01b0387168086529252808420805460ff19169093179092559051339286917f2f8788117e7eff1d82e926ec794901d17c78024a50270940304540a733656f0d9190a4506001610105565b5060005b92915050565b6001600160a01b038116811461012057600080fd5b50565b6000806000806080858703121561013957600080fd5b84516101448161010b565b60208601519094506101558161010b565b60408601519093506101668161010b565b60608601519092506101778161010b565b939692955090935050565b60805160a0516116c06101e6600039600081816102760152818161084401528181610926015281816109b501528181610a920152610c730152600081816101970152818161087f01528181610a6301528181610b2c0152610bbd01526116c06000f3fe6080604052600436106101025760003560e01c80636d7fd8fa11610095578063a717a78e11610064578063a717a78e1461030d578063a9d59e3a1461032d578063ada8bcdc1461034d578063b093aee3146103d6578063d547741f146103f657600080fd5b80636d7fd8fa146102985780636db05be5146102b857806391d14854146102d8578063a217fddf146102f857600080fd5b80632f2ff15d116100d15780632f2ff15d1461020257806336568abe146102245780634ac4ff2b1461024457806357970e931461026457600080fd5b806301ffc9a71461010e57806306170b8c146101435780630de2298414610185578063248a9ca3146101d157600080fd5b3661010957005b600080fd5b34801561011a57600080fd5b5061012e6101293660046111be565b610416565b60405190151581526020015b60405180910390f35b34801561014f57600080fd5b506101777f155b0871cca71c816fdac5e9acada123aa1eed80c9435d654112f5669ea6ec2a81565b60405190815260200161013a565b34801561019157600080fd5b506101b97f000000000000000000000000000000000000000000000000000000000000000081565b6040516001600160a01b03909116815260200161013a565b3480156101dd57600080fd5b506101776101ec3660046111e8565b6000908152600160208190526040909120015490565b34801561020e57600080fd5b5061022261021d366004611216565b61044d565b005b34801561023057600080fd5b5061022261023f366004611216565b610479565b34801561025057600080fd5b5061022261025f3660046112aa565b6104b1565b34801561027057600080fd5b506101b97f000000000000000000000000000000000000000000000000000000000000000081565b3480156102a457600080fd5b506102226102b336600461130c565b6105fa565b3480156102c457600080fd5b506101b96102d3366004611359565b61070b565b3480156102e457600080fd5b5061012e6102f3366004611216565b610784565b34801561030457600080fd5b50610177600081565b34801561031957600080fd5b5061022261032836600461137f565b6107af565b34801561033957600080fd5b506000546101b9906001600160a01b031681565b34801561035957600080fd5b506103a3610368366004611401565b6002602052600090815260409020546001600160a01b03811690600160a01b81046001600160401b031690600160e01b900463ffffffff1683565b604080516001600160a01b0390941684526001600160401b03909216602084015263ffffffff169082015260600161013a565b3480156103e257600080fd5b506102226103f136600461141c565b6107c8565b34801561040257600080fd5b50610222610411366004611216565b610cee565b60006001600160e01b03198216637965db0b60e01b148061044757506301ffc9a760e01b6001600160e01b03198316145b92915050565b6000828152600160208190526040909120015461046981610d14565b6104738383610d21565b50505050565b6001600160a01b03811633146104a25760405163334bd91960e11b815260040160405180910390fd5b6104ac8282610d9a565b505050565b604080516001808252818301909252600091816020015b604080516060808201835260008083526020830152918101919091528152602001906001900390816104c85790505090506040518060600160405280610514866001600160a01b031690565b81526020016000815260200184848080601f016020809104026020016040519081016040528093929190818152602001838380828437600092018290525093909452505083518492506105695761056961143d565b602090810291909101015260005460405163dd91cc8760e01b81526001600160a01b039091169063dd91cc8790662386f26fc10000906105af90899086906004016114a3565b60206040518083038185885af11580156105cd573d6000803e3d6000fd5b50505050506040513d601f19601f820116820180604052508101906105f29190611536565b505050505050565b7f155b0871cca71c816fdac5e9acada123aa1eed80c9435d654112f5669ea6ec2a61062481610d14565b6001600160401b0380861660009081526002602052604090208054918616600160a01b026001600160e01b03199092166001600160a01b0386161791909117905584826106955760405163b638ee9f60e01b81526001600160401b0390911660048201526024015b60405180910390fd5b50836001600160401b0381166106ca5760405163b638ee9f60e01b81526001600160401b03909116600482015260240161068c565b50506001600160401b039093166000908152600260205260409020805463ffffffff909416600160e01b026001600160e01b03909416939093179092555050565b60008054604051630e25828560e01b815263ffffffff841660048201523060248201526001600160a01b0390911690630e25828590604401602060405180830381865afa158015610760573d6000803e3d6000fd5b505050506040513d601f19601f82011682018060405250810190610447919061154f565b60009182526001602090815260408084206001600160a01b0393909316845291905290205460ff1690565b60405163d623472560e01b815260040160405180910390fd5b6001600160401b038084166000908152600260205260409020805490918591600160a01b900416610818576040516367a1bf1d60e01b81526001600160401b03909116600482015260240161068c565b508160000361083a576040516310eb483f60e21b815260040160405180910390fd5b60006108688487857f0000000000000000000000000000000000000000000000000000000000000000610e07565b82546040516320487ded60e01b81529192506000917f00000000000000000000000000000000000000000000000000000000000000006001600160a01b0316916320487ded916108cd91600160a01b90046001600160401b031690869060040161156c565b602060405180830381865afa1580156108ea573d6000803e3d6000fd5b505050506040513d601f19601f8201168201806040525081019061090e9190611536565b6040516370a0823160e01b81523060048201529091507f00000000000000000000000000000000000000000000000000000000000000006001600160a01b0316906370a0823190602401602060405180830381865afa158015610975573d6000803e3d6000fd5b505050506040513d601f19601f820116820180604052508101906109999190611536565b811115610a4c576040516370a0823160e01b81523060048201527f00000000000000000000000000000000000000000000000000000000000000006001600160a01b0316906370a0823190602401602060405180830381865afa158015610a04573d6000803e3d6000fd5b505050506040513d601f19601f82011682018060405250810190610a289190611536565b604051634787a10360e11b815260048101919091526024810182905260440161068c565b60405163095ea7b360e01b81526001600160a01b037f000000000000000000000000000000000000000000000000000000000000000081166004830152602482018390527f0000000000000000000000000000000000000000000000000000000000000000169063095ea7b3906044016020604051808303816000875af1158015610adb573d6000803e3d6000fd5b505050506040513d601f19601f82011682018060405250810190610aff919061164c565b50610b156001600160a01b038816333087610f8d565b60405163095ea7b360e01b81526001600160a01b037f0000000000000000000000000000000000000000000000000000000000000000811660048301526024820186905288169063095ea7b3906044016020604051808303816000875af1158015610b84573d6000803e3d6000fd5b505050506040513d601f19601f82011682018060405250810190610ba8919061164c565b5082546040516396f4e9f960e01b81526000917f00000000000000000000000000000000000000000000000000000000000000006001600160a01b0316916396f4e9f991610c0c91600160a01b9091046001600160401b031690879060040161156c565b6020604051808303816000875af1158015610c2b573d6000803e3d6000fd5b505050506040513d601f19601f82011682018060405250810190610c4f9190611536565b8454604080516001600160a01b038a81168083528d821660208401529282018a90527f00000000000000000000000000000000000000000000000000000000000000001660608201526080810186905292935091600160a01b9091046001600160401b03169083907f80f8e2b9197752b9e33afaa4f92703ac7efbbf247cddcc732b1b555ff1dea27b9060a00160405180910390a45050505050505050565b60008281526001602081905260409091200154610d0a81610d14565b6104738383610d9a565b610d1e8133610fe7565b50565b6000610d2d8383610784565b610d925760008381526001602081815260408084206001600160a01b0387168086529252808420805460ff19169093179092559051339286917f2f8788117e7eff1d82e926ec794901d17c78024a50270940304540a733656f0d9190a4506001610447565b506000610447565b6000610da68383610784565b15610d925760008381526001602090815260408083206001600160a01b0386168085529252808320805460ff1916905551339286917ff6391f5c32d9c69d2a47ea670b442974b53935d1edc7fd64eb21e047a839171b9190a4506001610447565b610e426040518060a0016040528060608152602001606081526020016060815260200160006001600160a01b03168152602001606081525090565b604080516001808252818301909252600091816020015b6040805180820190915260008082526020820152815260200190600190039081610e595790505090506040518060400160405280866001600160a01b031681526020018581525081600081518110610eb357610eb361143d565b60209081029190910101526040805160a081019091526001600160a01b03871660c08201528060e081016040516020818303038152906040528152602001604051806020016040528060008152508152602001828152602001846001600160a01b03168152602001610f81604051806040016040528060008152602001600115158152506040805182516024820152602092830151151560448083019190915282518083039091018152606490910190915290810180516001600160e01b0316630181dcf160e41b17905290565b90529695505050505050565b604080516001600160a01b0385811660248301528416604482015260648082018490528251808303909101815260849091019091526020810180516001600160e01b03166323b872dd60e01b179052610473908590611024565b610ff18282610784565b6110205760405163e2517d3f60e01b81526001600160a01b03821660048201526024810183905260440161068c565b5050565b60006110396001600160a01b03841683611087565b9050805160001415801561105e57508080602001905181019061105c919061164c565b155b156104ac57604051635274afe760e01b81526001600160a01b038416600482015260240161068c565b60606110958383600061109c565b9392505050565b6060814710156110c15760405163cd78605960e01b815230600482015260240161068c565b600080856001600160a01b031684866040516110dd919061166e565b60006040518083038185875af1925050503d806000811461111a576040519150601f19603f3d011682016040523d82523d6000602084013e61111f565b606091505b509150915061112f868383611139565b9695505050505050565b60608261114e5761114982611195565b611095565b815115801561116557506001600160a01b0384163b155b1561118e57604051639996b31560e01b81526001600160a01b038516600482015260240161068c565b5080611095565b8051156111a55780518082602001fd5b604051630a12f52160e11b815260040160405180910390fd5b6000602082840312156111d057600080fd5b81356001600160e01b03198116811461109557600080fd5b6000602082840312156111fa57600080fd5b5035919050565b6001600160a01b0381168114610d1e57600080fd5b6000806040838503121561122957600080fd5b82359150602083013561123b81611201565b809150509250929050565b80356001600160401b038116811461125d57600080fd5b919050565b60008083601f84011261127457600080fd5b5081356001600160401b0381111561128b57600080fd5b6020830191508360208285010111156112a357600080fd5b9250929050565b600080600080606085870312156112c057600080fd5b6112c985611246565b935060208501356112d981611201565b925060408501356001600160401b038111156112f457600080fd5b61130087828801611262565b95989497509550505050565b6000806000806080858703121561132257600080fd5b61132b85611246565b935061133960208601611246565b9250604085013561134981611201565b9396929550929360600135925050565b60006020828403121561136b57600080fd5b813563ffffffff8116811461109557600080fd5b60008060008060008060a0878903121561139857600080fd5b86356113a381611201565b95506113b160208801611246565b945060408701356113c181611201565b93506060870135925060808701356001600160401b038111156113e357600080fd5b6113ef89828a01611262565b979a9699509497509295939492505050565b60006020828403121561141357600080fd5b61109582611246565b6000806000806080858703121561143257600080fd5b843561132b81611201565b634e487b7160e01b600052603260045260246000fd5b60005b8381101561146e578181015183820152602001611456565b50506000910152565b6000815180845261148f816020860160208601611453565b601f01601f19169290920160200192915050565b60006040820163ffffffff851683526040602084015280845180835260608501915060608160051b86010192506020860160005b8281101561152957605f198786030184528151805186526020810151602087015260408101519050606060408701526115136060870182611477565b95505060209384019391909101906001016114d7565b5092979650505050505050565b60006020828403121561154857600080fd5b5051919050565b60006020828403121561156157600080fd5b815161109581611201565b6001600160401b0383168152604060208201526000825160a0604084015261159760e0840182611477565b90506020840151603f198483030160608501526115b48282611477565b6040860151858203603f19016080870152805180835260209182019450600093509101905b8083101561161057835180516001600160a01b031683526020908101518184015290930192600192909201916040909101906115d9565b5060608601516001600160a01b031660a08601526080860151858203603f190160c087015292506116418184611477565b979650505050505050565b60006020828403121561165e57600080fd5b8151801515811461109557600080fd5b60008251611680818460208701611453565b919091019291505056fea2646970667358221220f0a19435c2b6e80179c3d4658a2623d89e9139741f4f5035b84e048fecd4a4f064736f6c634300081c0033",
  "devdoc": {
    "errors": {
      "AccessControlBadConfirmation()": [
        {
          "details": "The caller of a function is not the expected one. NOTE: Don't confuse with {AccessControlUnauthorizedAccount}."
        }
      ],
      "AccessControlUnauthorizedAccount(address,bytes32)": [
        {
          "details": "The `account` is missing a role."
        }
      ],
      "AddressEmptyCode(address)": [
        {
          "details": "There's no code at `target` (it is not a contract)."
        }
      ],
      "AddressInsufficientBalance(address)": [
        {
          "details": "The ETH balance of the account is not enough to perform the operation."
        }
      ],
      "FailedInnerCall()": [
        {
          "details": "A call to an address target failed. The target may have reverted."
        }
      ],
      "SafeERC20FailedOperation(address)": [
        {
          "details": "An operation with an ERC20 token failed."
        }
      ]
    },
    "events": {
      "RoleAdminChanged(bytes32,bytes32,bytes32)": {
        "details": "Emitted when `newAdminRole` is set as ``role``'s admin role, replacing `previousAdminRole` `DEFAULT_ADMIN_ROLE` is the starting admin for all roles, despite {RoleAdminChanged} not being emitted signaling this."
      },
      "RoleGranted(bytes32,address,address)": {
        "details": "Emitted when `account` is granted `role`. `sender` is the account that originated the contract call, an admin role bearer except when using {AccessControl-_setupRole}."
      },
      "RoleRevoked(bytes32,address,address)": {
        "details": "Emitted when `account` is revoked `role`. `sender` is the account that originated the contract call:   - if using `revokeRole`, it is the admin role bearer   - if using `renounceRole`, it is the role bearer (i.e. `account`)"
      }
    },
    "kind": "dev",
    "methods": {
      "getRoleAdmin(bytes32)": {
        "details": "Returns the admin role that controls `role`. See {grantRole} and {revokeRole}. To change a role's admin, use {_setRoleAdmin}."
      },
      "grantRole(bytes32,address)": {
        "details": "Grants `role` to `account`. If `account` had not been already granted `role`, emits a {RoleGranted} event. Requirements: - the caller must have ``role``'s admin role. May emit a {RoleGranted} event."
      },
      "hasRole(bytes32,address)": {
        "details": "Returns `true` if `account` has been granted `role`."
      },
      "renounceRole(bytes32,address)": {
        "details": "Revokes `role` from the calling account. Roles are often managed via {grantRole} and {revokeRole}: this function's purpose is to provide a mechanism for accounts to lose their privileges if they are compromised (such as when a trusted device is misplaced). If the calling account had been revoked `role`, emits a {RoleRevoked} event. Requirements: - the caller must be `callerConfirmation`. May emit a {RoleRevoked} event."
      },
      "revokeRole(bytes32,address)": {
        "details": "Revokes `role` from `account`. If `account` had been granted `role`, emits a {RoleRevoked} event. Requirements: - the caller must have ``role``'s admin role. May emit a {RoleRevoked} event."
      },
      "supportsInterface(bytes4)": {
        "details": "See {IERC165-supportsInterface}."
      }
    },
    "version": 1
  },
  "userdoc": {
    "kind": "user",
    "methods": {},
    "version": 1
  },
  "storageLayout": {
    "storage": [
      {
        "astId": 2102,
        "contract": "contracts/bridges/HLCCIPBridge.sol:HLCCIPBridge",
        "label": "interchainAccountRouter",
        "offset": 0,
        "slot": "0",
        "type": "t_contract(IInterchainAccountRouter)2097"
      },
      {
        "astId": 532,
        "contract": "contracts/bridges/HLCCIPBridge.sol:HLCCIPBridge",
        "label": "_roles",
        "offset": 0,
        "slot": "1",
        "type": "t_mapping(t_bytes32,t_struct(RoleData)527_storage)"
      },
      {
        "astId": 1724,
        "contract": "contracts/bridges/HLCCIPBridge.sol:HLCCIPBridge",
        "label": "chains",
        "offset": 0,
        "slot": "2",
        "type": "t_mapping(t_uint64,t_struct(ChainConfig)1719_storage)"
      }
    ],
    "types": {
      "t_address": {
        "encoding": "inplace",
        "label": "address",
        "numberOfBytes": "20"
      },
      "t_bool": {
        "encoding": "inplace",
        "label": "bool",
        "numberOfBytes": "1"
      },
      "t_bytes32": {
        "encoding": "inplace",
        "label": "bytes32",
        "numberOfBytes": "32"
      },
      "t_contract(IInterchainAccountRouter)2097": {
        "encoding": "inplace",
        "label": "contract IInterchainAccountRouter",
        "numberOfBytes": "20"
      },
      "t_mapping(t_address,t_bool)": {
        "encoding": "mapping",
        "key": "t_address",
        "label": "mapping(address => bool)",
        "numberOfBytes": "32",
        "value": "t_bool"
      },
      "t_mapping(t_bytes32,t_struct(RoleData)527_storage)": {
        "encoding": "mapping",
        "key": "t_bytes32",
        "label": "mapping(bytes32 => struct AccessControl.RoleData)",
        "numberOfBytes": "32",
        "value": "t_struct(RoleData)527_storage"
      },
      "t_mapping(t_uint64,t_struct(ChainConfig)1719_storage)": {
        "encoding": "mapping",
        "key": "t_uint64",
        "label": "mapping(uint64 => struct CCIPBridge.ChainConfig)",
        "numberOfBytes": "32",
        "value": "t_struct(ChainConfig)1719_storage"
      },
      "t_struct(ChainConfig)1719_storage": {
        "encoding": "inplace",
        "label": "struct CCIPBridge.ChainConfig",
        "members": [
          {
            "astId": 1714,
            "contract": "contracts/bridges/HLCCIPBridge.sol:HLCCIPBridge",
            "label": "receiver",
            "offset": 0,
            "slot": "0",
            "type": "t_address"
          },
          {
            "astId": 1716,
            "contract": "contracts/bridges/HLCCIPBridge.sol:HLCCIPBridge",
            "label": "chainSelector",
            "offset": 20,
            "slot": "0",
            "type": "t_uint64"
          },
          {
            "astId": 1718,
            "contract": "contracts/bridges/HLCCIPBridge.sol:HLCCIPBridge",
            "label": "gasLimit",
            "offset": 28,
            "slot": "0",
            "type": "t_uint32"
          }
        ],
        "numberOfBytes": "32"
      },
      "t_struct(RoleData)527_storage": {
        "encoding": "inplace",
        "label": "struct AccessControl.RoleData",
        "members": [
          {
            "astId": 524,
            "contract": "contracts/bridges/HLCCIPBridge.sol:HLCCIPBridge",
            "label": "hasRole",
            "offset": 0,
            "slot": "0",
            "type": "t_mapping(t_address,t_bool)"
          },
          {
            "astId": 526,
            "contract": "contracts/bridges/HLCCIPBridge.sol:HLCCIPBridge",
            "label": "adminRole",
            "offset": 0,
            "slot": "1",
            "type": "t_bytes32"
          }
        ],
        "numberOfBytes": "64"
      },
      "t_uint32": {
        "encoding": "inplace",
        "label": "uint32",
        "numberOfBytes": "4"
      },
      "t_uint64": {
        "encoding": "inplace",
        "label": "uint64",
        "numberOfBytes": "8"
      }
    }
  }
}