{
  "address": "0xb07F038394Fc0cE3cE80A643d79a0F9fa772a2A4",
  "abi": [
    {
      "inputs": [
        {
          "internalType": "contract IERC20Metadata",
          "name": "payToken_",
          "type": "address"
        },
        {
          "internalType": "contract IBridge",
          "name": "bridge_",
          "type": "address"
        },
        {
          "internalType": "address",
          "name": "admin",
          "type": "address"
        }
      ],
      "stateMutability": "nonpayable",
      "type": "constructor"
    },
    {
      "inputs": [],
      "name": "AccessControlBadConfirmation",
      "type": "error"
    },
    {
      "inputs": [
        {
          "internalType": "address",
          "name": "account",
          "type": "address"
        },
        {
          "internalType": "bytes32",
          "name": "neededRole",
          "type": "bytes32"
        }
      ],
      "name": "AccessControlUnauthorizedAccount",
      "type": "error"
    },
    {
      "inputs": [
        {
          "internalType": "address",
          "name": "target",
          "type": "address"
        }
      ],
      "name": "AddressEmptyCode",
      "type": "error"
    },
    {
      "inputs": [
        {
          "internalType": "address",
          "name": "account",
          "type": "address"
        }
      ],
      "name": "AddressInsufficientBalance",
      "type": "error"
    },
    {
      "inputs": [],
      "name": "FailedInnerCall",
      "type": "error"
    },
    {
      "inputs": [],
      "name": "NotImplemented",
      "type": "error"
    },
    {
      "inputs": [
        {
          "internalType": "address",
          "name": "token",
          "type": "address"
        }
      ],
      "name": "SafeERC20FailedOperation",
      "type": "error"
    },
    {
      "anonymous": false,
      "inputs": [
        {
          "indexed": true,
          "internalType": "bytes32",
          "name": "role",
          "type": "bytes32"
        },
        {
          "indexed": true,
          "internalType": "bytes32",
          "name": "previousAdminRole",
          "type": "bytes32"
        },
        {
          "indexed": true,
          "internalType": "bytes32",
          "name": "newAdminRole",
          "type": "bytes32"
        }
      ],
      "name": "RoleAdminChanged",
      "type": "event"
    },
    {
      "anonymous": false,
      "inputs": [
        {
          "indexed": true,
          "internalType": "bytes32",
          "name": "role",
          "type": "bytes32"
        },
        {
          "indexed": true,
          "internalType": "address",
          "name": "account",
          "type": "address"
        },
        {
          "indexed": true,
          "internalType": "address",
          "name": "sender",
          "type": "address"
        }
      ],
      "name": "RoleGranted",
      "type": "event"
    },
    {
      "anonymous": false,
      "inputs": [
        {
          "indexed": true,
          "internalType": "bytes32",
          "name": "role",
          "type": "bytes32"
        },
        {
          "indexed": true,
          "internalType": "address",
          "name": "account",
          "type": "address"
        },
        {
          "indexed": true,
          "internalType": "address",
          "name": "sender",
          "type": "address"
        }
      ],
      "name": "RoleRevoked",
      "type": "event"
    },
    {
      "anonymous": false,
      "inputs": [
        {
          "indexed": true,
          "internalType": "uint64",
          "name": "chainId",
          "type": "uint64"
        },
        {
          "indexed": true,
          "internalType": "contract IERC20Metadata",
          "name": "tokenIn",
          "type": "address"
        },
        {
          "indexed": false,
          "internalType": "uint40",
          "name": "timestamp",
          "type": "uint40"
        },
        {
          "indexed": false,
          "internalType": "uint256",
          "name": "amountIn",
          "type": "uint256"
        },
        {
          "indexed": false,
          "internalType": "uint256",
          "name": "amountOut",
          "type": "uint256"
        }
      ],
      "name": "TradeReceivedFromDex",
      "type": "event"
    },
    {
      "inputs": [],
      "name": "DEFAULT_ADMIN_ROLE",
      "outputs": [
        {
          "internalType": "bytes32",
          "name": "",
          "type": "bytes32"
        }
      ],
      "stateMutability": "view",
      "type": "function"
    },
    {
      "inputs": [],
      "name": "DEX_ADMIN_ROLE",
      "outputs": [
        {
          "internalType": "bytes32",
          "name": "",
          "type": "bytes32"
        }
      ],
      "stateMutability": "view",
      "type": "function"
    },
    {
      "inputs": [],
      "name": "DEX_LIQUIDITY_ROLE",
      "outputs": [
        {
          "internalType": "bytes32",
          "name": "",
          "type": "bytes32"
        }
      ],
      "stateMutability": "view",
      "type": "function"
    },
    {
      "inputs": [],
      "name": "DEX_MESSENGER_ROLE",
      "outputs": [
        {
          "internalType": "bytes32",
          "name": "",
          "type": "bytes32"
        }
      ],
      "stateMutability": "view",
      "type": "function"
    },
    {
      "inputs": [],
      "name": "WAD",
      "outputs": [
        {
          "internalType": "uint256",
          "name": "",
          "type": "uint256"
        }
      ],
      "stateMutability": "view",
      "type": "function"
    },
    {
      "inputs": [],
      "name": "WITHDRAW_ROLE",
      "outputs": [
        {
          "internalType": "bytes32",
          "name": "",
          "type": "bytes32"
        }
      ],
      "stateMutability": "view",
      "type": "function"
    },
    {
      "inputs": [
        {
          "internalType": "uint64",
          "name": "chainId",
          "type": "uint64"
        },
        {
          "internalType": "address",
          "name": "bangDex",
          "type": "address"
        },
        {
          "internalType": "uint32",
          "name": "slotSize",
          "type": "uint32"
        }
      ],
      "name": "addDex",
      "outputs": [],
      "stateMutability": "nonpayable",
      "type": "function"
    },
    {
      "inputs": [],
      "name": "bridge",
      "outputs": [
        {
          "internalType": "contract IBridge",
          "name": "",
          "type": "address"
        }
      ],
      "stateMutability": "view",
      "type": "function"
    },
    {
      "inputs": [
        {
          "internalType": "uint256",
          "name": "amount",
          "type": "uint256"
        }
      ],
      "name": "deposit",
      "outputs": [],
      "stateMutability": "nonpayable",
      "type": "function"
    },
    {
      "inputs": [
        {
          "internalType": "uint64",
          "name": "",
          "type": "uint64"
        }
      ],
      "name": "dexes",
      "outputs": [
        {
          "internalType": "address",
          "name": "bangDex",
          "type": "address"
        },
        {
          "internalType": "uint32",
          "name": "slotSize",
          "type": "uint32"
        }
      ],
      "stateMutability": "view",
      "type": "function"
    },
    {
      "inputs": [
        {
          "internalType": "bytes32",
          "name": "role",
          "type": "bytes32"
        }
      ],
      "name": "getRoleAdmin",
      "outputs": [
        {
          "internalType": "bytes32",
          "name": "",
          "type": "bytes32"
        }
      ],
      "stateMutability": "view",
      "type": "function"
    },
    {
      "inputs": [
        {
          "internalType": "bytes32",
          "name": "role",
          "type": "bytes32"
        },
        {
          "internalType": "address",
          "name": "account",
          "type": "address"
        }
      ],
      "name": "grantRole",
      "outputs": [],
      "stateMutability": "nonpayable",
      "type": "function"
    },
    {
      "inputs": [
        {
          "internalType": "bytes32",
          "name": "role",
          "type": "bytes32"
        },
        {
          "internalType": "address",
          "name": "account",
          "type": "address"
        }
      ],
      "name": "hasRole",
      "outputs": [
        {
          "internalType": "bool",
          "name": "",
          "type": "bool"
        }
      ],
      "stateMutability": "view",
      "type": "function"
    },
    {
      "inputs": [],
      "name": "payToken",
      "outputs": [
        {
          "internalType": "contract IERC20Metadata",
          "name": "",
          "type": "address"
        }
      ],
      "stateMutability": "view",
      "type": "function"
    },
    {
      "inputs": [
        {
          "internalType": "bytes32",
          "name": "role",
          "type": "bytes32"
        },
        {
          "internalType": "address",
          "name": "callerConfirmation",
          "type": "address"
        }
      ],
      "name": "renounceRole",
      "outputs": [],
      "stateMutability": "nonpayable",
      "type": "function"
    },
    {
      "inputs": [
        {
          "internalType": "bytes32",
          "name": "role",
          "type": "bytes32"
        },
        {
          "internalType": "address",
          "name": "account",
          "type": "address"
        }
      ],
      "name": "revokeRole",
      "outputs": [],
      "stateMutability": "nonpayable",
      "type": "function"
    },
    {
      "inputs": [
        {
          "internalType": "uint64",
          "name": "chainId",
          "type": "uint64"
        },
        {
          "internalType": "uint256",
          "name": "amount",
          "type": "uint256"
        }
      ],
      "name": "sendToDex",
      "outputs": [],
      "stateMutability": "nonpayable",
      "type": "function"
    },
    {
      "inputs": [
        {
          "internalType": "bytes4",
          "name": "interfaceId",
          "type": "bytes4"
        }
      ],
      "name": "supportsInterface",
      "outputs": [
        {
          "internalType": "bool",
          "name": "",
          "type": "bool"
        }
      ],
      "stateMutability": "view",
      "type": "function"
    },
    {
      "inputs": [
        {
          "internalType": "uint64",
          "name": "chainId",
          "type": "uint64"
        },
        {
          "internalType": "uint40",
          "name": "timestamp",
          "type": "uint40"
        },
        {
          "internalType": "contract IERC20Metadata",
          "name": "tokenIn",
          "type": "address"
        },
        {
          "internalType": "uint256",
          "name": "amountIn",
          "type": "uint256"
        },
        {
          "internalType": "uint256",
          "name": "amountOut",
          "type": "uint256"
        }
      ],
      "name": "tradeFromDex",
      "outputs": [],
      "stateMutability": "nonpayable",
      "type": "function"
    },
    {
      "inputs": [
        {
          "internalType": "uint256",
          "name": "amount",
          "type": "uint256"
        },
        {
          "internalType": "address",
          "name": "destination",
          "type": "address"
        }
      ],
      "name": "withdraw",
      "outputs": [],
      "stateMutability": "nonpayable",
      "type": "function"
    },
    {
      "inputs": [
        {
          "internalType": "uint64",
          "name": "chainId",
          "type": "uint64"
        },
        {
          "internalType": "uint256",
          "name": "amount",
          "type": "uint256"
        }
      ],
      "name": "withdrawFromDex",
      "outputs": [],
      "stateMutability": "nonpayable",
      "type": "function"
    }
  ],
  "transactionHash": "0xe90b80fd7f00b9fadfdd9549eb161dc9053bd711132c2538bcd53bd158aa4e15",
  "args": [
    "0x75faf114eafb1BDbe2F0316DF893fd58CE46AA4d",
    "0xf73BA74Fe9888498f9EAdeEE6e50e3d8d6CF181f",
    "0x9a5c5a447a4A324771107140EfC226aA6b3be7F4"
  ],
  "numDeployments": 1,
  "solcInputHash": "37817dd7b39f1a92ee8dc464f28827c2",
  "bytecode": "0x60a060405234801561001057600080fd5b5060405161125b38038061125b83398101604081905261002f9161012c565b6001600160a01b03838116608052600180546001600160a01b03191691841691909117905561005f600082610068565b50505050610179565b6000828152602081815260408083206001600160a01b038516845290915281205460ff1661010a576000838152602081815260408083206001600160a01b03861684529091529020805460ff191660011790556100c23390565b6001600160a01b0316826001600160a01b0316847f2f8788117e7eff1d82e926ec794901d17c78024a50270940304540a733656f0d60405160405180910390a450600161010e565b5060005b92915050565b6001600160a01b038116811461012957600080fd5b50565b60008060006060848603121561014157600080fd5b835161014c81610114565b602085015190935061015d81610114565b604085015190925061016e81610114565b809150509250925092565b60805161109d6101be60003960008181610257015281816103ec015281816104eb01528181610575015281816108880152818161091201526109a9015261109d6000f3fe608060405234801561001057600080fd5b50600436106101365760003560e01c806396336b30116100b8578063ba013fa71161007c578063ba013fa7146102d2578063d547741f146102f9578063e02023a11461030c578063e78cea9214610333578063ed5f9fdc14610346578063f98dc060146103a257600080fd5b806396336b30146102525780639fbb61fb14610291578063a1093b27146102a4578063a217fddf146102b7578063b6b55f25146102bf57600080fd5b80632f2ff15d116100ff5780632f2ff15d146101e357806336568abe146101f657806351f57786146102095780636a1460241461023057806391d148541461023f57600080fd5b8062f714ce1461013b57806301ffc9a71461015057806307a341f414610178578063248a9ca31461018b57806327963f79146101bc575b600080fd5b61014e610149366004610dfc565b6103b5565b005b61016361015e366004610e2c565b610418565b60405190151581526020015b60405180910390f35b61014e610186366004610e73565b61044f565b6101ae610199366004610ed6565b60009081526020819052604090206001015490565b60405190815260200161016f565b6101ae7f56f25d35f792f467948f943db7e18e52149ad9203543d21101055e046736eb8f81565b61014e6101f1366004610dfc565b610661565b61014e610204366004610dfc565b61068c565b6101ae7fe955625157308ba2d0f41bd3d4cb66be34efba9675b56122f78697be83d1fbdb81565b6101ae670de0b6b3a764000081565b61016361024d366004610dfc565b6106bf565b6102797f000000000000000000000000000000000000000000000000000000000000000081565b6040516001600160a01b03909116815260200161016f565b61014e61029f366004610eef565b6106e8565b61014e6102b2366004610eef565b6107f5565b6101ae600081565b61014e6102cd366004610ed6565b61099c565b6101ae7f1bc6c9f48fe35b7c9e2f922e8f531ad26eba39e402dd8d3d01862bb97eb716a981565b61014e610307366004610dfc565b6109d4565b6101ae7f5d8e12c39142ff96d79d04d15d1ba1269e4fe57bb9d26f43523628b34ba108ec81565b600154610279906001600160a01b031681565b61037e610354366004610f19565b6002602052600090815260409020546001600160a01b03811690600160a01b900463ffffffff1682565b604080516001600160a01b03909316835263ffffffff90911660208301520161016f565b61014e6103b0366004610f34565b6109f9565b7f5d8e12c39142ff96d79d04d15d1ba1269e4fe57bb9d26f43523628b34ba108ec6103df81610a71565b6104136001600160a01b037f0000000000000000000000000000000000000000000000000000000000000000168385610a7b565b505050565b60006001600160e01b03198216637965db0b60e01b148061044957506301ffc9a760e01b6001600160e01b03198316145b92915050565b7f56f25d35f792f467948f943db7e18e52149ad9203543d21101055e046736eb8f61047981610a71565b67ffffffffffffffff86166000908152600260205260409020546001600160a01b0316806104c25760405162461bcd60e51b81526004016104b990610f86565b60405180910390fd5b60015460405163095ea7b360e01b81526001600160a01b039182166004820152602481018590527f00000000000000000000000000000000000000000000000000000000000000009091169063095ea7b3906044016020604051808303816000875af1158015610536573d6000803e3d6000fd5b505050506040513d601f19601f8201168201806040525081019061055a9190610fb2565b5060015460405163b093aee360e01b81526001600160a01b037f00000000000000000000000000000000000000000000000000000000000000008116600483015267ffffffffffffffff8a1660248301528381166044830152606482018690529091169063b093aee390608401600060405180830381600087803b1580156105e157600080fd5b505af11580156105f5573d6000803e3d6000fd5b50506040805164ffffffffff8a168152602081018890529081018690526001600160a01b038816925067ffffffffffffffff8a1691507fc2bf016e5072c48e65b091bdcce9ac6141f2e7f606ec67f5c3c3b6cef456b7d79060600160405180910390a350505050505050565b60008281526020819052604090206001015461067c81610a71565b6106868383610ada565b50505050565b6001600160a01b03811633146106b55760405163334bd91960e11b815260040160405180910390fd5b6104138282610b6c565b6000918252602082815260408084206001600160a01b0393909316845291905290205460ff1690565b7f1bc6c9f48fe35b7c9e2f922e8f531ad26eba39e402dd8d3d01862bb97eb716a961071281610a71565b67ffffffffffffffff83166000908152600260205260409020546001600160a01b0316806107525760405162461bcd60e51b81526004016104b990610f86565b60408051602480820186905282518083039091018152604490910182526020810180516001600160e01b0316637abbc8bf60e01b1790526001549151634ac4ff2b60e01b815290916001600160a01b031690634ac4ff2b906107bc90889086908690600401610ff8565b600060405180830381600087803b1580156107d657600080fd5b505af11580156107ea573d6000803e3d6000fd5b505050505050505050565b7f1bc6c9f48fe35b7c9e2f922e8f531ad26eba39e402dd8d3d01862bb97eb716a961081f81610a71565b67ffffffffffffffff83166000908152600260205260409020546001600160a01b03168061085f5760405162461bcd60e51b81526004016104b990610f86565b60015460405163095ea7b360e01b81526001600160a01b039182166004820152602481018590527f00000000000000000000000000000000000000000000000000000000000000009091169063095ea7b3906044016020604051808303816000875af11580156108d3573d6000803e3d6000fd5b505050506040513d601f19601f820116820180604052508101906108f79190610fb2565b5060015460405163b093aee360e01b81526001600160a01b037f00000000000000000000000000000000000000000000000000000000000000008116600483015267ffffffffffffffff871660248301528381166044830152606482018690529091169063b093aee390608401600060405180830381600087803b15801561097e57600080fd5b505af1158015610992573d6000803e3d6000fd5b5050505050505050565b6109d16001600160a01b037f000000000000000000000000000000000000000000000000000000000000000016333084610bd7565b50565b6000828152602081905260409020600101546109ef81610a71565b6106868383610b6c565b7fe955625157308ba2d0f41bd3d4cb66be34efba9675b56122f78697be83d1fbdb610a2381610a71565b5067ffffffffffffffff9092166000908152600260205260409020805463ffffffff909316600160a01b026001600160c01b03199093166001600160a01b0390921691909117919091179055565b6109d18133610c10565b6040516001600160a01b0383811660248301526044820183905261041391859182169063a9059cbb906064015b604051602081830303815290604052915060e01b6020820180516001600160e01b038381831617835250505050610c4d565b6000610ae683836106bf565b610b64576000838152602081815260408083206001600160a01b03861684529091529020805460ff19166001179055610b1c3390565b6001600160a01b0316826001600160a01b0316847f2f8788117e7eff1d82e926ec794901d17c78024a50270940304540a733656f0d60405160405180910390a4506001610449565b506000610449565b6000610b7883836106bf565b15610b64576000838152602081815260408083206001600160a01b0386168085529252808320805460ff1916905551339286917ff6391f5c32d9c69d2a47ea670b442974b53935d1edc7fd64eb21e047a839171b9190a4506001610449565b6040516001600160a01b0384811660248301528381166044830152606482018390526106869186918216906323b872dd90608401610aa8565b610c1a82826106bf565b610c495760405163e2517d3f60e01b81526001600160a01b0382166004820152602481018390526044016104b9565b5050565b6000610c626001600160a01b03841683610cb0565b90508051600014158015610c87575080806020019051810190610c859190610fb2565b155b1561041357604051635274afe760e01b81526001600160a01b03841660048201526024016104b9565b6060610cbe83836000610cc5565b9392505050565b606081471015610cea5760405163cd78605960e01b81523060048201526024016104b9565b600080856001600160a01b03168486604051610d06919061104b565b60006040518083038185875af1925050503d8060008114610d43576040519150601f19603f3d011682016040523d82523d6000602084013e610d48565b606091505b5091509150610d58868383610d62565b9695505050505050565b606082610d7757610d7282610dbe565b610cbe565b8151158015610d8e57506001600160a01b0384163b155b15610db757604051639996b31560e01b81526001600160a01b03851660048201526024016104b9565b5080610cbe565b805115610dce5780518082602001fd5b604051630a12f52160e11b815260040160405180910390fd5b6001600160a01b03811681146109d157600080fd5b60008060408385031215610e0f57600080fd5b823591506020830135610e2181610de7565b809150509250929050565b600060208284031215610e3e57600080fd5b81356001600160e01b031981168114610cbe57600080fd5b803567ffffffffffffffff81168114610e6e57600080fd5b919050565b600080600080600060a08688031215610e8b57600080fd5b610e9486610e56565b9450602086013564ffffffffff81168114610eae57600080fd5b93506040860135610ebe81610de7565b94979396509394606081013594506080013592915050565b600060208284031215610ee857600080fd5b5035919050565b60008060408385031215610f0257600080fd5b610f0b83610e56565b946020939093013593505050565b600060208284031215610f2b57600080fd5b610cbe82610e56565b600080600060608486031215610f4957600080fd5b610f5284610e56565b92506020840135610f6281610de7565b9150604084013563ffffffff81168114610f7b57600080fd5b809150509250925092565b60208082526012908201527144657820646f65736e27742065786973747360701b604082015260600190565b600060208284031215610fc457600080fd5b81518015158114610cbe57600080fd5b60005b83811015610fef578181015183820152602001610fd7565b50506000910152565b67ffffffffffffffff8416815260018060a01b03831660208201526060604082015260008251806060840152611035816080850160208701610fd4565b601f01601f191691909101608001949350505050565b6000825161105d818460208701610fd4565b919091019291505056fea26469706673582212201d2fb4f210b2cbc4fe88bddab89e01efedd4df4a2901f8fca0f32a1443e068ae64736f6c634300081c0033",
  "devdoc": {
    "errors": {
      "AccessControlBadConfirmation()": [
        {
          "details": "The caller of a function is not the expected one. NOTE: Don't confuse with {AccessControlUnauthorizedAccount}."
        }
      ],
      "AccessControlUnauthorizedAccount(address,bytes32)": [
        {
          "details": "The `account` is missing a role."
        }
      ],
      "AddressEmptyCode(address)": [
        {
          "details": "There's no code at `target` (it is not a contract)."
        }
      ],
      "AddressInsufficientBalance(address)": [
        {
          "details": "The ETH balance of the account is not enough to perform the operation."
        }
      ],
      "FailedInnerCall()": [
        {
          "details": "A call to an address target failed. The target may have reverted."
        }
      ],
      "SafeERC20FailedOperation(address)": [
        {
          "details": "An operation with an ERC20 token failed."
        }
      ]
    },
    "events": {
      "RoleAdminChanged(bytes32,bytes32,bytes32)": {
        "details": "Emitted when `newAdminRole` is set as ``role``'s admin role, replacing `previousAdminRole` `DEFAULT_ADMIN_ROLE` is the starting admin for all roles, despite {RoleAdminChanged} not being emitted signaling this."
      },
      "RoleGranted(bytes32,address,address)": {
        "details": "Emitted when `account` is granted `role`. `sender` is the account that originated the contract call, an admin role bearer except when using {AccessControl-_setupRole}."
      },
      "RoleRevoked(bytes32,address,address)": {
        "details": "Emitted when `account` is revoked `role`. `sender` is the account that originated the contract call:   - if using `revokeRole`, it is the admin role bearer   - if using `renounceRole`, it is the role bearer (i.e. `account`)"
      }
    },
    "kind": "dev",
    "methods": {
      "getRoleAdmin(bytes32)": {
        "details": "Returns the admin role that controls `role`. See {grantRole} and {revokeRole}. To change a role's admin, use {_setRoleAdmin}."
      },
      "grantRole(bytes32,address)": {
        "details": "Grants `role` to `account`. If `account` had not been already granted `role`, emits a {RoleGranted} event. Requirements: - the caller must have ``role``'s admin role. May emit a {RoleGranted} event."
      },
      "hasRole(bytes32,address)": {
        "details": "Returns `true` if `account` has been granted `role`."
      },
      "renounceRole(bytes32,address)": {
        "details": "Revokes `role` from the calling account. Roles are often managed via {grantRole} and {revokeRole}: this function's purpose is to provide a mechanism for accounts to lose their privileges if they are compromised (such as when a trusted device is misplaced). If the calling account had been revoked `role`, emits a {RoleRevoked} event. Requirements: - the caller must be `callerConfirmation`. May emit a {RoleRevoked} event."
      },
      "revokeRole(bytes32,address)": {
        "details": "Revokes `role` from `account`. If `account` had been granted `role`, emits a {RoleRevoked} event. Requirements: - the caller must have ``role``'s admin role. May emit a {RoleRevoked} event."
      },
      "supportsInterface(bytes4)": {
        "details": "See {IERC165-supportsInterface}."
      }
    },
    "title": "RiskHub",
    "version": 1
  },
  "userdoc": {
    "kind": "user",
    "methods": {
      "sendToDex(uint64,uint256)": {
        "notice": "Sends money to a DEX to increase its liquidity"
      },
      "tradeFromDex(uint64,uint40,address,uint256,uint256)": {
        "notice": "Called from a DEX when a trade happens"
      }
    },
    "notice": "Contract that actually concentrates the risk of all the Bang protocol, receiving notification of         swaps from different chains and refunding them.",
    "version": 1
  },
  "storageLayout": {
    "storage": [
      {
        "astId": 3978,
        "contract": "contracts/RiskHub.sol:RiskHub",
        "label": "_roles",
        "offset": 0,
        "slot": "0",
        "type": "t_mapping(t_bytes32,t_struct(RoleData)3973_storage)"
      },
      {
        "astId": 8104,
        "contract": "contracts/RiskHub.sol:RiskHub",
        "label": "bridge",
        "offset": 0,
        "slot": "1",
        "type": "t_contract(IBridge)8951"
      },
      {
        "astId": 8114,
        "contract": "contracts/RiskHub.sol:RiskHub",
        "label": "dexes",
        "offset": 0,
        "slot": "2",
        "type": "t_mapping(t_uint64,t_struct(DEX)8109_storage)"
      }
    ],
    "types": {
      "t_address": {
        "encoding": "inplace",
        "label": "address",
        "numberOfBytes": "20"
      },
      "t_bool": {
        "encoding": "inplace",
        "label": "bool",
        "numberOfBytes": "1"
      },
      "t_bytes32": {
        "encoding": "inplace",
        "label": "bytes32",
        "numberOfBytes": "32"
      },
      "t_contract(IBridge)8951": {
        "encoding": "inplace",
        "label": "contract IBridge",
        "numberOfBytes": "20"
      },
      "t_mapping(t_address,t_bool)": {
        "encoding": "mapping",
        "key": "t_address",
        "label": "mapping(address => bool)",
        "numberOfBytes": "32",
        "value": "t_bool"
      },
      "t_mapping(t_bytes32,t_struct(RoleData)3973_storage)": {
        "encoding": "mapping",
        "key": "t_bytes32",
        "label": "mapping(bytes32 => struct AccessControl.RoleData)",
        "numberOfBytes": "32",
        "value": "t_struct(RoleData)3973_storage"
      },
      "t_mapping(t_uint64,t_struct(DEX)8109_storage)": {
        "encoding": "mapping",
        "key": "t_uint64",
        "label": "mapping(uint64 => struct RiskHub.DEX)",
        "numberOfBytes": "32",
        "value": "t_struct(DEX)8109_storage"
      },
      "t_struct(DEX)8109_storage": {
        "encoding": "inplace",
        "label": "struct RiskHub.DEX",
        "members": [
          {
            "astId": 8106,
            "contract": "contracts/RiskHub.sol:RiskHub",
            "label": "bangDex",
            "offset": 0,
            "slot": "0",
            "type": "t_address"
          },
          {
            "astId": 8108,
            "contract": "contracts/RiskHub.sol:RiskHub",
            "label": "slotSize",
            "offset": 20,
            "slot": "0",
            "type": "t_uint32"
          }
        ],
        "numberOfBytes": "32"
      },
      "t_struct(RoleData)3973_storage": {
        "encoding": "inplace",
        "label": "struct AccessControl.RoleData",
        "members": [
          {
            "astId": 3970,
            "contract": "contracts/RiskHub.sol:RiskHub",
            "label": "hasRole",
            "offset": 0,
            "slot": "0",
            "type": "t_mapping(t_address,t_bool)"
          },
          {
            "astId": 3972,
            "contract": "contracts/RiskHub.sol:RiskHub",
            "label": "adminRole",
            "offset": 0,
            "slot": "1",
            "type": "t_bytes32"
          }
        ],
        "numberOfBytes": "64"
      },
      "t_uint32": {
        "encoding": "inplace",
        "label": "uint32",
        "numberOfBytes": "4"
      },
      "t_uint64": {
        "encoding": "inplace",
        "label": "uint64",
        "numberOfBytes": "8"
      }
    }
  }
}