{
  "address": "0xe6a398A973B16F53034530a9E14140a275cA1AE8",
  "abi": [
    {
      "inputs": [
        {
          "internalType": "address",
          "name": "_swapRouter",
          "type": "address"
        },
        {
          "internalType": "address",
          "name": "_usdcToken",
          "type": "address"
        },
        {
          "internalType": "address",
          "name": "_riskHub",
          "type": "address"
        },
        {
          "internalType": "address",
          "name": "admin",
          "type": "address"
        }
      ],
      "stateMutability": "nonpayable",
      "type": "constructor"
    },
    {
      "inputs": [],
      "name": "AccessControlBadConfirmation",
      "type": "error"
    },
    {
      "inputs": [
        {
          "internalType": "address",
          "name": "account",
          "type": "address"
        },
        {
          "internalType": "bytes32",
          "name": "neededRole",
          "type": "bytes32"
        }
      ],
      "name": "AccessControlUnauthorizedAccount",
      "type": "error"
    },
    {
      "inputs": [
        {
          "internalType": "address",
          "name": "target",
          "type": "address"
        }
      ],
      "name": "AddressEmptyCode",
      "type": "error"
    },
    {
      "inputs": [
        {
          "internalType": "address",
          "name": "account",
          "type": "address"
        }
      ],
      "name": "AddressInsufficientBalance",
      "type": "error"
    },
    {
      "inputs": [],
      "name": "FailedInnerCall",
      "type": "error"
    },
    {
      "inputs": [
        {
          "internalType": "address",
          "name": "token",
          "type": "address"
        }
      ],
      "name": "SafeERC20FailedOperation",
      "type": "error"
    },
    {
      "anonymous": false,
      "inputs": [
        {
          "indexed": true,
          "internalType": "bytes32",
          "name": "role",
          "type": "bytes32"
        },
        {
          "indexed": true,
          "internalType": "bytes32",
          "name": "previousAdminRole",
          "type": "bytes32"
        },
        {
          "indexed": true,
          "internalType": "bytes32",
          "name": "newAdminRole",
          "type": "bytes32"
        }
      ],
      "name": "RoleAdminChanged",
      "type": "event"
    },
    {
      "anonymous": false,
      "inputs": [
        {
          "indexed": true,
          "internalType": "bytes32",
          "name": "role",
          "type": "bytes32"
        },
        {
          "indexed": true,
          "internalType": "address",
          "name": "account",
          "type": "address"
        },
        {
          "indexed": true,
          "internalType": "address",
          "name": "sender",
          "type": "address"
        }
      ],
      "name": "RoleGranted",
      "type": "event"
    },
    {
      "anonymous": false,
      "inputs": [
        {
          "indexed": true,
          "internalType": "bytes32",
          "name": "role",
          "type": "bytes32"
        },
        {
          "indexed": true,
          "internalType": "address",
          "name": "account",
          "type": "address"
        },
        {
          "indexed": true,
          "internalType": "address",
          "name": "sender",
          "type": "address"
        }
      ],
      "name": "RoleRevoked",
      "type": "event"
    },
    {
      "inputs": [],
      "name": "DEFAULT_ADMIN_ROLE",
      "outputs": [
        {
          "internalType": "bytes32",
          "name": "",
          "type": "bytes32"
        }
      ],
      "stateMutability": "view",
      "type": "function"
    },
    {
      "inputs": [],
      "name": "LIQUIDATOR_ADMIN_ROLE",
      "outputs": [
        {
          "internalType": "bytes32",
          "name": "",
          "type": "bytes32"
        }
      ],
      "stateMutability": "view",
      "type": "function"
    },
    {
      "inputs": [
        {
          "internalType": "bytes32",
          "name": "role",
          "type": "bytes32"
        }
      ],
      "name": "getRoleAdmin",
      "outputs": [
        {
          "internalType": "bytes32",
          "name": "",
          "type": "bytes32"
        }
      ],
      "stateMutability": "view",
      "type": "function"
    },
    {
      "inputs": [
        {
          "internalType": "bytes32",
          "name": "role",
          "type": "bytes32"
        },
        {
          "internalType": "address",
          "name": "account",
          "type": "address"
        }
      ],
      "name": "grantRole",
      "outputs": [],
      "stateMutability": "nonpayable",
      "type": "function"
    },
    {
      "inputs": [
        {
          "internalType": "bytes32",
          "name": "role",
          "type": "bytes32"
        },
        {
          "internalType": "address",
          "name": "account",
          "type": "address"
        }
      ],
      "name": "hasRole",
      "outputs": [
        {
          "internalType": "bool",
          "name": "",
          "type": "bool"
        }
      ],
      "stateMutability": "view",
      "type": "function"
    },
    {
      "inputs": [
        {
          "internalType": "address",
          "name": "asset",
          "type": "address"
        },
        {
          "internalType": "uint256",
          "name": "assetAmount",
          "type": "uint256"
        },
        {
          "internalType": "uint256",
          "name": "debtAmount",
          "type": "uint256"
        }
      ],
      "name": "liquidate",
      "outputs": [],
      "stateMutability": "nonpayable",
      "type": "function"
    },
    {
      "inputs": [],
      "name": "poolFee",
      "outputs": [
        {
          "internalType": "uint24",
          "name": "",
          "type": "uint24"
        }
      ],
      "stateMutability": "view",
      "type": "function"
    },
    {
      "inputs": [
        {
          "internalType": "bytes32",
          "name": "role",
          "type": "bytes32"
        },
        {
          "internalType": "address",
          "name": "callerConfirmation",
          "type": "address"
        }
      ],
      "name": "renounceRole",
      "outputs": [],
      "stateMutability": "nonpayable",
      "type": "function"
    },
    {
      "inputs": [
        {
          "internalType": "bytes32",
          "name": "role",
          "type": "bytes32"
        },
        {
          "internalType": "address",
          "name": "account",
          "type": "address"
        }
      ],
      "name": "revokeRole",
      "outputs": [],
      "stateMutability": "nonpayable",
      "type": "function"
    },
    {
      "inputs": [],
      "name": "riskHub",
      "outputs": [
        {
          "internalType": "address",
          "name": "",
          "type": "address"
        }
      ],
      "stateMutability": "view",
      "type": "function"
    },
    {
      "inputs": [
        {
          "internalType": "bytes4",
          "name": "interfaceId",
          "type": "bytes4"
        }
      ],
      "name": "supportsInterface",
      "outputs": [
        {
          "internalType": "bool",
          "name": "",
          "type": "bool"
        }
      ],
      "stateMutability": "view",
      "type": "function"
    },
    {
      "inputs": [],
      "name": "swapRouter",
      "outputs": [
        {
          "internalType": "contract ISwapRouter",
          "name": "",
          "type": "address"
        }
      ],
      "stateMutability": "view",
      "type": "function"
    },
    {
      "inputs": [],
      "name": "usdcToken",
      "outputs": [
        {
          "internalType": "address",
          "name": "",
          "type": "address"
        }
      ],
      "stateMutability": "view",
      "type": "function"
    }
  ],
  "transactionHash": "0x758ba0779c14230b30ce226b813e5f333ee0ab310c15b25ecf1d8e077003e2a3",
  "args": [
    "0xE592427A0AEce92De3Edee1F18E0157C05861564",
    "0x75faf114eafb1BDbe2F0316DF893fd58CE46AA4d",
    "0xc20716159B6147C08D24952e334bC457B74Cedb7",
    "0x9a5c5a447a4A324771107140EfC226aA6b3be7F4"
  ],
  "numDeployments": 2,
  "solcInputHash": "558b15e062ca601aadbb0b9388d1d9b7",
  "bytecode": "0x60e060405234801561001057600080fd5b50604051610e42380380610e4283398101604081905261002f9161022c565b6001600160a01b03841661008a5760405162461bcd60e51b815260206004820152601660248201527f496e76616c696420726f7574657220616464726573730000000000000000000060448201526064015b60405180910390fd5b6001600160a01b0383166100e05760405162461bcd60e51b815260206004820152601460248201527f496e76616c6964205553444320616464726573730000000000000000000000006044820152606401610081565b6001600160a01b0382166101365760405162461bcd60e51b815260206004820152601760248201527f496e76616c6964205269736b48756220616464726573730000000000000000006044820152606401610081565b6001600160a01b0380851660805283811660a052821660c05261015a600082610164565b5050505050610280565b6000828152602081815260408083206001600160a01b038516845290915281205460ff16610206576000838152602081815260408083206001600160a01b03861684529091529020805460ff191660011790556101be3390565b6001600160a01b0316826001600160a01b0316847f2f8788117e7eff1d82e926ec794901d17c78024a50270940304540a733656f0d60405160405180910390a450600161020a565b5060005b92915050565b80516001600160a01b038116811461022757600080fd5b919050565b6000806000806080858703121561024257600080fd5b61024b85610210565b935061025960208601610210565b925061026760408601610210565b915061027560608601610210565b905092959194509250565b60805160a05160c051610b706102d26000396000818161020b01526105840152600081816101680152818161042801526105620152600081816102320152818161039101526104890152610b706000f3fe608060405234801561001057600080fd5b50600436106100cf5760003560e01c80632f2ff15d1161008c578063a217fddf11610066578063a217fddf146101fe578063c276bf4a14610206578063c31c9c071461022d578063d547741f1461025457600080fd5b80632f2ff15d146101c557806336568abe146101d857806391d14854146101eb57600080fd5b806301ffc9a7146100d457806305dfefa8146100fc5780630710285c14610131578063089fe6aa1461014657806311eac85514610163578063248a9ca3146101a2575b600080fd5b6100e76100e2366004610995565b610267565b60405190151581526020015b60405180910390f35b6101237f9ce59597c934dedd904171f26bf62ea86832059580bda1abc4da8223acaaa66481565b6040519081526020016100f3565b61014461013f3660046109db565b61029e565b005b61014f610bb881565b60405162ffffff90911681526020016100f3565b61018a7f000000000000000000000000000000000000000000000000000000000000000081565b6040516001600160a01b0390911681526020016100f3565b6101236101b0366004610a0e565b60009081526020819052604090206001015490565b6101446101d3366004610a27565b6105b1565b6101446101e6366004610a27565b6105dc565b6100e76101f9366004610a27565b610614565b610123600081565b61018a7f000000000000000000000000000000000000000000000000000000000000000081565b61018a7f000000000000000000000000000000000000000000000000000000000000000081565b610144610262366004610a27565b61063d565b60006001600160e01b03198216637965db0b60e01b148061029857506301ffc9a760e01b6001600160e01b03198316145b92915050565b7f9ce59597c934dedd904171f26bf62ea86832059580bda1abc4da8223acaaa6646102c881610662565b6001600160a01b03841661031b5760405162461bcd60e51b8152602060048201526015602482015274496e76616c6964206173736574206164647265737360581b60448201526064015b60405180910390fd5b6000831161037a5760405162461bcd60e51b815260206004820152602660248201527f417373657420616d6f756e74206d7573742062652067726561746572207468616044820152656e207a65726f60d01b6064820152608401610312565b60405163095ea7b360e01b81526001600160a01b037f0000000000000000000000000000000000000000000000000000000000000000811660048301526024820185905285169063095ea7b3906044016020604051808303816000875af11580156103e9573d6000803e3d6000fd5b505050506040513d601f19601f8201168201806040525081019061040d9190610a53565b5060408051610100810182526001600160a01b0380871682527f000000000000000000000000000000000000000000000000000000000000000081166020830152610bb88284015230606083015242608083015260a0820186905260c08201859052600060e08301819052925163414bf38960e01b81529192917f00000000000000000000000000000000000000000000000000000000000000009091169063414bf389906104c0908590600401610a75565b6020604051808303816000875af11580156104df573d6000803e3d6000fd5b505050506040513d601f19601f820116820180604052508101906105039190610af2565b9050838110156105555760405162461bcd60e51b815260206004820152601a60248201527f496e73756666696369656e7420555344432072656365697665640000000000006044820152606401610312565b6105a96001600160a01b037f0000000000000000000000000000000000000000000000000000000000000000167f00000000000000000000000000000000000000000000000000000000000000008361066f565b505050505050565b6000828152602081905260409020600101546105cc81610662565b6105d683836106c1565b50505050565b6001600160a01b03811633146106055760405163334bd91960e11b815260040160405180910390fd5b61060f8282610753565b505050565b6000918252602082815260408084206001600160a01b0393909316845291905290205460ff1690565b60008281526020819052604090206001015461065881610662565b6105d68383610753565b61066c81336107be565b50565b604080516001600160a01b038416602482015260448082018490528251808303909101815260649091019091526020810180516001600160e01b031663a9059cbb60e01b17905261060f9084906107fb565b60006106cd8383610614565b61074b576000838152602081815260408083206001600160a01b03861684529091529020805460ff191660011790556107033390565b6001600160a01b0316826001600160a01b0316847f2f8788117e7eff1d82e926ec794901d17c78024a50270940304540a733656f0d60405160405180910390a4506001610298565b506000610298565b600061075f8383610614565b1561074b576000838152602081815260408083206001600160a01b0386168085529252808320805460ff1916905551339286917ff6391f5c32d9c69d2a47ea670b442974b53935d1edc7fd64eb21e047a839171b9190a4506001610298565b6107c88282610614565b6107f75760405163e2517d3f60e01b81526001600160a01b038216600482015260248101839052604401610312565b5050565b60006108106001600160a01b0384168361085e565b905080516000141580156108355750808060200190518101906108339190610a53565b155b1561060f57604051635274afe760e01b81526001600160a01b0384166004820152602401610312565b606061086c83836000610873565b9392505050565b6060814710156108985760405163cd78605960e01b8152306004820152602401610312565b600080856001600160a01b031684866040516108b49190610b0b565b60006040518083038185875af1925050503d80600081146108f1576040519150601f19603f3d011682016040523d82523d6000602084013e6108f6565b606091505b5091509150610906868383610910565b9695505050505050565b606082610925576109208261096c565b61086c565b815115801561093c57506001600160a01b0384163b155b1561096557604051639996b31560e01b81526001600160a01b0385166004820152602401610312565b508061086c565b80511561097c5780518082602001fd5b604051630a12f52160e11b815260040160405180910390fd5b6000602082840312156109a757600080fd5b81356001600160e01b03198116811461086c57600080fd5b80356001600160a01b03811681146109d657600080fd5b919050565b6000806000606084860312156109f057600080fd5b6109f9846109bf565b95602085013595506040909401359392505050565b600060208284031215610a2057600080fd5b5035919050565b60008060408385031215610a3a57600080fd5b82359150610a4a602084016109bf565b90509250929050565b600060208284031215610a6557600080fd5b8151801515811461086c57600080fd5b81516001600160a01b03908116825260208084015182169083015260408084015162ffffff169083015260608084015191821690830152610100820190506080830151608083015260a083015160a083015260c083015160c083015260e0830151610aeb60e08401826001600160a01b03169052565b5092915050565b600060208284031215610b0457600080fd5b5051919050565b6000825160005b81811015610b2c5760208186018101518583015201610b12565b50600092019182525091905056fea264697066735822122062ef6f66916f924fb6a9aa9c2f9a95f69e93e300ee58b5f567f2c4e87f3e7e1264736f6c634300081c0033",
  "devdoc": {
    "errors": {
      "AccessControlBadConfirmation()": [
        {
          "details": "The caller of a function is not the expected one. NOTE: Don't confuse with {AccessControlUnauthorizedAccount}."
        }
      ],
      "AccessControlUnauthorizedAccount(address,bytes32)": [
        {
          "details": "The `account` is missing a role."
        }
      ],
      "AddressEmptyCode(address)": [
        {
          "details": "There's no code at `target` (it is not a contract)."
        }
      ],
      "AddressInsufficientBalance(address)": [
        {
          "details": "The ETH balance of the account is not enough to perform the operation."
        }
      ],
      "FailedInnerCall()": [
        {
          "details": "A call to an address target failed. The target may have reverted."
        }
      ],
      "SafeERC20FailedOperation(address)": [
        {
          "details": "An operation with an ERC20 token failed."
        }
      ]
    },
    "events": {
      "RoleAdminChanged(bytes32,bytes32,bytes32)": {
        "details": "Emitted when `newAdminRole` is set as ``role``'s admin role, replacing `previousAdminRole` `DEFAULT_ADMIN_ROLE` is the starting admin for all roles, despite {RoleAdminChanged} not being emitted signaling this."
      },
      "RoleGranted(bytes32,address,address)": {
        "details": "Emitted when `account` is granted `role`. `sender` is the account that originated the contract call, an admin role bearer except when using {AccessControl-_setupRole}."
      },
      "RoleRevoked(bytes32,address,address)": {
        "details": "Emitted when `account` is revoked `role`. `sender` is the account that originated the contract call:   - if using `revokeRole`, it is the admin role bearer   - if using `renounceRole`, it is the role bearer (i.e. `account`)"
      }
    },
    "kind": "dev",
    "methods": {
      "constructor": {
        "params": {
          "_riskHub": "Address of the RiskHub contract",
          "_swapRouter": "Address of the Uniswap V3 Router",
          "_usdcToken": "Address of the USDC token on Arbitrum"
        }
      },
      "getRoleAdmin(bytes32)": {
        "details": "Returns the admin role that controls `role`. See {grantRole} and {revokeRole}. To change a role's admin, use {_setRoleAdmin}."
      },
      "grantRole(bytes32,address)": {
        "details": "Grants `role` to `account`. If `account` had not been already granted `role`, emits a {RoleGranted} event. Requirements: - the caller must have ``role``'s admin role. May emit a {RoleGranted} event."
      },
      "hasRole(bytes32,address)": {
        "details": "Returns `true` if `account` has been granted `role`."
      },
      "liquidate(address,uint256,uint256)": {
        "params": {
          "asset": "Address of the token to liquidate",
          "assetAmount": "Amount of the token to liquidate",
          "debtAmount": "Minimum USDC required to cover the debt"
        }
      },
      "renounceRole(bytes32,address)": {
        "details": "Revokes `role` from the calling account. Roles are often managed via {grantRole} and {revokeRole}: this function's purpose is to provide a mechanism for accounts to lose their privileges if they are compromised (such as when a trusted device is misplaced). If the calling account had been revoked `role`, emits a {RoleRevoked} event. Requirements: - the caller must be `callerConfirmation`. May emit a {RoleRevoked} event."
      },
      "revokeRole(bytes32,address)": {
        "details": "Revokes `role` from `account`. If `account` had been granted `role`, emits a {RoleRevoked} event. Requirements: - the caller must have ``role``'s admin role. May emit a {RoleRevoked} event."
      },
      "supportsInterface(bytes4)": {
        "details": "See {IERC165-supportsInterface}."
      }
    },
    "title": "SwapLiquidator.sol",
    "version": 1
  },
  "userdoc": {
    "kind": "user",
    "methods": {
      "liquidate(address,uint256,uint256)": {
        "notice": "Sells the received `asset` for USDC via Uniswap and sends the USDC to RiskHub."
      }
    },
    "notice": "Liquidates tokens into USDC using Uniswap on Arbitrum.",
    "version": 1
  },
  "storageLayout": {
    "storage": [
      {
        "astId": 26,
        "contract": "contracts/liquidators/SwapLiquidator.sol:SwapLiquidator",
        "label": "_roles",
        "offset": 0,
        "slot": "0",
        "type": "t_mapping(t_bytes32,t_struct(RoleData)21_storage)"
      }
    ],
    "types": {
      "t_address": {
        "encoding": "inplace",
        "label": "address",
        "numberOfBytes": "20"
      },
      "t_bool": {
        "encoding": "inplace",
        "label": "bool",
        "numberOfBytes": "1"
      },
      "t_bytes32": {
        "encoding": "inplace",
        "label": "bytes32",
        "numberOfBytes": "32"
      },
      "t_mapping(t_address,t_bool)": {
        "encoding": "mapping",
        "key": "t_address",
        "label": "mapping(address => bool)",
        "numberOfBytes": "32",
        "value": "t_bool"
      },
      "t_mapping(t_bytes32,t_struct(RoleData)21_storage)": {
        "encoding": "mapping",
        "key": "t_bytes32",
        "label": "mapping(bytes32 => struct AccessControl.RoleData)",
        "numberOfBytes": "32",
        "value": "t_struct(RoleData)21_storage"
      },
      "t_struct(RoleData)21_storage": {
        "encoding": "inplace",
        "label": "struct AccessControl.RoleData",
        "members": [
          {
            "astId": 18,
            "contract": "contracts/liquidators/SwapLiquidator.sol:SwapLiquidator",
            "label": "hasRole",
            "offset": 0,
            "slot": "0",
            "type": "t_mapping(t_address,t_bool)"
          },
          {
            "astId": 20,
            "contract": "contracts/liquidators/SwapLiquidator.sol:SwapLiquidator",
            "label": "adminRole",
            "offset": 0,
            "slot": "1",
            "type": "t_bytes32"
          }
        ],
        "numberOfBytes": "64"
      }
    }
  }
}