{
  "address": "0x1E2C9a561F217a5f2AF9735711aaF18B710F6881",
  "abi": [
    {
      "inputs": [
        {
          "internalType": "uint64",
          "name": "riskHubChainId_",
          "type": "uint64"
        },
        {
          "internalType": "address",
          "name": "riskHub_",
          "type": "address"
        },
        {
          "internalType": "contract IBridge",
          "name": "bridge_",
          "type": "address"
        },
        {
          "internalType": "contract IERC20Metadata",
          "name": "payToken_",
          "type": "address"
        },
        {
          "internalType": "contract IPriceOracle",
          "name": "priceOracle_",
          "type": "address"
        },
        {
          "internalType": "uint256",
          "name": "slotSize_",
          "type": "uint256"
        },
        {
          "internalType": "address",
          "name": "admin",
          "type": "address"
        }
      ],
      "stateMutability": "nonpayable",
      "type": "constructor"
    },
    {
      "inputs": [],
      "name": "AccessControlBadConfirmation",
      "type": "error"
    },
    {
      "inputs": [
        {
          "internalType": "address",
          "name": "account",
          "type": "address"
        },
        {
          "internalType": "bytes32",
          "name": "neededRole",
          "type": "bytes32"
        }
      ],
      "name": "AccessControlUnauthorizedAccount",
      "type": "error"
    },
    {
      "inputs": [
        {
          "internalType": "address",
          "name": "target",
          "type": "address"
        }
      ],
      "name": "AddressEmptyCode",
      "type": "error"
    },
    {
      "inputs": [
        {
          "internalType": "address",
          "name": "account",
          "type": "address"
        }
      ],
      "name": "AddressInsufficientBalance",
      "type": "error"
    },
    {
      "inputs": [],
      "name": "FailedInnerCall",
      "type": "error"
    },
    {
      "inputs": [],
      "name": "MathOverflowedMulDiv",
      "type": "error"
    },
    {
      "inputs": [],
      "name": "NotImplemented",
      "type": "error"
    },
    {
      "inputs": [
        {
          "internalType": "address",
          "name": "token",
          "type": "address"
        }
      ],
      "name": "SafeERC20FailedOperation",
      "type": "error"
    },
    {
      "anonymous": false,
      "inputs": [
        {
          "indexed": true,
          "internalType": "bytes32",
          "name": "role",
          "type": "bytes32"
        },
        {
          "indexed": true,
          "internalType": "bytes32",
          "name": "previousAdminRole",
          "type": "bytes32"
        },
        {
          "indexed": true,
          "internalType": "bytes32",
          "name": "newAdminRole",
          "type": "bytes32"
        }
      ],
      "name": "RoleAdminChanged",
      "type": "event"
    },
    {
      "anonymous": false,
      "inputs": [
        {
          "indexed": true,
          "internalType": "bytes32",
          "name": "role",
          "type": "bytes32"
        },
        {
          "indexed": true,
          "internalType": "address",
          "name": "account",
          "type": "address"
        },
        {
          "indexed": true,
          "internalType": "address",
          "name": "sender",
          "type": "address"
        }
      ],
      "name": "RoleGranted",
      "type": "event"
    },
    {
      "anonymous": false,
      "inputs": [
        {
          "indexed": true,
          "internalType": "bytes32",
          "name": "role",
          "type": "bytes32"
        },
        {
          "indexed": true,
          "internalType": "address",
          "name": "account",
          "type": "address"
        },
        {
          "indexed": true,
          "internalType": "address",
          "name": "sender",
          "type": "address"
        }
      ],
      "name": "RoleRevoked",
      "type": "event"
    },
    {
      "inputs": [],
      "name": "DEFAULT_ADMIN_ROLE",
      "outputs": [
        {
          "internalType": "bytes32",
          "name": "",
          "type": "bytes32"
        }
      ],
      "stateMutability": "view",
      "type": "function"
    },
    {
      "inputs": [],
      "name": "DEFAULT_MARKUP",
      "outputs": [
        {
          "internalType": "uint256",
          "name": "",
          "type": "uint256"
        }
      ],
      "stateMutability": "view",
      "type": "function"
    },
    {
      "inputs": [],
      "name": "LIQUIDATOR_ADMIN_ROLE",
      "outputs": [
        {
          "internalType": "bytes32",
          "name": "",
          "type": "bytes32"
        }
      ],
      "stateMutability": "view",
      "type": "function"
    },
    {
      "inputs": [],
      "name": "MARKET_ADMIN_ROLE",
      "outputs": [
        {
          "internalType": "bytes32",
          "name": "",
          "type": "bytes32"
        }
      ],
      "stateMutability": "view",
      "type": "function"
    },
    {
      "inputs": [],
      "name": "ORACLE_ADMIN_ROLE",
      "outputs": [
        {
          "internalType": "bytes32",
          "name": "",
          "type": "bytes32"
        }
      ],
      "stateMutability": "view",
      "type": "function"
    },
    {
      "inputs": [],
      "name": "RISK_HUB_ROLE",
      "outputs": [
        {
          "internalType": "bytes32",
          "name": "",
          "type": "bytes32"
        }
      ],
      "stateMutability": "view",
      "type": "function"
    },
    {
      "inputs": [],
      "name": "SET_SLOT_SIZE_ROLE",
      "outputs": [
        {
          "internalType": "bytes32",
          "name": "",
          "type": "bytes32"
        }
      ],
      "stateMutability": "view",
      "type": "function"
    },
    {
      "inputs": [],
      "name": "WAD",
      "outputs": [
        {
          "internalType": "uint256",
          "name": "",
          "type": "uint256"
        }
      ],
      "stateMutability": "view",
      "type": "function"
    },
    {
      "inputs": [],
      "name": "bridge",
      "outputs": [
        {
          "internalType": "contract IBridge",
          "name": "",
          "type": "address"
        }
      ],
      "stateMutability": "view",
      "type": "function"
    },
    {
      "inputs": [
        {
          "internalType": "contract IERC20Metadata",
          "name": "tokenIn",
          "type": "address"
        },
        {
          "internalType": "uint256",
          "name": "amountIn",
          "type": "uint256"
        }
      ],
      "name": "computeAmountOut",
      "outputs": [
        {
          "internalType": "uint256",
          "name": "amountOut",
          "type": "uint256"
        }
      ],
      "stateMutability": "view",
      "type": "function"
    },
    {
      "inputs": [
        {
          "components": [
            {
              "internalType": "bytes",
              "name": "path",
              "type": "bytes"
            },
            {
              "internalType": "address",
              "name": "recipient",
              "type": "address"
            },
            {
              "internalType": "uint256",
              "name": "deadline",
              "type": "uint256"
            },
            {
              "internalType": "uint256",
              "name": "amountIn",
              "type": "uint256"
            },
            {
              "internalType": "uint256",
              "name": "amountOutMinimum",
              "type": "uint256"
            }
          ],
          "internalType": "struct ISwapRouter.ExactInputParams",
          "name": "",
          "type": "tuple"
        }
      ],
      "name": "exactInput",
      "outputs": [
        {
          "internalType": "uint256",
          "name": "",
          "type": "uint256"
        }
      ],
      "stateMutability": "payable",
      "type": "function"
    },
    {
      "inputs": [
        {
          "components": [
            {
              "internalType": "address",
              "name": "tokenIn",
              "type": "address"
            },
            {
              "internalType": "address",
              "name": "tokenOut",
              "type": "address"
            },
            {
              "internalType": "uint24",
              "name": "fee",
              "type": "uint24"
            },
            {
              "internalType": "address",
              "name": "recipient",
              "type": "address"
            },
            {
              "internalType": "uint256",
              "name": "deadline",
              "type": "uint256"
            },
            {
              "internalType": "uint256",
              "name": "amountIn",
              "type": "uint256"
            },
            {
              "internalType": "uint256",
              "name": "amountOutMinimum",
              "type": "uint256"
            },
            {
              "internalType": "uint160",
              "name": "sqrtPriceLimitX96",
              "type": "uint160"
            }
          ],
          "internalType": "struct ISwapRouter.ExactInputSingleParams",
          "name": "params",
          "type": "tuple"
        }
      ],
      "name": "exactInputSingle",
      "outputs": [
        {
          "internalType": "uint256",
          "name": "amountOut",
          "type": "uint256"
        }
      ],
      "stateMutability": "payable",
      "type": "function"
    },
    {
      "inputs": [
        {
          "components": [
            {
              "internalType": "bytes",
              "name": "path",
              "type": "bytes"
            },
            {
              "internalType": "address",
              "name": "recipient",
              "type": "address"
            },
            {
              "internalType": "uint256",
              "name": "deadline",
              "type": "uint256"
            },
            {
              "internalType": "uint256",
              "name": "amountOut",
              "type": "uint256"
            },
            {
              "internalType": "uint256",
              "name": "amountInMaximum",
              "type": "uint256"
            }
          ],
          "internalType": "struct ISwapRouter.ExactOutputParams",
          "name": "",
          "type": "tuple"
        }
      ],
      "name": "exactOutput",
      "outputs": [
        {
          "internalType": "uint256",
          "name": "",
          "type": "uint256"
        }
      ],
      "stateMutability": "payable",
      "type": "function"
    },
    {
      "inputs": [
        {
          "components": [
            {
              "internalType": "address",
              "name": "tokenIn",
              "type": "address"
            },
            {
              "internalType": "address",
              "name": "tokenOut",
              "type": "address"
            },
            {
              "internalType": "uint24",
              "name": "fee",
              "type": "uint24"
            },
            {
              "internalType": "address",
              "name": "recipient",
              "type": "address"
            },
            {
              "internalType": "uint256",
              "name": "deadline",
              "type": "uint256"
            },
            {
              "internalType": "uint256",
              "name": "amountOut",
              "type": "uint256"
            },
            {
              "internalType": "uint256",
              "name": "amountInMaximum",
              "type": "uint256"
            },
            {
              "internalType": "uint160",
              "name": "sqrtPriceLimitX96",
              "type": "uint160"
            }
          ],
          "internalType": "struct ISwapRouter.ExactOutputSingleParams",
          "name": "",
          "type": "tuple"
        }
      ],
      "name": "exactOutputSingle",
      "outputs": [
        {
          "internalType": "uint256",
          "name": "",
          "type": "uint256"
        }
      ],
      "stateMutability": "payable",
      "type": "function"
    },
    {
      "inputs": [
        {
          "internalType": "bytes32",
          "name": "role",
          "type": "bytes32"
        }
      ],
      "name": "getRoleAdmin",
      "outputs": [
        {
          "internalType": "bytes32",
          "name": "",
          "type": "bytes32"
        }
      ],
      "stateMutability": "view",
      "type": "function"
    },
    {
      "inputs": [
        {
          "internalType": "bytes32",
          "name": "role",
          "type": "bytes32"
        },
        {
          "internalType": "address",
          "name": "account",
          "type": "address"
        }
      ],
      "name": "grantRole",
      "outputs": [],
      "stateMutability": "nonpayable",
      "type": "function"
    },
    {
      "inputs": [
        {
          "internalType": "bytes32",
          "name": "role",
          "type": "bytes32"
        },
        {
          "internalType": "address",
          "name": "account",
          "type": "address"
        }
      ],
      "name": "hasRole",
      "outputs": [
        {
          "internalType": "bool",
          "name": "",
          "type": "bool"
        }
      ],
      "stateMutability": "view",
      "type": "function"
    },
    {
      "inputs": [
        {
          "internalType": "contract IERC20Metadata",
          "name": "",
          "type": "address"
        }
      ],
      "name": "liquidators",
      "outputs": [
        {
          "internalType": "contract ILiquidator",
          "name": "",
          "type": "address"
        }
      ],
      "stateMutability": "view",
      "type": "function"
    },
    {
      "inputs": [
        {
          "internalType": "contract IERC20Metadata",
          "name": "",
          "type": "address"
        },
        {
          "internalType": "BangDEX.SlotIndex",
          "name": "",
          "type": "uint256"
        }
      ],
      "name": "markets",
      "outputs": [
        {
          "internalType": "uint256",
          "name": "minDiscount",
          "type": "uint256"
        },
        {
          "internalType": "uint256",
          "name": "discountDelta",
          "type": "uint256"
        },
        {
          "internalType": "uint256",
          "name": "fixedCost",
          "type": "uint256"
        },
        {
          "internalType": "uint256",
          "name": "maxCapacity",
          "type": "uint256"
        },
        {
          "internalType": "uint256",
          "name": "usedCapacity",
          "type": "uint256"
        }
      ],
      "stateMutability": "view",
      "type": "function"
    },
    {
      "inputs": [],
      "name": "markup",
      "outputs": [
        {
          "internalType": "uint256",
          "name": "",
          "type": "uint256"
        }
      ],
      "stateMutability": "view",
      "type": "function"
    },
    {
      "inputs": [],
      "name": "payToken",
      "outputs": [
        {
          "internalType": "contract IERC20Metadata",
          "name": "",
          "type": "address"
        }
      ],
      "stateMutability": "view",
      "type": "function"
    },
    {
      "inputs": [],
      "name": "priceOracle",
      "outputs": [
        {
          "internalType": "contract IPriceOracle",
          "name": "",
          "type": "address"
        }
      ],
      "stateMutability": "view",
      "type": "function"
    },
    {
      "inputs": [
        {
          "internalType": "bytes32",
          "name": "role",
          "type": "bytes32"
        },
        {
          "internalType": "address",
          "name": "callerConfirmation",
          "type": "address"
        }
      ],
      "name": "renounceRole",
      "outputs": [],
      "stateMutability": "nonpayable",
      "type": "function"
    },
    {
      "inputs": [
        {
          "internalType": "bytes32",
          "name": "role",
          "type": "bytes32"
        },
        {
          "internalType": "address",
          "name": "account",
          "type": "address"
        }
      ],
      "name": "revokeRole",
      "outputs": [],
      "stateMutability": "nonpayable",
      "type": "function"
    },
    {
      "inputs": [],
      "name": "riskHub",
      "outputs": [
        {
          "internalType": "address",
          "name": "",
          "type": "address"
        }
      ],
      "stateMutability": "view",
      "type": "function"
    },
    {
      "inputs": [],
      "name": "riskHubChainId",
      "outputs": [
        {
          "internalType": "uint64",
          "name": "",
          "type": "uint64"
        }
      ],
      "stateMutability": "view",
      "type": "function"
    },
    {
      "inputs": [
        {
          "internalType": "uint256",
          "name": "amount",
          "type": "uint256"
        }
      ],
      "name": "sendToRiskHub",
      "outputs": [],
      "stateMutability": "nonpayable",
      "type": "function"
    },
    {
      "inputs": [
        {
          "internalType": "contract IERC20Metadata",
          "name": "token",
          "type": "address"
        },
        {
          "internalType": "contract ILiquidator",
          "name": "newLiquidator",
          "type": "address"
        }
      ],
      "name": "setLiquidator",
      "outputs": [],
      "stateMutability": "nonpayable",
      "type": "function"
    },
    {
      "inputs": [
        {
          "internalType": "contract IERC20Metadata",
          "name": "token",
          "type": "address"
        },
        {
          "internalType": "uint256",
          "name": "slotSize_",
          "type": "uint256"
        },
        {
          "internalType": "uint256",
          "name": "slot",
          "type": "uint256"
        },
        {
          "internalType": "uint256",
          "name": "minDiscount",
          "type": "uint256"
        },
        {
          "internalType": "uint256",
          "name": "discountDelta",
          "type": "uint256"
        },
        {
          "internalType": "uint256",
          "name": "maxCapacity",
          "type": "uint256"
        },
        {
          "internalType": "uint256",
          "name": "fixedCost",
          "type": "uint256"
        }
      ],
      "name": "setMarketParameters",
      "outputs": [],
      "stateMutability": "nonpayable",
      "type": "function"
    },
    {
      "inputs": [
        {
          "internalType": "uint256",
          "name": "newMarkup",
          "type": "uint256"
        }
      ],
      "name": "setMarkup",
      "outputs": [],
      "stateMutability": "nonpayable",
      "type": "function"
    },
    {
      "inputs": [
        {
          "internalType": "contract IPriceOracle",
          "name": "priceOracle_",
          "type": "address"
        }
      ],
      "name": "setPriceOracle",
      "outputs": [],
      "stateMutability": "nonpayable",
      "type": "function"
    },
    {
      "inputs": [
        {
          "internalType": "uint256",
          "name": "newSlotSize",
          "type": "uint256"
        }
      ],
      "name": "setSlotSize",
      "outputs": [],
      "stateMutability": "nonpayable",
      "type": "function"
    },
    {
      "inputs": [],
      "name": "slotSize",
      "outputs": [
        {
          "internalType": "uint256",
          "name": "",
          "type": "uint256"
        }
      ],
      "stateMutability": "view",
      "type": "function"
    },
    {
      "inputs": [
        {
          "internalType": "bytes4",
          "name": "interfaceId",
          "type": "bytes4"
        }
      ],
      "name": "supportsInterface",
      "outputs": [
        {
          "internalType": "bool",
          "name": "",
          "type": "bool"
        }
      ],
      "stateMutability": "view",
      "type": "function"
    },
    {
      "inputs": [
        {
          "internalType": "int256",
          "name": "",
          "type": "int256"
        },
        {
          "internalType": "int256",
          "name": "",
          "type": "int256"
        },
        {
          "internalType": "bytes",
          "name": "",
          "type": "bytes"
        }
      ],
      "name": "uniswapV3SwapCallback",
      "outputs": [],
      "stateMutability": "pure",
      "type": "function"
    }
  ],
  "transactionHash": "0xcb8baafda85c42a743a59f03b4f5e6f7085a2d0e1ea0b8369ab18a9b384196d5",
  "args": [
    421614,
    "0xC24FF1A3821b1d1C6bC91ab20C3cdf58320A2191",
    "0x4183FD3C34C49B143629177547b191fdb6689F9c",
    "0x036CbD53842c5426634e7929541eC2318f3dCF7e",
    "0x29e7Ce948d68c5221Ff5cD728edD7A9edE2BAcA6",
    86400,
    "0x9a5c5a447a4A324771107140EfC226aA6b3be7F4"
  ],
  "numDeployments": 3,
  "solcInputHash": "ac76aa90be38f3ecf8e3b28e10abef67",
  "bytecode": "0x60e0604052670e27c49886e6000060025534801561001c57600080fd5b50604051611f35380380611f3583398101604081905261003b91610164565b6001600160a01b038681166080526001600160401b03881660a052600580546001600160a01b03199081168884161790915585821660c0526006805490911691851691909117905560018290556100936000826100a0565b5050505050505050610202565b6000828152602081815260408083206001600160a01b038516845290915281205460ff16610142576000838152602081815260408083206001600160a01b03861684529091529020805460ff191660011790556100fa3390565b6001600160a01b0316826001600160a01b0316847f2f8788117e7eff1d82e926ec794901d17c78024a50270940304540a733656f0d60405160405180910390a4506001610146565b5060005b92915050565b6001600160a01b038116811461016157600080fd5b50565b600080600080600080600060e0888a03121561017f57600080fd5b87516001600160401b038116811461019657600080fd5b60208901519097506101a78161014c565b60408901519096506101b88161014c565b60608901519095506101c98161014c565b60808901519094506101da8161014c565b60a089015160c08a015191945092506101f28161014c565b8091505092959891949750929550565b60805160a05160c051611cbe610277600039600081816105c5015281816109fc01528181610c4a01528181610e2c01528181610eb6015281816110ab015261114701526000818161039701528181610ede015261155601526000818161063d01528181610f0e01526115780152611cbe6000f3fe6080604052600436106102045760003560e01c80638003a94f11610118578063c5a92656116100a0578063e78cea921161006f578063e78cea92146106d7578063f28c049814610618578063f90cdb36146106f7578063fa461e331461072d578063fc085e091461074d57600080fd5b8063c5a926561461065f578063d547741f14610675578063d6f0d39f14610695578063db3e2198146106c957600080fd5b806396336b30116100e757806396336b30146105b35780639cb16f8c146105e7578063a217fddf14610603578063c04b8d5914610618578063c276bf4a1461062b57600080fd5b80638003a94f1461051f5780638b9789c9146105535780638c2c359f1461057357806391d148541461059357600080fd5b8063353a98ed1161019b578063530e784f1161016a578063530e784f1461048d578063628a0cf8146104ad5780636a146024146104c35780636e2b3d0a146104df5780637abbc8bf146104ff57600080fd5b8063353a98ed146103f257806336568abe14610426578063414bf389146104465780634a6fce0d1461045957600080fd5b8063248a9ca3116101d7578063248a9ca31461031d5780632630c12f1461034d5780632753be04146103855780632f2ff15d146103d257600080fd5b806301ffc9a71461020957806305dfefa81461023e57806317b3bba7146102805780631f22bcf1146102fb575b600080fd5b34801561021557600080fd5b506102296102243660046117b8565b61076d565b60405190151581526020015b60405180910390f35b34801561024a57600080fd5b506102727f9ce59597c934dedd904171f26bf62ea86832059580bda1abc4da8223acaaa66481565b604051908152602001610235565b34801561028c57600080fd5b506102d361029b3660046117f7565b600360208181526000938452604080852090915291835291208054600182015460028301549383015460049093015491939092909185565b604080519586526020860194909452928401919091526060830152608082015260a001610235565b34801561030757600080fd5b5061031b610316366004611823565b6107a4565b005b34801561032957600080fd5b50610272610338366004611878565b60009081526020819052604090206001015490565b34801561035957600080fd5b5060065461036d906001600160a01b031681565b6040516001600160a01b039091168152602001610235565b34801561039157600080fd5b506103b97f000000000000000000000000000000000000000000000000000000000000000081565b60405167ffffffffffffffff9091168152602001610235565b3480156103de57600080fd5b5061031b6103ed366004611891565b61081e565b3480156103fe57600080fd5b506102727f35840b8c68fc75fd4730080ad6a253c59d8481203cb1e390bc8cf3404664ab6281565b34801561043257600080fd5b5061031b610441366004611891565b610849565b6102726104543660046118da565b610881565b34801561046557600080fd5b506102727f35b8a665c30bad4757300d2c2635e76c32d629f8b51d543b8cdef10fa9a4a56681565b34801561049957600080fd5b5061031b6104a83660046118f7565b610d5c565b3480156104b957600080fd5b5061027260015481565b3480156104cf57600080fd5b50610272670de0b6b3a764000081565b3480156104eb57600080fd5b5061031b6104fa366004611878565b610da9565b34801561050b57600080fd5b5061031b61051a366004611878565b610dd9565b34801561052b57600080fd5b506102727fc307c44629779eb8fc0b85f224c3d22f5876a6c84de0ee42d481eb7814f0d3a881565b34801561055f57600080fd5b5061031b61056e366004611878565b610f7e565b34801561057f57600080fd5b5061031b61058e366004611914565b610fae565b34801561059f57600080fd5b506102296105ae366004611891565b611007565b3480156105bf57600080fd5b5061036d7f000000000000000000000000000000000000000000000000000000000000000081565b3480156105f357600080fd5b50610272670e27c49886e6000081565b34801561060f57600080fd5b50610272600081565b610272610626366004611954565b611030565b34801561063757600080fd5b5061036d7f000000000000000000000000000000000000000000000000000000000000000081565b34801561066b57600080fd5b5061027260025481565b34801561068157600080fd5b5061031b610690366004611891565b61104b565b3480156106a157600080fd5b506102727f3fb0aaa9e8051cfc6c234a5d843bed33910f70c647055f27247c10144c7552e181565b6102726106263660046118da565b3480156106e357600080fd5b5060055461036d906001600160a01b031681565b34801561070357600080fd5b5061036d6107123660046118f7565b6004602052600090815260409020546001600160a01b031681565b34801561073957600080fd5b5061031b610748366004611991565b611070565b34801561075957600080fd5b506102726107683660046117f7565b611089565b60006001600160e01b03198216637965db0b60e01b148061079e57506301ffc9a760e01b6001600160e01b03198316145b92915050565b7f3fb0aaa9e8051cfc6c234a5d843bed33910f70c647055f27247c10144c7552e16107ce8161121a565b60006107da8888611227565b6001600160a01b0390991660009081526003602081815260408084209c84529b90529990209586555050600184019290925594820194909455600201929092555050565b6000828152602081905260409020600101546108398161121a565b610843838361123e565b50505050565b6001600160a01b03811633146108725760405163334bd91960e11b815260040160405180910390fd5b61087c82826112d0565b505050565b600034156108eb5760405162461bcd60e51b815260206004820152602c60248201527f536f7272792c20776520646f6e277420737570706f727420746865206e61746960448201526b1d99481d1bdad95b881e595d60a21b60648201526084015b60405180910390fd5b60006108fd60808401606085016118f7565b6001600160a01b0316036109535760405162461bcd60e51b815260206004820181905260248201527f526563697069656e742063616e6e6f74206265207a65726f206164647265737360448201526064016108e2565b428260800135101561099e5760405162461bcd60e51b8152602060048201526014602482015273111958591b1a5b99481a5b881d1a19481c185cdd60621b60448201526064016108e2565b60008260a00135116109f25760405162461bcd60e51b815260206004820152601760248201527f616d6f756e74496e2063616e6e6f74206265207a65726f00000000000000000060448201526064016108e2565b6001600160a01b037f000000000000000000000000000000000000000000000000000000000000000016610a2c60408401602085016118f7565b6001600160a01b031614610a8c5760405162461bcd60e51b815260206004820152602160248201527f57652063616e2073776170206f6e6c7920616761696e737420706179546f6b656044820152603760f91b60648201526084016108e2565b6000600481610a9e60208601866118f7565b6001600160a01b03908116825260208201929092526040016000205416905080610b0a5760405162461bcd60e51b815260206004820152601a60248201527f54686520746f6b656e206973206e6f7420737570706f7274656400000000000060448201526064016108e2565b6000610b21610b1c60208601866118f7565b61133b565b905080600301548460a001358260040154610b3c9190611a2a565b1115610b8a5760405162461bcd60e51b815260206004820181905260248201527f436170616369747920666f72207468697320746f6b656e20657863656564656460448201526064016108e2565b610ba4610b9a60208601866118f7565b8560a00135611089565b92508360c00135831015610c0f5760405162461bcd60e51b815260206004820152602c60248201527f546865206f757470757420616d6f756e74206973206c657373206d696e696d7560448201526b6d2061636365707461626c6560a01b60648201526084016108e2565b8360a00135816004016000828254610c279190611a2a565b90915550610c719050610c4060808601606087016118f7565b6001600160a01b037f0000000000000000000000000000000000000000000000000000000000000000169085611380565b610c99338360a0870135610c8860208901896118f7565b6001600160a01b03169291906113df565b6001600160a01b038216630710285c610cb560208701876118f7565b60025460a088013590610cd2908890670de0b6b3a7640000611418565b6040516001600160e01b031960e086901b1681526001600160a01b03909316600484015260248301919091526044820152606401600060405180830381600087803b158015610d2057600080fd5b505af1158015610d34573d6000803e3d6000fd5b50610d559250610d4a91505060208601866118f7565b8560a00135856114dd565b5050919050565b7fc307c44629779eb8fc0b85f224c3d22f5876a6c84de0ee42d481eb7814f0d3a8610d868161121a565b50600680546001600160a01b0319166001600160a01b0392909216919091179055565b7f35b8a665c30bad4757300d2c2635e76c32d629f8b51d543b8cdef10fa9a4a566610dd38161121a565b50600155565b7f35840b8c68fc75fd4730080ad6a253c59d8481203cb1e390bc8cf3404664ab62610e038161121a565b60055460405163095ea7b360e01b81526001600160a01b039182166004820152602481018490527f00000000000000000000000000000000000000000000000000000000000000009091169063095ea7b3906044016020604051808303816000875af1158015610e77573d6000803e3d6000fd5b505050506040513d601f19601f82011682018060405250810190610e9b9190611a3d565b5060055460405163b093aee360e01b81526001600160a01b037f0000000000000000000000000000000000000000000000000000000000000000811660048301527f000000000000000000000000000000000000000000000000000000000000000067ffffffffffffffff1660248301527f000000000000000000000000000000000000000000000000000000000000000081166044830152606482018590529091169063b093aee390608401600060405180830381600087803b158015610f6257600080fd5b505af1158015610f76573d6000803e3d6000fd5b505050505050565b7f35b8a665c30bad4757300d2c2635e76c32d629f8b51d543b8cdef10fa9a4a566610fa88161121a565b50600255565b7f9ce59597c934dedd904171f26bf62ea86832059580bda1abc4da8223acaaa664610fd88161121a565b506001600160a01b03918216600090815260046020526040902080546001600160a01b03191691909216179055565b6000918252602082815260408084206001600160a01b0393909316845291905290205460ff1690565b600060405163d623472560e01b815260040160405180910390fd5b6000828152602081905260409020600101546110668161121a565b61084383836112d0565b60405163d623472560e01b815260040160405180910390fd5b60065460405163db16a55560e01b81526001600160a01b0384811660048301527f000000000000000000000000000000000000000000000000000000000000000081166024830152600092839291169063db16a55590604401602060405180830381865afa1580156110ff573d6000803e3d6000fd5b505050506040513d601f19601f820116820180604052508101906111239190611a5f565b905060006111308561133b565b9050600061113e82866115da565b905081600201547f00000000000000000000000000000000000000000000000000000000000000006001600160a01b031663313ce5676040518163ffffffff1660e01b8152600401602060405180830381865afa1580156111a3573d6000803e3d6000fd5b505050506040513d601f19601f820116820180604052508101906111c79190611a78565b6111d2906012611a9b565b6111dd90600a611b9b565b6111fc83670de0b6b3a76400006111f58a8983611418565b9190611418565b6112069190611bc0565b6112109190611be2565b9695505050505050565b6112248133611620565b50565b6000611234826080611a2a565b9290921b92915050565b600061124a8383611007565b6112c8576000838152602081815260408083206001600160a01b03861684529091529020805460ff191660011790556112803390565b6001600160a01b0316826001600160a01b0316847f2f8788117e7eff1d82e926ec794901d17c78024a50270940304540a733656f0d60405160405180910390a450600161079e565b50600061079e565b60006112dc8383611007565b156112c8576000838152602081815260408083206001600160a01b0386168085529252808320805460ff1916905551339286917ff6391f5c32d9c69d2a47ea670b442974b53935d1edc7fd64eb21e047a839171b9190a450600161079e565b6001600160a01b0381166000908152600360205260408120600154829061136b906113668142611bc0565b611227565b81526020019081526020016000209050919050565b6040516001600160a01b0383811660248301526044820183905261087c91859182169063a9059cbb906064015b604051602081830303815290604052915060e01b6020820180516001600160e01b03838183161783525050505061165d565b6040516001600160a01b0384811660248301528381166044830152606482018390526108439186918216906323b872dd906084016113ad565b600083830281600019858709828110838203039150508060000361144f5783828161144557611445611baa565b04925050506114d6565b80841161146f5760405163227bc15360e01b815260040160405180910390fd5b6000848688096000868103871696879004966002600389028118808a02820302808a02820302808a02820302808a02820302808a02820302808a02909103029181900381900460010186841190950394909402919094039290920491909117919091029150505b9392505050565b604080514660248201524260448201526001600160a01b0385811660648301526084820185905260a48083018590528351808403909101815260c490920183526020820180516001600160e01b03166301e8d07d60e21b1790526005549251634ac4ff2b60e01b815291921690634ac4ff2b906115a2907f0000000000000000000000000000000000000000000000000000000000000000907f0000000000000000000000000000000000000000000000000000000000000000908690600401611c19565b600060405180830381600087803b1580156115bc57600080fd5b505af11580156115d0573d6000803e3d6000fd5b5050505050505050565b6000611614611600670de0b6b3a764000085600301548587600401546111f59190611a2a565b600185015490670de0b6b3a7640000611418565b83546114d69190611be2565b61162a8282611007565b6116595760405163e2517d3f60e01b81526001600160a01b0382166004820152602481018390526044016108e2565b5050565b60006116726001600160a01b038416836116c0565b905080516000141580156116975750808060200190518101906116959190611a3d565b155b1561087c57604051635274afe760e01b81526001600160a01b03841660048201526024016108e2565b60606114d68383600084600080856001600160a01b031684866040516116e69190611c6c565b60006040518083038185875af1925050503d8060008114611723576040519150601f19603f3d011682016040523d82523d6000602084013e611728565b606091505b5091509150611210868383606082611748576117438261178f565b6114d6565b815115801561175f57506001600160a01b0384163b155b1561178857604051639996b31560e01b81526001600160a01b03851660048201526024016108e2565b50806114d6565b80511561179f5780518082602001fd5b604051630a12f52160e11b815260040160405180910390fd5b6000602082840312156117ca57600080fd5b81356001600160e01b0319811681146114d657600080fd5b6001600160a01b038116811461122457600080fd5b6000806040838503121561180a57600080fd5b8235611815816117e2565b946020939093013593505050565b600080600080600080600060e0888a03121561183e57600080fd5b8735611849816117e2565b9960208901359950604089013598606081013598506080810135975060a0810135965060c00135945092505050565b60006020828403121561188a57600080fd5b5035919050565b600080604083850312156118a457600080fd5b8235915060208301356118b6816117e2565b809150509250929050565b600061010082840312156118d457600080fd5b50919050565b600061010082840312156118ed57600080fd5b6114d683836118c1565b60006020828403121561190957600080fd5b81356114d6816117e2565b6000806040838503121561192757600080fd5b8235611932816117e2565b915060208301356118b6816117e2565b600060a082840312156118d457600080fd5b60006020828403121561196657600080fd5b813567ffffffffffffffff81111561197d57600080fd5b61198984828501611942565b949350505050565b600080600080606085870312156119a757600080fd5b8435935060208501359250604085013567ffffffffffffffff8111156119cc57600080fd5b8501601f810187136119dd57600080fd5b803567ffffffffffffffff8111156119f457600080fd5b876020828401011115611a0657600080fd5b949793965060200194505050565b634e487b7160e01b600052601160045260246000fd5b8082018082111561079e5761079e611a14565b600060208284031215611a4f57600080fd5b815180151581146114d657600080fd5b600060208284031215611a7157600080fd5b5051919050565b600060208284031215611a8a57600080fd5b815160ff811681146114d657600080fd5b60ff828116828216039081111561079e5761079e611a14565b6001815b6001841115611aef57808504811115611ad357611ad3611a14565b6001841615611ae157908102905b60019390931c928002611ab8565b935093915050565b600082611b065750600161079e565b81611b135750600061079e565b8160018114611b295760028114611b3357611b4f565b600191505061079e565b60ff841115611b4457611b44611a14565b50506001821b61079e565b5060208310610133831016604e8410600b8410161715611b72575081810a61079e565b611b7f6000198484611ab4565b8060001904821115611b9357611b93611a14565b029392505050565b60006114d660ff841683611af7565b634e487b7160e01b600052601260045260246000fd5b600082611bdd57634e487b7160e01b600052601260045260246000fd5b500490565b8181038181111561079e5761079e611a14565b60005b83811015611c10578181015183820152602001611bf8565b50506000910152565b67ffffffffffffffff8416815260018060a01b03831660208201526060604082015260008251806060840152611c56816080850160208701611bf5565b601f01601f191691909101608001949350505050565b60008251611c7e818460208701611bf5565b919091019291505056fea2646970667358221220c70e487b995cfc37df5b922db2bfbd0306473359287b3b507dbd8b94ecf9590164736f6c634300081c0033",
  "devdoc": {
    "errors": {
      "AccessControlBadConfirmation()": [
        {
          "details": "The caller of a function is not the expected one. NOTE: Don't confuse with {AccessControlUnauthorizedAccount}."
        }
      ],
      "AccessControlUnauthorizedAccount(address,bytes32)": [
        {
          "details": "The `account` is missing a role."
        }
      ],
      "AddressEmptyCode(address)": [
        {
          "details": "There's no code at `target` (it is not a contract)."
        }
      ],
      "AddressInsufficientBalance(address)": [
        {
          "details": "The ETH balance of the account is not enough to perform the operation."
        }
      ],
      "FailedInnerCall()": [
        {
          "details": "A call to an address target failed. The target may have reverted."
        }
      ],
      "MathOverflowedMulDiv()": [
        {
          "details": "Muldiv operation overflow."
        }
      ],
      "SafeERC20FailedOperation(address)": [
        {
          "details": "An operation with an ERC20 token failed."
        }
      ]
    },
    "events": {
      "RoleAdminChanged(bytes32,bytes32,bytes32)": {
        "details": "Emitted when `newAdminRole` is set as ``role``'s admin role, replacing `previousAdminRole` `DEFAULT_ADMIN_ROLE` is the starting admin for all roles, despite {RoleAdminChanged} not being emitted signaling this."
      },
      "RoleGranted(bytes32,address,address)": {
        "details": "Emitted when `account` is granted `role`. `sender` is the account that originated the contract call, an admin role bearer except when using {AccessControl-_setupRole}."
      },
      "RoleRevoked(bytes32,address,address)": {
        "details": "Emitted when `account` is revoked `role`. `sender` is the account that originated the contract call:   - if using `revokeRole`, it is the admin role bearer   - if using `renounceRole`, it is the role bearer (i.e. `account`)"
      }
    },
    "kind": "dev",
    "methods": {
      "exactInput((bytes,address,uint256,uint256,uint256))": {
        "params": {
          "params": "The parameters necessary for the multi-hop swap, encoded as `ExactInputParams` in calldata"
        },
        "returns": {
          "_0": "The amount of the received token"
        }
      },
      "exactInputSingle((address,address,uint24,address,uint256,uint256,uint256,uint160))": {
        "params": {
          "params": "The parameters necessary for the swap, encoded as `ExactInputSingleParams` in calldata"
        },
        "returns": {
          "amountOut": "The amount of the received token"
        }
      },
      "exactOutput((bytes,address,uint256,uint256,uint256))": {
        "params": {
          "params": "The parameters necessary for the multi-hop swap, encoded as `ExactOutputParams` in calldata"
        },
        "returns": {
          "_0": "The amount of the input token"
        }
      },
      "exactOutputSingle((address,address,uint24,address,uint256,uint256,uint256,uint160))": {
        "params": {
          "params": "The parameters necessary for the swap, encoded as `ExactOutputSingleParams` in calldata"
        },
        "returns": {
          "_0": "The amount of the input token"
        }
      },
      "getRoleAdmin(bytes32)": {
        "details": "Returns the admin role that controls `role`. See {grantRole} and {revokeRole}. To change a role's admin, use {_setRoleAdmin}."
      },
      "grantRole(bytes32,address)": {
        "details": "Grants `role` to `account`. If `account` had not been already granted `role`, emits a {RoleGranted} event. Requirements: - the caller must have ``role``'s admin role. May emit a {RoleGranted} event."
      },
      "hasRole(bytes32,address)": {
        "details": "Returns `true` if `account` has been granted `role`."
      },
      "renounceRole(bytes32,address)": {
        "details": "Revokes `role` from the calling account. Roles are often managed via {grantRole} and {revokeRole}: this function's purpose is to provide a mechanism for accounts to lose their privileges if they are compromised (such as when a trusted device is misplaced). If the calling account had been revoked `role`, emits a {RoleRevoked} event. Requirements: - the caller must be `callerConfirmation`. May emit a {RoleRevoked} event."
      },
      "revokeRole(bytes32,address)": {
        "details": "Revokes `role` from `account`. If `account` had been granted `role`, emits a {RoleRevoked} event. Requirements: - the caller must have ``role``'s admin role. May emit a {RoleRevoked} event."
      },
      "supportsInterface(bytes4)": {
        "details": "See {IERC165-supportsInterface}."
      }
    },
    "title": "BangDEX",
    "version": 1
  },
  "userdoc": {
    "kind": "user",
    "methods": {
      "exactInput((bytes,address,uint256,uint256,uint256))": {
        "notice": "This function is not implemented"
      },
      "exactInputSingle((address,address,uint24,address,uint256,uint256,uint256,uint160))": {
        "notice": "Swaps `amountIn` of one token for as much as possible of another token"
      },
      "exactOutput((bytes,address,uint256,uint256,uint256))": {
        "notice": "This function is not implemented"
      },
      "exactOutputSingle((address,address,uint24,address,uint256,uint256,uint256,uint160))": {
        "notice": "Swaps as little as possible of one token for `amountOut` of another token"
      },
      "uniswapV3SwapCallback(int256,int256,bytes)": {
        "notice": "This function is not implemented"
      }
    },
    "notice": "Contract following the interface of ISwapRouter that executes the swaps with the users in the different         chains, using a linear price curve based on the utilized capacity of each token for each slot.         Colaborates with liquidators that are the ones that later (probably asynchronously and cross-chain) will         liquidate the tokens.",
    "version": 1
  },
  "storageLayout": {
    "storage": [
      {
        "astId": 26,
        "contract": "contracts/BangDEX.sol:BangDEX",
        "label": "_roles",
        "offset": 0,
        "slot": "0",
        "type": "t_mapping(t_bytes32,t_struct(RoleData)21_storage)"
      },
      {
        "astId": 2756,
        "contract": "contracts/BangDEX.sol:BangDEX",
        "label": "slotSize",
        "offset": 0,
        "slot": "1",
        "type": "t_uint256"
      },
      {
        "astId": 2759,
        "contract": "contracts/BangDEX.sol:BangDEX",
        "label": "markup",
        "offset": 0,
        "slot": "2",
        "type": "t_uint256"
      },
      {
        "astId": 2781,
        "contract": "contracts/BangDEX.sol:BangDEX",
        "label": "markets",
        "offset": 0,
        "slot": "3",
        "type": "t_mapping(t_contract(IERC20Metadata)716,t_mapping(t_userDefinedValueType(SlotIndex)2772,t_struct(MarketState)2770_storage))"
      },
      {
        "astId": 2787,
        "contract": "contracts/BangDEX.sol:BangDEX",
        "label": "liquidators",
        "offset": 0,
        "slot": "4",
        "type": "t_mapping(t_contract(IERC20Metadata)716,t_contract(ILiquidator)3422)"
      },
      {
        "astId": 2790,
        "contract": "contracts/BangDEX.sol:BangDEX",
        "label": "bridge",
        "offset": 0,
        "slot": "5",
        "type": "t_contract(IBridge)3410"
      },
      {
        "astId": 2793,
        "contract": "contracts/BangDEX.sol:BangDEX",
        "label": "priceOracle",
        "offset": 0,
        "slot": "6",
        "type": "t_contract(IPriceOracle)3440"
      }
    ],
    "types": {
      "t_address": {
        "encoding": "inplace",
        "label": "address",
        "numberOfBytes": "20"
      },
      "t_bool": {
        "encoding": "inplace",
        "label": "bool",
        "numberOfBytes": "1"
      },
      "t_bytes32": {
        "encoding": "inplace",
        "label": "bytes32",
        "numberOfBytes": "32"
      },
      "t_contract(IBridge)3410": {
        "encoding": "inplace",
        "label": "contract IBridge",
        "numberOfBytes": "20"
      },
      "t_contract(IERC20Metadata)716": {
        "encoding": "inplace",
        "label": "contract IERC20Metadata",
        "numberOfBytes": "20"
      },
      "t_contract(ILiquidator)3422": {
        "encoding": "inplace",
        "label": "contract ILiquidator",
        "numberOfBytes": "20"
      },
      "t_contract(IPriceOracle)3440": {
        "encoding": "inplace",
        "label": "contract IPriceOracle",
        "numberOfBytes": "20"
      },
      "t_mapping(t_address,t_bool)": {
        "encoding": "mapping",
        "key": "t_address",
        "label": "mapping(address => bool)",
        "numberOfBytes": "32",
        "value": "t_bool"
      },
      "t_mapping(t_bytes32,t_struct(RoleData)21_storage)": {
        "encoding": "mapping",
        "key": "t_bytes32",
        "label": "mapping(bytes32 => struct AccessControl.RoleData)",
        "numberOfBytes": "32",
        "value": "t_struct(RoleData)21_storage"
      },
      "t_mapping(t_contract(IERC20Metadata)716,t_contract(ILiquidator)3422)": {
        "encoding": "mapping",
        "key": "t_contract(IERC20Metadata)716",
        "label": "mapping(contract IERC20Metadata => contract ILiquidator)",
        "numberOfBytes": "32",
        "value": "t_contract(ILiquidator)3422"
      },
      "t_mapping(t_contract(IERC20Metadata)716,t_mapping(t_userDefinedValueType(SlotIndex)2772,t_struct(MarketState)2770_storage))": {
        "encoding": "mapping",
        "key": "t_contract(IERC20Metadata)716",
        "label": "mapping(contract IERC20Metadata => mapping(BangDEX.SlotIndex => struct BangDEX.MarketState))",
        "numberOfBytes": "32",
        "value": "t_mapping(t_userDefinedValueType(SlotIndex)2772,t_struct(MarketState)2770_storage)"
      },
      "t_mapping(t_userDefinedValueType(SlotIndex)2772,t_struct(MarketState)2770_storage)": {
        "encoding": "mapping",
        "key": "t_userDefinedValueType(SlotIndex)2772",
        "label": "mapping(BangDEX.SlotIndex => struct BangDEX.MarketState)",
        "numberOfBytes": "32",
        "value": "t_struct(MarketState)2770_storage"
      },
      "t_struct(MarketState)2770_storage": {
        "encoding": "inplace",
        "label": "struct BangDEX.MarketState",
        "members": [
          {
            "astId": 2761,
            "contract": "contracts/BangDEX.sol:BangDEX",
            "label": "minDiscount",
            "offset": 0,
            "slot": "0",
            "type": "t_uint256"
          },
          {
            "astId": 2763,
            "contract": "contracts/BangDEX.sol:BangDEX",
            "label": "discountDelta",
            "offset": 0,
            "slot": "1",
            "type": "t_uint256"
          },
          {
            "astId": 2765,
            "contract": "contracts/BangDEX.sol:BangDEX",
            "label": "fixedCost",
            "offset": 0,
            "slot": "2",
            "type": "t_uint256"
          },
          {
            "astId": 2767,
            "contract": "contracts/BangDEX.sol:BangDEX",
            "label": "maxCapacity",
            "offset": 0,
            "slot": "3",
            "type": "t_uint256"
          },
          {
            "astId": 2769,
            "contract": "contracts/BangDEX.sol:BangDEX",
            "label": "usedCapacity",
            "offset": 0,
            "slot": "4",
            "type": "t_uint256"
          }
        ],
        "numberOfBytes": "160"
      },
      "t_struct(RoleData)21_storage": {
        "encoding": "inplace",
        "label": "struct AccessControl.RoleData",
        "members": [
          {
            "astId": 18,
            "contract": "contracts/BangDEX.sol:BangDEX",
            "label": "hasRole",
            "offset": 0,
            "slot": "0",
            "type": "t_mapping(t_address,t_bool)"
          },
          {
            "astId": 20,
            "contract": "contracts/BangDEX.sol:BangDEX",
            "label": "adminRole",
            "offset": 0,
            "slot": "1",
            "type": "t_bytes32"
          }
        ],
        "numberOfBytes": "64"
      },
      "t_uint256": {
        "encoding": "inplace",
        "label": "uint256",
        "numberOfBytes": "32"
      },
      "t_userDefinedValueType(SlotIndex)2772": {
        "encoding": "inplace",
        "label": "BangDEX.SlotIndex",
        "numberOfBytes": "32"
      }
    }
  }
}