{
  "address": "0xcb2678b75a97474f867cB21a773922fC7f446633",
  "abi": [
    {
      "inputs": [
        {
          "internalType": "address",
          "name": "eoa_",
          "type": "address"
        },
        {
          "internalType": "address",
          "name": "admin",
          "type": "address"
        }
      ],
      "stateMutability": "nonpayable",
      "type": "constructor"
    },
    {
      "inputs": [],
      "name": "AccessControlBadConfirmation",
      "type": "error"
    },
    {
      "inputs": [
        {
          "internalType": "address",
          "name": "account",
          "type": "address"
        },
        {
          "internalType": "bytes32",
          "name": "neededRole",
          "type": "bytes32"
        }
      ],
      "name": "AccessControlUnauthorizedAccount",
      "type": "error"
    },
    {
      "inputs": [
        {
          "internalType": "address",
          "name": "target",
          "type": "address"
        }
      ],
      "name": "AddressEmptyCode",
      "type": "error"
    },
    {
      "inputs": [
        {
          "internalType": "address",
          "name": "account",
          "type": "address"
        }
      ],
      "name": "AddressInsufficientBalance",
      "type": "error"
    },
    {
      "inputs": [],
      "name": "FailedInnerCall",
      "type": "error"
    },
    {
      "inputs": [
        {
          "internalType": "address",
          "name": "token",
          "type": "address"
        }
      ],
      "name": "SafeERC20FailedOperation",
      "type": "error"
    },
    {
      "anonymous": false,
      "inputs": [
        {
          "indexed": true,
          "internalType": "address",
          "name": "newEOA",
          "type": "address"
        },
        {
          "indexed": true,
          "internalType": "address",
          "name": "oldEOA",
          "type": "address"
        }
      ],
      "name": "EOAChanged",
      "type": "event"
    },
    {
      "anonymous": false,
      "inputs": [
        {
          "indexed": true,
          "internalType": "bytes32",
          "name": "role",
          "type": "bytes32"
        },
        {
          "indexed": true,
          "internalType": "bytes32",
          "name": "previousAdminRole",
          "type": "bytes32"
        },
        {
          "indexed": true,
          "internalType": "bytes32",
          "name": "newAdminRole",
          "type": "bytes32"
        }
      ],
      "name": "RoleAdminChanged",
      "type": "event"
    },
    {
      "anonymous": false,
      "inputs": [
        {
          "indexed": true,
          "internalType": "bytes32",
          "name": "role",
          "type": "bytes32"
        },
        {
          "indexed": true,
          "internalType": "address",
          "name": "account",
          "type": "address"
        },
        {
          "indexed": true,
          "internalType": "address",
          "name": "sender",
          "type": "address"
        }
      ],
      "name": "RoleGranted",
      "type": "event"
    },
    {
      "anonymous": false,
      "inputs": [
        {
          "indexed": true,
          "internalType": "bytes32",
          "name": "role",
          "type": "bytes32"
        },
        {
          "indexed": true,
          "internalType": "address",
          "name": "account",
          "type": "address"
        },
        {
          "indexed": true,
          "internalType": "address",
          "name": "sender",
          "type": "address"
        }
      ],
      "name": "RoleRevoked",
      "type": "event"
    },
    {
      "anonymous": false,
      "inputs": [
        {
          "indexed": true,
          "internalType": "address",
          "name": "eoa",
          "type": "address"
        },
        {
          "indexed": true,
          "internalType": "address",
          "name": "asset",
          "type": "address"
        },
        {
          "indexed": false,
          "internalType": "uint256",
          "name": "assetAmount",
          "type": "uint256"
        },
        {
          "indexed": false,
          "internalType": "uint256",
          "name": "debtAmount",
          "type": "uint256"
        }
      ],
      "name": "TokensToLiquidate",
      "type": "event"
    },
    {
      "inputs": [],
      "name": "DEFAULT_ADMIN_ROLE",
      "outputs": [
        {
          "internalType": "bytes32",
          "name": "",
          "type": "bytes32"
        }
      ],
      "stateMutability": "view",
      "type": "function"
    },
    {
      "inputs": [],
      "name": "EOA_ADMIN_ROLE",
      "outputs": [
        {
          "internalType": "bytes32",
          "name": "",
          "type": "bytes32"
        }
      ],
      "stateMutability": "view",
      "type": "function"
    },
    {
      "inputs": [],
      "name": "eoa",
      "outputs": [
        {
          "internalType": "address",
          "name": "",
          "type": "address"
        }
      ],
      "stateMutability": "view",
      "type": "function"
    },
    {
      "inputs": [
        {
          "internalType": "bytes32",
          "name": "role",
          "type": "bytes32"
        }
      ],
      "name": "getRoleAdmin",
      "outputs": [
        {
          "internalType": "bytes32",
          "name": "",
          "type": "bytes32"
        }
      ],
      "stateMutability": "view",
      "type": "function"
    },
    {
      "inputs": [
        {
          "internalType": "bytes32",
          "name": "role",
          "type": "bytes32"
        },
        {
          "internalType": "address",
          "name": "account",
          "type": "address"
        }
      ],
      "name": "grantRole",
      "outputs": [],
      "stateMutability": "nonpayable",
      "type": "function"
    },
    {
      "inputs": [
        {
          "internalType": "bytes32",
          "name": "role",
          "type": "bytes32"
        },
        {
          "internalType": "address",
          "name": "account",
          "type": "address"
        }
      ],
      "name": "hasRole",
      "outputs": [
        {
          "internalType": "bool",
          "name": "",
          "type": "bool"
        }
      ],
      "stateMutability": "view",
      "type": "function"
    },
    {
      "inputs": [
        {
          "internalType": "address",
          "name": "asset",
          "type": "address"
        },
        {
          "internalType": "uint256",
          "name": "assetAmount",
          "type": "uint256"
        },
        {
          "internalType": "uint256",
          "name": "debtAmount",
          "type": "uint256"
        }
      ],
      "name": "liquidate",
      "outputs": [],
      "stateMutability": "nonpayable",
      "type": "function"
    },
    {
      "inputs": [
        {
          "internalType": "bytes32",
          "name": "role",
          "type": "bytes32"
        },
        {
          "internalType": "address",
          "name": "callerConfirmation",
          "type": "address"
        }
      ],
      "name": "renounceRole",
      "outputs": [],
      "stateMutability": "nonpayable",
      "type": "function"
    },
    {
      "inputs": [
        {
          "internalType": "bytes32",
          "name": "role",
          "type": "bytes32"
        },
        {
          "internalType": "address",
          "name": "account",
          "type": "address"
        }
      ],
      "name": "revokeRole",
      "outputs": [],
      "stateMutability": "nonpayable",
      "type": "function"
    },
    {
      "inputs": [
        {
          "internalType": "address",
          "name": "newEOA",
          "type": "address"
        }
      ],
      "name": "setEOA",
      "outputs": [],
      "stateMutability": "nonpayable",
      "type": "function"
    },
    {
      "inputs": [
        {
          "internalType": "bytes4",
          "name": "interfaceId",
          "type": "bytes4"
        }
      ],
      "name": "supportsInterface",
      "outputs": [
        {
          "internalType": "bool",
          "name": "",
          "type": "bool"
        }
      ],
      "stateMutability": "view",
      "type": "function"
    }
  ],
  "transactionHash": "0x8a6eee066a6f7fb838449d18e2d85e96784c9a3e2451146e7d24c2c85e137bbc",
  "args": [
    "0x9a5c5a447a4A324771107140EfC226aA6b3be7F4",
    "0x9a5c5a447a4A324771107140EfC226aA6b3be7F4"
  ],
  "numDeployments": 2,
  "solcInputHash": "ceac0c45144364d06e25efccbbec5a8c",
  "bytecode": "0x608060405234801561001057600080fd5b50604051610a2b380380610a2b83398101604081905261002f916101a3565b6001600160a01b03821661007e5760405162461bcd60e51b81526020600482015260126024820152714d75737420646566696e6520616e20454f4160701b604482015260640160405180910390fd5b600180546001600160a01b0319166001600160a01b038416908117909155604051600091907ff93a3381a16f2a5ff82333c4a1ab6c74902046ee8f864e2cd93cb67c11786c3a908390a36100d36000826100db565b5050506101d6565b6000828152602081815260408083206001600160a01b038516845290915281205460ff1661017d576000838152602081815260408083206001600160a01b03861684529091529020805460ff191660011790556101353390565b6001600160a01b0316826001600160a01b0316847f2f8788117e7eff1d82e926ec794901d17c78024a50270940304540a733656f0d60405160405180910390a4506001610181565b5060005b92915050565b80516001600160a01b038116811461019e57600080fd5b919050565b600080604083850312156101b657600080fd5b6101bf83610187565b91506101cd60208401610187565b90509250929050565b610846806101e56000396000f3fe608060405234801561001057600080fd5b50600436106100a95760003560e01c806336568abe1161007157806336568abe14610142578063508a50f41461015557806391d148541461017c578063a217fddf1461018f578063af7b15e514610197578063d547741f146101c257600080fd5b806301ffc9a7146100ae5780630710285c146100d6578063248a9ca3146100eb5780632f2ff15d1461011c57806333bf91271461012f575b600080fd5b6100c16100bc3660046106e6565b6101d5565b60405190151581526020015b60405180910390f35b6100e96100e436600461072c565b61020c565b005b61010e6100f936600461075f565b60009081526020819052604090206001015490565b6040519081526020016100cd565b6100e961012a366004610778565b610275565b6100e961013d3660046107a4565b6102a0565b6100e9610150366004610778565b610328565b61010e7ff16bb8781ef1311f8fe06747bcbe481e695502acdcb0cb8c03aa03899e39a59881565b6100c161018a366004610778565b610360565b61010e600081565b6001546101aa906001600160a01b031681565b6040516001600160a01b0390911681526020016100cd565b6100e96101d0366004610778565b610389565b60006001600160e01b03198216637965db0b60e01b148061020657506301ffc9a760e01b6001600160e01b03198316145b92915050565b600154610226906001600160a01b038581169116846103ae565b60015460408051848152602081018490526001600160a01b038681169316917f0c5311fd94b36857c60cf84f616d827b10ed30880e7fb531c88761702efa4fe2910160405180910390a3505050565b60008281526020819052604090206001015461029081610400565b61029a838361040d565b50505050565b7ff16bb8781ef1311f8fe06747bcbe481e695502acdcb0cb8c03aa03899e39a5986102ca81610400565b6001546040516001600160a01b03918216918416907ff93a3381a16f2a5ff82333c4a1ab6c74902046ee8f864e2cd93cb67c11786c3a90600090a350600180546001600160a01b0319166001600160a01b0392909216919091179055565b6001600160a01b03811633146103515760405163334bd91960e11b815260040160405180910390fd5b61035b828261049f565b505050565b6000918252602082815260408084206001600160a01b0393909316845291905290205460ff1690565b6000828152602081905260409020600101546103a481610400565b61029a838361049f565b604080516001600160a01b038416602482015260448082018490528251808303909101815260649091019091526020810180516001600160e01b031663a9059cbb60e01b17905261035b90849061050a565b61040a8133610572565b50565b60006104198383610360565b610497576000838152602081815260408083206001600160a01b03861684529091529020805460ff1916600117905561044f3390565b6001600160a01b0316826001600160a01b0316847f2f8788117e7eff1d82e926ec794901d17c78024a50270940304540a733656f0d60405160405180910390a4506001610206565b506000610206565b60006104ab8383610360565b15610497576000838152602081815260408083206001600160a01b0386168085529252808320805460ff1916905551339286917ff6391f5c32d9c69d2a47ea670b442974b53935d1edc7fd64eb21e047a839171b9190a4506001610206565b600061051f6001600160a01b038416836105af565b9050805160001415801561054457508080602001905181019061054291906107bf565b155b1561035b57604051635274afe760e01b81526001600160a01b03841660048201526024015b60405180910390fd5b61057c8282610360565b6105ab5760405163e2517d3f60e01b81526001600160a01b038216600482015260248101839052604401610569565b5050565b60606105bd838360006105c4565b9392505050565b6060814710156105e95760405163cd78605960e01b8152306004820152602401610569565b600080856001600160a01b0316848660405161060591906107e1565b60006040518083038185875af1925050503d8060008114610642576040519150601f19603f3d011682016040523d82523d6000602084013e610647565b606091505b5091509150610657868383610661565b9695505050505050565b60608261067657610671826106bd565b6105bd565b815115801561068d57506001600160a01b0384163b155b156106b657604051639996b31560e01b81526001600160a01b0385166004820152602401610569565b50806105bd565b8051156106cd5780518082602001fd5b604051630a12f52160e11b815260040160405180910390fd5b6000602082840312156106f857600080fd5b81356001600160e01b0319811681146105bd57600080fd5b80356001600160a01b038116811461072757600080fd5b919050565b60008060006060848603121561074157600080fd5b61074a84610710565b95602085013595506040909401359392505050565b60006020828403121561077157600080fd5b5035919050565b6000806040838503121561078b57600080fd5b8235915061079b60208401610710565b90509250929050565b6000602082840312156107b657600080fd5b6105bd82610710565b6000602082840312156107d157600080fd5b815180151581146105bd57600080fd5b6000825160005b8181101561080257602081860181015185830152016107e8565b50600092019182525091905056fea2646970667358221220fd07aca2af043db988041e8347d37305a08e49c8352956316d48fc9dc545067f64736f6c634300081c0033",
  "devdoc": {
    "errors": {
      "AccessControlBadConfirmation()": [
        {
          "details": "The caller of a function is not the expected one. NOTE: Don't confuse with {AccessControlUnauthorizedAccount}."
        }
      ],
      "AccessControlUnauthorizedAccount(address,bytes32)": [
        {
          "details": "The `account` is missing a role."
        }
      ],
      "AddressEmptyCode(address)": [
        {
          "details": "There's no code at `target` (it is not a contract)."
        }
      ],
      "AddressInsufficientBalance(address)": [
        {
          "details": "The ETH balance of the account is not enough to perform the operation."
        }
      ],
      "FailedInnerCall()": [
        {
          "details": "A call to an address target failed. The target may have reverted."
        }
      ],
      "SafeERC20FailedOperation(address)": [
        {
          "details": "An operation with an ERC20 token failed."
        }
      ]
    },
    "events": {
      "RoleAdminChanged(bytes32,bytes32,bytes32)": {
        "details": "Emitted when `newAdminRole` is set as ``role``'s admin role, replacing `previousAdminRole` `DEFAULT_ADMIN_ROLE` is the starting admin for all roles, despite {RoleAdminChanged} not being emitted signaling this."
      },
      "RoleGranted(bytes32,address,address)": {
        "details": "Emitted when `account` is granted `role`. `sender` is the account that originated the contract call, an admin role bearer except when using {AccessControl-_setupRole}."
      },
      "RoleRevoked(bytes32,address,address)": {
        "details": "Emitted when `account` is revoked `role`. `sender` is the account that originated the contract call:   - if using `revokeRole`, it is the admin role bearer   - if using `renounceRole`, it is the role bearer (i.e. `account`)"
      }
    },
    "kind": "dev",
    "methods": {
      "constructor": {
        "params": {
          "admin": "Address of the administrator of the contract",
          "eoa_": "Address of the EOA that will perform the liquidation"
        }
      },
      "getRoleAdmin(bytes32)": {
        "details": "Returns the admin role that controls `role`. See {grantRole} and {revokeRole}. To change a role's admin, use {_setRoleAdmin}."
      },
      "grantRole(bytes32,address)": {
        "details": "Grants `role` to `account`. If `account` had not been already granted `role`, emits a {RoleGranted} event. Requirements: - the caller must have ``role``'s admin role. May emit a {RoleGranted} event."
      },
      "hasRole(bytes32,address)": {
        "details": "Returns `true` if `account` has been granted `role`."
      },
      "liquidate(address,uint256,uint256)": {
        "params": {
          "asset": "Address of the token to liquidate",
          "assetAmount": "Amount of the token to liquidate",
          "debtAmount": "Minimum USDC required to cover the debt"
        }
      },
      "renounceRole(bytes32,address)": {
        "details": "Revokes `role` from the calling account. Roles are often managed via {grantRole} and {revokeRole}: this function's purpose is to provide a mechanism for accounts to lose their privileges if they are compromised (such as when a trusted device is misplaced). If the calling account had been revoked `role`, emits a {RoleRevoked} event. Requirements: - the caller must be `callerConfirmation`. May emit a {RoleRevoked} event."
      },
      "revokeRole(bytes32,address)": {
        "details": "Revokes `role` from `account`. If `account` had been granted `role`, emits a {RoleRevoked} event. Requirements: - the caller must have ``role``'s admin role. May emit a {RoleRevoked} event."
      },
      "supportsInterface(bytes4)": {
        "details": "See {IERC165-supportsInterface}."
      }
    },
    "title": "EOALiquidator.sol",
    "version": 1
  },
  "userdoc": {
    "kind": "user",
    "methods": {
      "liquidate(address,uint256,uint256)": {
        "notice": "Sells the received `asset` for USDC via Uniswap and sends the USDC to RiskHub."
      }
    },
    "notice": "Sends the tokens to another address (an EOA) and we prey that EOA isn't corrupt and behaves well and         liquidates the token sending the results to the RiskHub.         While we learn how to use CowProtocol programatic orders, the idea is sending funds to an EOA, that will         be listening TokensToLiquidate and issuing CowProtocol intents. After the swap is executed, the resulting         funds will be transferred to the main chain.         This can also be used for Fusion+ cross-chain intents, that AFAIK can't be created from smart contracts.         Cross-chain intents will be a perfect fit for our protocol, we avoid the additional bridge cost.",
    "version": 1
  },
  "storageLayout": {
    "storage": [
      {
        "astId": 26,
        "contract": "contracts/liquidators/EOALiquidator.sol:EOALiquidator",
        "label": "_roles",
        "offset": 0,
        "slot": "0",
        "type": "t_mapping(t_bytes32,t_struct(RoleData)21_storage)"
      },
      {
        "astId": 3106,
        "contract": "contracts/liquidators/EOALiquidator.sol:EOALiquidator",
        "label": "eoa",
        "offset": 0,
        "slot": "1",
        "type": "t_address"
      }
    ],
    "types": {
      "t_address": {
        "encoding": "inplace",
        "label": "address",
        "numberOfBytes": "20"
      },
      "t_bool": {
        "encoding": "inplace",
        "label": "bool",
        "numberOfBytes": "1"
      },
      "t_bytes32": {
        "encoding": "inplace",
        "label": "bytes32",
        "numberOfBytes": "32"
      },
      "t_mapping(t_address,t_bool)": {
        "encoding": "mapping",
        "key": "t_address",
        "label": "mapping(address => bool)",
        "numberOfBytes": "32",
        "value": "t_bool"
      },
      "t_mapping(t_bytes32,t_struct(RoleData)21_storage)": {
        "encoding": "mapping",
        "key": "t_bytes32",
        "label": "mapping(bytes32 => struct AccessControl.RoleData)",
        "numberOfBytes": "32",
        "value": "t_struct(RoleData)21_storage"
      },
      "t_struct(RoleData)21_storage": {
        "encoding": "inplace",
        "label": "struct AccessControl.RoleData",
        "members": [
          {
            "astId": 18,
            "contract": "contracts/liquidators/EOALiquidator.sol:EOALiquidator",
            "label": "hasRole",
            "offset": 0,
            "slot": "0",
            "type": "t_mapping(t_address,t_bool)"
          },
          {
            "astId": 20,
            "contract": "contracts/liquidators/EOALiquidator.sol:EOALiquidator",
            "label": "adminRole",
            "offset": 0,
            "slot": "1",
            "type": "t_bytes32"
          }
        ],
        "numberOfBytes": "64"
      }
    }
  }
}