{
  "address": "0xe94eecBab9504eC58918b8AB7d14E83BBD6Eb24d",
  "abi": [
    {
      "inputs": [
        {
          "internalType": "address",
          "name": "onBehalfOf",
          "type": "address"
        },
        {
          "internalType": "address",
          "name": "admin",
          "type": "address"
        }
      ],
      "stateMutability": "nonpayable",
      "type": "constructor"
    },
    {
      "inputs": [],
      "name": "AccessControlBadConfirmation",
      "type": "error"
    },
    {
      "inputs": [
        {
          "internalType": "address",
          "name": "account",
          "type": "address"
        },
        {
          "internalType": "bytes32",
          "name": "neededRole",
          "type": "bytes32"
        }
      ],
      "name": "AccessControlUnauthorizedAccount",
      "type": "error"
    },
    {
      "inputs": [
        {
          "internalType": "address",
          "name": "target",
          "type": "address"
        }
      ],
      "name": "AddressEmptyCode",
      "type": "error"
    },
    {
      "inputs": [
        {
          "internalType": "address",
          "name": "account",
          "type": "address"
        }
      ],
      "name": "AddressInsufficientBalance",
      "type": "error"
    },
    {
      "inputs": [],
      "name": "FailedInnerCall",
      "type": "error"
    },
    {
      "inputs": [],
      "name": "NotImplemented",
      "type": "error"
    },
    {
      "inputs": [
        {
          "internalType": "address",
          "name": "token",
          "type": "address"
        }
      ],
      "name": "SafeERC20FailedOperation",
      "type": "error"
    },
    {
      "anonymous": false,
      "inputs": [
        {
          "indexed": true,
          "internalType": "address",
          "name": "onBehalfOf",
          "type": "address"
        }
      ],
      "name": "OnBehalfOfChanged",
      "type": "event"
    },
    {
      "anonymous": false,
      "inputs": [
        {
          "indexed": false,
          "internalType": "address",
          "name": "tokenIn",
          "type": "address"
        },
        {
          "indexed": false,
          "internalType": "address",
          "name": "tokenOut",
          "type": "address"
        },
        {
          "indexed": false,
          "internalType": "uint256",
          "name": "price",
          "type": "uint256"
        }
      ],
      "name": "PriceUpdated",
      "type": "event"
    },
    {
      "anonymous": false,
      "inputs": [
        {
          "indexed": true,
          "internalType": "bytes32",
          "name": "role",
          "type": "bytes32"
        },
        {
          "indexed": true,
          "internalType": "bytes32",
          "name": "previousAdminRole",
          "type": "bytes32"
        },
        {
          "indexed": true,
          "internalType": "bytes32",
          "name": "newAdminRole",
          "type": "bytes32"
        }
      ],
      "name": "RoleAdminChanged",
      "type": "event"
    },
    {
      "anonymous": false,
      "inputs": [
        {
          "indexed": true,
          "internalType": "bytes32",
          "name": "role",
          "type": "bytes32"
        },
        {
          "indexed": true,
          "internalType": "address",
          "name": "account",
          "type": "address"
        },
        {
          "indexed": true,
          "internalType": "address",
          "name": "sender",
          "type": "address"
        }
      ],
      "name": "RoleGranted",
      "type": "event"
    },
    {
      "anonymous": false,
      "inputs": [
        {
          "indexed": true,
          "internalType": "bytes32",
          "name": "role",
          "type": "bytes32"
        },
        {
          "indexed": true,
          "internalType": "address",
          "name": "account",
          "type": "address"
        },
        {
          "indexed": true,
          "internalType": "address",
          "name": "sender",
          "type": "address"
        }
      ],
      "name": "RoleRevoked",
      "type": "event"
    },
    {
      "inputs": [],
      "name": "ADMIN_ROLE",
      "outputs": [
        {
          "internalType": "bytes32",
          "name": "",
          "type": "bytes32"
        }
      ],
      "stateMutability": "view",
      "type": "function"
    },
    {
      "inputs": [],
      "name": "DEFAULT_ADMIN_ROLE",
      "outputs": [
        {
          "internalType": "bytes32",
          "name": "",
          "type": "bytes32"
        }
      ],
      "stateMutability": "view",
      "type": "function"
    },
    {
      "inputs": [],
      "name": "PRICER_ROLE",
      "outputs": [
        {
          "internalType": "bytes32",
          "name": "",
          "type": "bytes32"
        }
      ],
      "stateMutability": "view",
      "type": "function"
    },
    {
      "inputs": [],
      "name": "SWAP_ROLE",
      "outputs": [
        {
          "internalType": "bytes32",
          "name": "",
          "type": "bytes32"
        }
      ],
      "stateMutability": "view",
      "type": "function"
    },
    {
      "inputs": [
        {
          "components": [
            {
              "internalType": "bytes",
              "name": "path",
              "type": "bytes"
            },
            {
              "internalType": "address",
              "name": "recipient",
              "type": "address"
            },
            {
              "internalType": "uint256",
              "name": "deadline",
              "type": "uint256"
            },
            {
              "internalType": "uint256",
              "name": "amountIn",
              "type": "uint256"
            },
            {
              "internalType": "uint256",
              "name": "amountOutMinimum",
              "type": "uint256"
            }
          ],
          "internalType": "struct ISwapRouter.ExactInputParams",
          "name": "",
          "type": "tuple"
        }
      ],
      "name": "exactInput",
      "outputs": [
        {
          "internalType": "uint256",
          "name": "",
          "type": "uint256"
        }
      ],
      "stateMutability": "payable",
      "type": "function"
    },
    {
      "inputs": [
        {
          "components": [
            {
              "internalType": "address",
              "name": "tokenIn",
              "type": "address"
            },
            {
              "internalType": "address",
              "name": "tokenOut",
              "type": "address"
            },
            {
              "internalType": "uint24",
              "name": "fee",
              "type": "uint24"
            },
            {
              "internalType": "address",
              "name": "recipient",
              "type": "address"
            },
            {
              "internalType": "uint256",
              "name": "deadline",
              "type": "uint256"
            },
            {
              "internalType": "uint256",
              "name": "amountIn",
              "type": "uint256"
            },
            {
              "internalType": "uint256",
              "name": "amountOutMinimum",
              "type": "uint256"
            },
            {
              "internalType": "uint160",
              "name": "sqrtPriceLimitX96",
              "type": "uint160"
            }
          ],
          "internalType": "struct ISwapRouter.ExactInputSingleParams",
          "name": "params",
          "type": "tuple"
        }
      ],
      "name": "exactInputSingle",
      "outputs": [
        {
          "internalType": "uint256",
          "name": "amountOut",
          "type": "uint256"
        }
      ],
      "stateMutability": "payable",
      "type": "function"
    },
    {
      "inputs": [
        {
          "components": [
            {
              "internalType": "bytes",
              "name": "path",
              "type": "bytes"
            },
            {
              "internalType": "address",
              "name": "recipient",
              "type": "address"
            },
            {
              "internalType": "uint256",
              "name": "deadline",
              "type": "uint256"
            },
            {
              "internalType": "uint256",
              "name": "amountOut",
              "type": "uint256"
            },
            {
              "internalType": "uint256",
              "name": "amountInMaximum",
              "type": "uint256"
            }
          ],
          "internalType": "struct ISwapRouter.ExactOutputParams",
          "name": "",
          "type": "tuple"
        }
      ],
      "name": "exactOutput",
      "outputs": [
        {
          "internalType": "uint256",
          "name": "",
          "type": "uint256"
        }
      ],
      "stateMutability": "payable",
      "type": "function"
    },
    {
      "inputs": [
        {
          "components": [
            {
              "internalType": "address",
              "name": "tokenIn",
              "type": "address"
            },
            {
              "internalType": "address",
              "name": "tokenOut",
              "type": "address"
            },
            {
              "internalType": "uint24",
              "name": "fee",
              "type": "uint24"
            },
            {
              "internalType": "address",
              "name": "recipient",
              "type": "address"
            },
            {
              "internalType": "uint256",
              "name": "deadline",
              "type": "uint256"
            },
            {
              "internalType": "uint256",
              "name": "amountOut",
              "type": "uint256"
            },
            {
              "internalType": "uint256",
              "name": "amountInMaximum",
              "type": "uint256"
            },
            {
              "internalType": "uint160",
              "name": "sqrtPriceLimitX96",
              "type": "uint160"
            }
          ],
          "internalType": "struct ISwapRouter.ExactOutputSingleParams",
          "name": "params",
          "type": "tuple"
        }
      ],
      "name": "exactOutputSingle",
      "outputs": [
        {
          "internalType": "uint256",
          "name": "amountIn",
          "type": "uint256"
        }
      ],
      "stateMutability": "payable",
      "type": "function"
    },
    {
      "inputs": [
        {
          "internalType": "address",
          "name": "tokenIn",
          "type": "address"
        },
        {
          "internalType": "address",
          "name": "tokenOut",
          "type": "address"
        }
      ],
      "name": "getCurrentPrice",
      "outputs": [
        {
          "internalType": "uint256",
          "name": "",
          "type": "uint256"
        }
      ],
      "stateMutability": "view",
      "type": "function"
    },
    {
      "inputs": [],
      "name": "getOnBehalfOf",
      "outputs": [
        {
          "internalType": "address",
          "name": "",
          "type": "address"
        }
      ],
      "stateMutability": "view",
      "type": "function"
    },
    {
      "inputs": [
        {
          "internalType": "bytes32",
          "name": "role",
          "type": "bytes32"
        }
      ],
      "name": "getRoleAdmin",
      "outputs": [
        {
          "internalType": "bytes32",
          "name": "",
          "type": "bytes32"
        }
      ],
      "stateMutability": "view",
      "type": "function"
    },
    {
      "inputs": [
        {
          "internalType": "bytes32",
          "name": "role",
          "type": "bytes32"
        },
        {
          "internalType": "address",
          "name": "account",
          "type": "address"
        }
      ],
      "name": "grantRole",
      "outputs": [],
      "stateMutability": "nonpayable",
      "type": "function"
    },
    {
      "inputs": [
        {
          "internalType": "bytes32",
          "name": "role",
          "type": "bytes32"
        },
        {
          "internalType": "address",
          "name": "account",
          "type": "address"
        }
      ],
      "name": "hasRole",
      "outputs": [
        {
          "internalType": "bool",
          "name": "",
          "type": "bool"
        }
      ],
      "stateMutability": "view",
      "type": "function"
    },
    {
      "inputs": [
        {
          "internalType": "bytes32",
          "name": "role",
          "type": "bytes32"
        },
        {
          "internalType": "address",
          "name": "callerConfirmation",
          "type": "address"
        }
      ],
      "name": "renounceRole",
      "outputs": [],
      "stateMutability": "nonpayable",
      "type": "function"
    },
    {
      "inputs": [
        {
          "internalType": "bytes32",
          "name": "role",
          "type": "bytes32"
        },
        {
          "internalType": "address",
          "name": "account",
          "type": "address"
        }
      ],
      "name": "revokeRole",
      "outputs": [],
      "stateMutability": "nonpayable",
      "type": "function"
    },
    {
      "inputs": [
        {
          "internalType": "address",
          "name": "tokenIn",
          "type": "address"
        },
        {
          "internalType": "address",
          "name": "tokenOut",
          "type": "address"
        },
        {
          "internalType": "uint256",
          "name": "price_",
          "type": "uint256"
        }
      ],
      "name": "setCurrentPrice",
      "outputs": [],
      "stateMutability": "nonpayable",
      "type": "function"
    },
    {
      "inputs": [
        {
          "internalType": "address",
          "name": "onBehalfOf",
          "type": "address"
        }
      ],
      "name": "setOnBehalfOf",
      "outputs": [],
      "stateMutability": "nonpayable",
      "type": "function"
    },
    {
      "inputs": [
        {
          "internalType": "bytes4",
          "name": "interfaceId",
          "type": "bytes4"
        }
      ],
      "name": "supportsInterface",
      "outputs": [
        {
          "internalType": "bool",
          "name": "",
          "type": "bool"
        }
      ],
      "stateMutability": "view",
      "type": "function"
    },
    {
      "inputs": [
        {
          "internalType": "int256",
          "name": "",
          "type": "int256"
        },
        {
          "internalType": "int256",
          "name": "",
          "type": "int256"
        },
        {
          "internalType": "bytes",
          "name": "",
          "type": "bytes"
        }
      ],
      "name": "uniswapV3SwapCallback",
      "outputs": [],
      "stateMutability": "pure",
      "type": "function"
    }
  ],
  "transactionHash": "0x69db5b814ee321f3ba776cbd2b055b20cec84a3de34f19ba7645e78d9522148b",
  "args": [
    "0x9a5c5a447a4A324771107140EfC226aA6b3be7F4",
    "0x9a5c5a447a4A324771107140EfC226aA6b3be7F4"
  ],
  "numDeployments": 1,
  "solcInputHash": "71dd4901f49028ccf314cd43fc5035f0",
  "bytecode": "0x608060405234801561001057600080fd5b5060405161161338038061161383398101604081905261002f9161015d565b61003a60008261004b565b50610044826100f7565b5050610190565b6000828152602081815260408083206001600160a01b038516845290915281205460ff166100ed576000838152602081815260408083206001600160a01b03861684529091529020805460ff191660011790556100a53390565b6001600160a01b0316826001600160a01b0316847f2f8788117e7eff1d82e926ec794901d17c78024a50270940304540a733656f0d60405160405180910390a45060016100f1565b5060005b92915050565b600280546001600160a01b0319166001600160a01b0383169081179091556040517f0d4942cd92e3890d7c5981c00a2fad602608157938bcd2c069ce005804288e3a90600090a250565b80516001600160a01b038116811461015857600080fd5b919050565b6000806040838503121561017057600080fd5b61017983610141565b915061018760208401610141565b90509250929050565b6114748061019f6000396000f3fe6080604052600436106101145760003560e01c8063a217fddf116100a0578063db16a55511610064578063db16a55514610319578063db3e21981461035f578063f28c04981461028a578063fa461e3314610372578063fbb812791461039257600080fd5b8063a217fddf14610275578063c04b8d591461028a578063caf031811461029d578063d4b7f403146102c5578063d547741f146102f957600080fd5b8063414bf389116100e7578063414bf389146101ce5780634562e015146101e157806370eceb6a1461020157806375b238fc1461022157806391d148541461025557600080fd5b806301ffc9a714610119578063248a9ca31461014e5780632f2ff15d1461018c57806336568abe146101ae575b600080fd5b34801561012557600080fd5b50610139610134366004611058565b6103c6565b60405190151581526020015b60405180910390f35b34801561015a57600080fd5b5061017e610169366004611082565b60009081526020819052604090206001015490565b604051908152602001610145565b34801561019857600080fd5b506101ac6101a73660046110b7565b6103fd565b005b3480156101ba57600080fd5b506101ac6101c93660046110b7565b610428565b61017e6101dc3660046110fc565b610460565b3480156101ed57600080fd5b506101ac6101fc366004611119565b61071d565b34801561020d57600080fd5b506101ac61021c366004611155565b610898565b34801561022d57600080fd5b5061017e7fa49807205ce4d355092ef5a8a18f56e8913cf4a201fbe287825b095693c2177581565b34801561026157600080fd5b506101396102703660046110b7565b6108cf565b34801561028157600080fd5b5061017e600081565b61017e610298366004611182565b6108f8565b3480156102a957600080fd5b506002546040516001600160a01b039091168152602001610145565b3480156102d157600080fd5b5061017e7f499b8dbdbe4f7b12284c4a222a9951ce4488b43af4d09f42655d67f73b612fe181565b34801561030557600080fd5b506101ac6103143660046110b7565b610913565b34801561032557600080fd5b5061017e6103343660046111bf565b6001600160a01b03918216600090815260016020908152604080832093909416825291909152205490565b61017e61036d3660046110fc565b610938565b34801561037e57600080fd5b506101ac61038d3660046111e9565b610bd5565b34801561039e57600080fd5b5061017e7fc6823861ee2bb2198ce6b1fd6faf4c8f44f745bc804aca4a762f67e0d507fd8a81565b60006001600160e01b03198216637965db0b60e01b14806103f757506301ffc9a760e01b6001600160e01b03198316145b92915050565b60008281526020819052604090206001015461041881610bee565b6104228383610bfb565b50505050565b6001600160a01b03811633146104515760405163334bd91960e11b815260040160405180910390fd5b61045b8282610c8d565b505050565b60007f499b8dbdbe4f7b12284c4a222a9951ce4488b43af4d09f42655d67f73b612fe161048c81610bee565b600061049e6080850160608601611155565b6001600160a01b0316036104f95760405162461bcd60e51b815260206004820181905260248201527f526563697069656e742063616e6e6f74206265207a65726f206164647265737360448201526064015b60405180910390fd5b42836080013510156105445760405162461bcd60e51b8152602060048201526014602482015273111958591b1a5b99481a5b881d1a19481c185cdd60621b60448201526064016104f0565b60008360a00135116105985760405162461bcd60e51b815260206004820152601760248201527f616d6f756e74496e2063616e6e6f74206265207a65726f00000000000000000060448201526064016104f0565b60006106276001826105ad6020880188611155565b6001600160a01b03166001600160a01b0316815260200190815260200160002060008660200160208101906105e29190611155565b6001600160a01b0316815260208082019290925260400160002054906106139061060e90880188611155565b610cf8565b6106219060a0880135611282565b90610d72565b905061063c61060e6040860160208701611155565b6106469082611299565b92508360c001358310156106b05760405162461bcd60e51b815260206004820152602b60248201527f546865206f757470757420616d6f756e74206973206c657373207468616e207460448201526a686520736c69707061676560a81b60648201526084016104f0565b6002546106e59033906001600160a01b031660a08701356106d46020890189611155565b6001600160a01b0316929190610da9565b600254610716906001600160a01b03166107056080870160608801611155565b856106d46040890160208a01611155565b5050919050565b7fc6823861ee2bb2198ce6b1fd6faf4c8f44f745bc804aca4a762f67e0d507fd8a61074781610bee565b6001600160a01b0384166107b75760405162461bcd60e51b815260206004820152603160248201527f50325053776170526f757465723a20746f6b656e496e2063616e6e6f7420626560448201527020746865207a65726f206164647265737360781b60648201526084016104f0565b6001600160a01b0383166108285760405162461bcd60e51b815260206004820152603260248201527f50325053776170526f757465723a20746f6b656e4f75742063616e6e6f7420626044820152716520746865207a65726f206164647265737360701b60648201526084016104f0565b6001600160a01b0384811660008181526001602090815260408083209488168084529482529182902086905581519283528201929092529081018390527fb71c154260e8508e211e2ace194becba2c6d7e727c3ed292fe4787458969cd109060600160405180910390a150505050565b7fa49807205ce4d355092ef5a8a18f56e8913cf4a201fbe287825b095693c217756108c281610bee565b6108cb82610e03565b5050565b6000918252602082815260408084206001600160a01b0393909316845291905290205460ff1690565b600060405163d623472560e01b815260040160405180910390fd5b60008281526020819052604090206001015461092e81610bee565b6104228383610c8d565b60007f499b8dbdbe4f7b12284c4a222a9951ce4488b43af4d09f42655d67f73b612fe161096481610bee565b60006109766080850160608601611155565b6001600160a01b0316036109cc5760405162461bcd60e51b815260206004820181905260248201527f526563697069656e742063616e6e6f74206265207a65726f206164647265737360448201526064016104f0565b4283608001351015610a175760405162461bcd60e51b8152602060048201526014602482015273111958591b1a5b99481a5b881d1a19481c185cdd60621b60448201526064016104f0565b60008360a0013511610a6b5760405162461bcd60e51b815260206004820152601860248201527f416d6f756e744f75742063616e6e6f74206265207a65726f000000000000000060448201526064016104f0565b6000610b00600182610a806020880188611155565b6001600160a01b03166001600160a01b031681526020019081526020016000206000866020016020810190610ab59190611155565b6001600160a01b03166001600160a01b0316815260200190815260200160002054610aec86602001602081019061060e9190611155565b610afa9060a0880135611282565b90610e4d565b9050610b1261060e6020860186611155565b610b1c9082611299565b92508360c00135831115610b805760405162461bcd60e51b815260206004820152602560248201527f54686520696e70757420616d6f756e7420657863656564732074686520736c69604482015264707061676560d81b60648201526084016104f0565b600254610ba09033906001600160a01b0316856106d46020890189611155565b600254610716906001600160a01b0316610bc06080870160608801611155565b60a08701356106d46040890160208a01611155565b60405163d623472560e01b815260040160405180910390fd5b610bf88133610e85565b50565b6000610c0783836108cf565b610c85576000838152602081815260408083206001600160a01b03861684529091529020805460ff19166001179055610c3d3390565b6001600160a01b0316826001600160a01b0316847f2f8788117e7eff1d82e926ec794901d17c78024a50270940304540a733656f0d60405160405180910390a45060016103f7565b5060006103f7565b6000610c9983836108cf565b15610c85576000838152602081815260408083206001600160a01b0386168085529252808320805460ff1916905551339286917ff6391f5c32d9c69d2a47ea670b442974b53935d1edc7fd64eb21e047a839171b9190a45060016103f7565b6000816001600160a01b031663313ce5676040518163ffffffff1660e01b8152600401602060405180830381865afa158015610d38573d6000803e3d6000fd5b505050506040513d601f19601f82011682018060405250810190610d5c91906112bb565b610d679060126112de565b6103f790600a6113de565b60008115670de0b6b3a764000060028404190484111715610d9257600080fd5b50670de0b6b3a76400009190910260028204010490565b604080516001600160a01b0385811660248301528416604482015260648082018490528251808303909101815260849091019091526020810180516001600160e01b03166323b872dd60e01b179052610422908590610ebe565b600280546001600160a01b0319166001600160a01b0383169081179091556040517f0d4942cd92e3890d7c5981c00a2fad602608157938bcd2c069ce005804288e3a90600090a250565b600081156706f05b59d3b200001983900484111517610e6b57600080fd5b50670de0b6b3a764000091026706f05b59d3b20000010490565b610e8f82826108cf565b6108cb5760405163e2517d3f60e01b81526001600160a01b0382166004820152602481018390526044016104f0565b6000610ed36001600160a01b03841683610f21565b90508051600014158015610ef8575080806020019051810190610ef691906113ed565b155b1561045b57604051635274afe760e01b81526001600160a01b03841660048201526024016104f0565b6060610f2f83836000610f36565b9392505050565b606081471015610f5b5760405163cd78605960e01b81523060048201526024016104f0565b600080856001600160a01b03168486604051610f77919061140f565b60006040518083038185875af1925050503d8060008114610fb4576040519150601f19603f3d011682016040523d82523d6000602084013e610fb9565b606091505b5091509150610fc9868383610fd3565b9695505050505050565b606082610fe857610fe38261102f565b610f2f565b8151158015610fff57506001600160a01b0384163b155b1561102857604051639996b31560e01b81526001600160a01b03851660048201526024016104f0565b5080610f2f565b80511561103f5780518082602001fd5b604051630a12f52160e11b815260040160405180910390fd5b60006020828403121561106a57600080fd5b81356001600160e01b031981168114610f2f57600080fd5b60006020828403121561109457600080fd5b5035919050565b80356001600160a01b03811681146110b257600080fd5b919050565b600080604083850312156110ca57600080fd5b823591506110da6020840161109b565b90509250929050565b600061010082840312156110f657600080fd5b50919050565b6000610100828403121561110f57600080fd5b610f2f83836110e3565b60008060006060848603121561112e57600080fd5b6111378461109b565b92506111456020850161109b565b9150604084013590509250925092565b60006020828403121561116757600080fd5b610f2f8261109b565b600060a082840312156110f657600080fd5b60006020828403121561119457600080fd5b813567ffffffffffffffff8111156111ab57600080fd5b6111b784828501611170565b949350505050565b600080604083850312156111d257600080fd5b6111db8361109b565b91506110da6020840161109b565b600080600080606085870312156111ff57600080fd5b8435935060208501359250604085013567ffffffffffffffff81111561122457600080fd5b8501601f8101871361123557600080fd5b803567ffffffffffffffff81111561124c57600080fd5b87602082840101111561125e57600080fd5b949793965060200194505050565b634e487b7160e01b600052601160045260246000fd5b80820281158282048414176103f7576103f761126c565b6000826112b657634e487b7160e01b600052601260045260246000fd5b500490565b6000602082840312156112cd57600080fd5b815160ff81168114610f2f57600080fd5b60ff82811682821603908111156103f7576103f761126c565b6001815b6001841115611332578085048111156113165761131661126c565b600184161561132457908102905b60019390931c9280026112fb565b935093915050565b600082611349575060016103f7565b81611356575060006103f7565b816001811461136c576002811461137657611392565b60019150506103f7565b60ff8411156113875761138761126c565b50506001821b6103f7565b5060208310610133831016604e8410600b84101617156113b5575081810a6103f7565b6113c260001984846112f7565b80600019048211156113d6576113d661126c565b029392505050565b6000610f2f60ff84168361133a565b6000602082840312156113ff57600080fd5b81518015158114610f2f57600080fd5b6000825160005b818110156114305760208186018101518583015201611416565b50600092019182525091905056fea2646970667358221220be33ea8632e6b45cbcec92859db0099a3eacac9fd3e26d838c5eb089cd466e1664736f6c634300081c0033",
  "devdoc": {
    "errors": {
      "AccessControlBadConfirmation()": [
        {
          "details": "The caller of a function is not the expected one. NOTE: Don't confuse with {AccessControlUnauthorizedAccount}."
        }
      ],
      "AccessControlUnauthorizedAccount(address,bytes32)": [
        {
          "details": "The `account` is missing a role."
        }
      ],
      "AddressEmptyCode(address)": [
        {
          "details": "There's no code at `target` (it is not a contract)."
        }
      ],
      "AddressInsufficientBalance(address)": [
        {
          "details": "The ETH balance of the account is not enough to perform the operation."
        }
      ],
      "FailedInnerCall()": [
        {
          "details": "A call to an address target failed. The target may have reverted."
        }
      ],
      "SafeERC20FailedOperation(address)": [
        {
          "details": "An operation with an ERC20 token failed."
        }
      ]
    },
    "events": {
      "RoleAdminChanged(bytes32,bytes32,bytes32)": {
        "details": "Emitted when `newAdminRole` is set as ``role``'s admin role, replacing `previousAdminRole` `DEFAULT_ADMIN_ROLE` is the starting admin for all roles, despite {RoleAdminChanged} not being emitted signaling this."
      },
      "RoleGranted(bytes32,address,address)": {
        "details": "Emitted when `account` is granted `role`. `sender` is the account that originated the contract call, an admin role bearer except when using {AccessControl-_setupRole}."
      },
      "RoleRevoked(bytes32,address,address)": {
        "details": "Emitted when `account` is revoked `role`. `sender` is the account that originated the contract call:   - if using `revokeRole`, it is the admin role bearer   - if using `renounceRole`, it is the role bearer (i.e. `account`)"
      }
    },
    "kind": "dev",
    "methods": {
      "exactInput((bytes,address,uint256,uint256,uint256))": {
        "params": {
          "params": "The parameters necessary for the multi-hop swap, encoded as `ExactInputParams` in calldata"
        },
        "returns": {
          "_0": "The amount of the received token"
        }
      },
      "exactInputSingle((address,address,uint24,address,uint256,uint256,uint256,uint160))": {
        "params": {
          "params": "The parameters necessary for the swap, encoded as `ExactInputSingleParams` in calldata"
        },
        "returns": {
          "amountOut": "The amount of the received token"
        }
      },
      "exactOutput((bytes,address,uint256,uint256,uint256))": {
        "params": {
          "params": "The parameters necessary for the multi-hop swap, encoded as `ExactOutputParams` in calldata"
        },
        "returns": {
          "_0": "The amount of the input token"
        }
      },
      "exactOutputSingle((address,address,uint24,address,uint256,uint256,uint256,uint160))": {
        "params": {
          "params": "The parameters necessary for the swap, encoded as `ExactOutputSingleParams` in calldata"
        },
        "returns": {
          "amountIn": "The amount of the input token"
        }
      },
      "getRoleAdmin(bytes32)": {
        "details": "Returns the admin role that controls `role`. See {grantRole} and {revokeRole}. To change a role's admin, use {_setRoleAdmin}."
      },
      "grantRole(bytes32,address)": {
        "details": "Grants `role` to `account`. If `account` had not been already granted `role`, emits a {RoleGranted} event. Requirements: - the caller must have ``role``'s admin role. May emit a {RoleGranted} event."
      },
      "hasRole(bytes32,address)": {
        "details": "Returns `true` if `account` has been granted `role`."
      },
      "renounceRole(bytes32,address)": {
        "details": "Revokes `role` from the calling account. Roles are often managed via {grantRole} and {revokeRole}: this function's purpose is to provide a mechanism for accounts to lose their privileges if they are compromised (such as when a trusted device is misplaced). If the calling account had been revoked `role`, emits a {RoleRevoked} event. Requirements: - the caller must be `callerConfirmation`. May emit a {RoleRevoked} event."
      },
      "revokeRole(bytes32,address)": {
        "details": "Revokes `role` from `account`. If `account` had been granted `role`, emits a {RoleRevoked} event. Requirements: - the caller must have ``role``'s admin role. May emit a {RoleRevoked} event."
      },
      "supportsInterface(bytes4)": {
        "details": "See {IERC165-supportsInterface}."
      }
    },
    "title": "P2PSwapRouter",
    "version": 1
  },
  "userdoc": {
    "kind": "user",
    "methods": {
      "exactInput((bytes,address,uint256,uint256,uint256))": {
        "notice": "This function is not implemented"
      },
      "exactInputSingle((address,address,uint24,address,uint256,uint256,uint256,uint160))": {
        "notice": "Swaps `amountIn` of one token for as much as possible of another token"
      },
      "exactOutput((bytes,address,uint256,uint256,uint256))": {
        "notice": "This function is not implemented"
      },
      "exactOutputSingle((address,address,uint24,address,uint256,uint256,uint256,uint160))": {
        "notice": "Swaps as little as possible of one token for `amountOut` of another token"
      },
      "uniswapV3SwapCallback(int256,int256,bytes)": {
        "notice": "This function is not implemented"
      }
    },
    "notice": "Contract following the interface of ISwapRouter that executes single swaps from authorized contracts         at configured prices, on behalf of an account",
    "version": 1
  },
  "storageLayout": {
    "storage": [
      {
        "astId": 4361,
        "contract": "contracts/P2PSwapRouter.sol:P2PSwapRouter",
        "label": "_roles",
        "offset": 0,
        "slot": "0",
        "type": "t_mapping(t_bytes32,t_struct(RoleData)4356_storage)"
      },
      {
        "astId": 8195,
        "contract": "contracts/P2PSwapRouter.sol:P2PSwapRouter",
        "label": "_prices",
        "offset": 0,
        "slot": "1",
        "type": "t_mapping(t_address,t_mapping(t_address,t_uint256))"
      },
      {
        "astId": 8197,
        "contract": "contracts/P2PSwapRouter.sol:P2PSwapRouter",
        "label": "_onBehalfOf",
        "offset": 0,
        "slot": "2",
        "type": "t_address"
      }
    ],
    "types": {
      "t_address": {
        "encoding": "inplace",
        "label": "address",
        "numberOfBytes": "20"
      },
      "t_bool": {
        "encoding": "inplace",
        "label": "bool",
        "numberOfBytes": "1"
      },
      "t_bytes32": {
        "encoding": "inplace",
        "label": "bytes32",
        "numberOfBytes": "32"
      },
      "t_mapping(t_address,t_bool)": {
        "encoding": "mapping",
        "key": "t_address",
        "label": "mapping(address => bool)",
        "numberOfBytes": "32",
        "value": "t_bool"
      },
      "t_mapping(t_address,t_mapping(t_address,t_uint256))": {
        "encoding": "mapping",
        "key": "t_address",
        "label": "mapping(address => mapping(address => uint256))",
        "numberOfBytes": "32",
        "value": "t_mapping(t_address,t_uint256)"
      },
      "t_mapping(t_address,t_uint256)": {
        "encoding": "mapping",
        "key": "t_address",
        "label": "mapping(address => uint256)",
        "numberOfBytes": "32",
        "value": "t_uint256"
      },
      "t_mapping(t_bytes32,t_struct(RoleData)4356_storage)": {
        "encoding": "mapping",
        "key": "t_bytes32",
        "label": "mapping(bytes32 => struct AccessControl.RoleData)",
        "numberOfBytes": "32",
        "value": "t_struct(RoleData)4356_storage"
      },
      "t_struct(RoleData)4356_storage": {
        "encoding": "inplace",
        "label": "struct AccessControl.RoleData",
        "members": [
          {
            "astId": 4353,
            "contract": "contracts/P2PSwapRouter.sol:P2PSwapRouter",
            "label": "hasRole",
            "offset": 0,
            "slot": "0",
            "type": "t_mapping(t_address,t_bool)"
          },
          {
            "astId": 4355,
            "contract": "contracts/P2PSwapRouter.sol:P2PSwapRouter",
            "label": "adminRole",
            "offset": 0,
            "slot": "1",
            "type": "t_bytes32"
          }
        ],
        "numberOfBytes": "64"
      },
      "t_uint256": {
        "encoding": "inplace",
        "label": "uint256",
        "numberOfBytes": "32"
      }
    }
  }
}