{
  "address": "0x29e7Ce948d68c5221Ff5cD728edD7A9edE2BAcA6",
  "abi": [
    {
      "inputs": [
        {
          "internalType": "address",
          "name": "owner",
          "type": "address"
        },
        {
          "internalType": "address",
          "name": "pythContract",
          "type": "address"
        }
      ],
      "stateMutability": "nonpayable",
      "type": "constructor"
    },
    {
      "inputs": [
        {
          "internalType": "address",
          "name": "owner",
          "type": "address"
        }
      ],
      "name": "OwnableInvalidOwner",
      "type": "error"
    },
    {
      "inputs": [
        {
          "internalType": "address",
          "name": "account",
          "type": "address"
        }
      ],
      "name": "OwnableUnauthorizedAccount",
      "type": "error"
    },
    {
      "anonymous": false,
      "inputs": [
        {
          "indexed": true,
          "internalType": "address",
          "name": "tokenIn",
          "type": "address"
        },
        {
          "indexed": true,
          "internalType": "address",
          "name": "tokenOut",
          "type": "address"
        },
        {
          "indexed": true,
          "internalType": "bytes32",
          "name": "feedId",
          "type": "bytes32"
        }
      ],
      "name": "FeedAdded",
      "type": "event"
    },
    {
      "anonymous": false,
      "inputs": [
        {
          "indexed": true,
          "internalType": "address",
          "name": "previousOwner",
          "type": "address"
        },
        {
          "indexed": true,
          "internalType": "address",
          "name": "newOwner",
          "type": "address"
        }
      ],
      "name": "OwnershipTransferStarted",
      "type": "event"
    },
    {
      "anonymous": false,
      "inputs": [
        {
          "indexed": true,
          "internalType": "address",
          "name": "previousOwner",
          "type": "address"
        },
        {
          "indexed": true,
          "internalType": "address",
          "name": "newOwner",
          "type": "address"
        }
      ],
      "name": "OwnershipTransferred",
      "type": "event"
    },
    {
      "anonymous": false,
      "inputs": [
        {
          "indexed": true,
          "internalType": "address",
          "name": "to",
          "type": "address"
        },
        {
          "indexed": false,
          "internalType": "uint256",
          "name": "amount",
          "type": "uint256"
        }
      ],
      "name": "Withdraw",
      "type": "event"
    },
    {
      "inputs": [],
      "name": "acceptOwnership",
      "outputs": [],
      "stateMutability": "nonpayable",
      "type": "function"
    },
    {
      "inputs": [
        {
          "components": [
            {
              "internalType": "bytes32",
              "name": "id",
              "type": "bytes32"
            },
            {
              "internalType": "uint256",
              "name": "age",
              "type": "uint256"
            }
          ],
          "internalType": "struct PythPriceOracle.PythPriceFeed",
          "name": "priceFeed",
          "type": "tuple"
        },
        {
          "internalType": "contract IERC20Metadata",
          "name": "tokenIn",
          "type": "address"
        },
        {
          "internalType": "contract IERC20Metadata",
          "name": "tokenOut",
          "type": "address"
        }
      ],
      "name": "addFeed",
      "outputs": [],
      "stateMutability": "nonpayable",
      "type": "function"
    },
    {
      "inputs": [
        {
          "internalType": "contract IERC20Metadata",
          "name": "tokenIn",
          "type": "address"
        },
        {
          "internalType": "contract IERC20Metadata",
          "name": "tokenOut",
          "type": "address"
        }
      ],
      "name": "getCurrentPrice",
      "outputs": [
        {
          "internalType": "uint256",
          "name": "",
          "type": "uint256"
        }
      ],
      "stateMutability": "view",
      "type": "function"
    },
    {
      "inputs": [],
      "name": "owner",
      "outputs": [
        {
          "internalType": "address",
          "name": "",
          "type": "address"
        }
      ],
      "stateMutability": "view",
      "type": "function"
    },
    {
      "inputs": [],
      "name": "pendingOwner",
      "outputs": [
        {
          "internalType": "address",
          "name": "",
          "type": "address"
        }
      ],
      "stateMutability": "view",
      "type": "function"
    },
    {
      "inputs": [],
      "name": "pyth",
      "outputs": [
        {
          "internalType": "contract IPyth",
          "name": "",
          "type": "address"
        }
      ],
      "stateMutability": "view",
      "type": "function"
    },
    {
      "inputs": [],
      "name": "renounceOwnership",
      "outputs": [],
      "stateMutability": "nonpayable",
      "type": "function"
    },
    {
      "inputs": [
        {
          "internalType": "contract IERC20Metadata",
          "name": "tokenIn",
          "type": "address"
        },
        {
          "internalType": "contract IERC20Metadata",
          "name": "tokenOut",
          "type": "address"
        }
      ],
      "name": "tokenPairPrice",
      "outputs": [
        {
          "internalType": "int256",
          "name": "price",
          "type": "int256"
        }
      ],
      "stateMutability": "view",
      "type": "function"
    },
    {
      "inputs": [
        {
          "internalType": "contract IERC20Metadata",
          "name": "tokenIn",
          "type": "address"
        },
        {
          "internalType": "contract IERC20Metadata",
          "name": "tokenOut",
          "type": "address"
        }
      ],
      "name": "tokenPairPriceFeed",
      "outputs": [
        {
          "internalType": "bytes32",
          "name": "id",
          "type": "bytes32"
        },
        {
          "internalType": "uint256",
          "name": "age",
          "type": "uint256"
        }
      ],
      "stateMutability": "view",
      "type": "function"
    },
    {
      "inputs": [
        {
          "internalType": "address",
          "name": "newOwner",
          "type": "address"
        }
      ],
      "name": "transferOwnership",
      "outputs": [],
      "stateMutability": "nonpayable",
      "type": "function"
    },
    {
      "inputs": [
        {
          "internalType": "bytes[]",
          "name": "priceUpdate",
          "type": "bytes[]"
        },
        {
          "internalType": "contract IERC20Metadata",
          "name": "tokenIn",
          "type": "address"
        },
        {
          "internalType": "contract IERC20Metadata",
          "name": "tokenOut",
          "type": "address"
        }
      ],
      "name": "updatePrice",
      "outputs": [],
      "stateMutability": "payable",
      "type": "function"
    },
    {
      "inputs": [],
      "name": "withdraw",
      "outputs": [],
      "stateMutability": "nonpayable",
      "type": "function"
    },
    {
      "stateMutability": "payable",
      "type": "receive"
    }
  ],
  "transactionHash": "0x7748be157eb181ec735ec11a1c911c7cb4e1626b4ee185b40fad5c352cd6726b",
  "args": [
    "0x9a5c5a447a4A324771107140EfC226aA6b3be7F4",
    "0xA2aa501b19aff244D90cc15a4Cf739D2725B5729"
  ],
  "numDeployments": 2,
  "solcInputHash": "ac76aa90be38f3ecf8e3b28e10abef67",
  "bytecode": "0x608060405234801561001057600080fd5b50604051610e11380380610e1183398101604081905261002f91610116565b816001600160a01b03811661005e57604051631e4fbdf760e01b81526000600482015260240160405180910390fd5b6100678161008e565b50600280546001600160a01b0319166001600160a01b039290921691909117905550610149565b600180546001600160a01b03191690556100a7816100aa565b50565b600080546001600160a01b038381166001600160a01b0319831681178455604051919092169283917f8be0079c531659141344cd1fd0a4f28419497f9722a3daafe3b4186f6b6457e09190a35050565b80516001600160a01b038116811461011157600080fd5b919050565b6000806040838503121561012957600080fd5b610132836100fa565b9150610140602084016100fa565b90509250929050565b610cb9806101586000396000f3fe6080604052600436106100ab5760003560e01c8063d936434611610064578063d9364346146101a3578063db16a555146101e9578063e30c397814610209578063e8587e7414610227578063f2fde38b1461023a578063f98d06f01461025a57600080fd5b80630cf93820146100b757806334d8061d146101105780633ccfd60b14610132578063715018a61461014757806379ba50971461015c5780638da5cb5b1461017157600080fd5b366100b257005b600080fd5b3480156100c357600080fd5b506100f66100d23660046107e7565b60036020908152600092835260408084209091529082529020805460019091015482565b604080519283526020830191909152015b60405180910390f35b34801561011c57600080fd5b5061013061012b366004610820565b61027a565b005b34801561013e57600080fd5b50610130610348565b34801561015357600080fd5b50610130610423565b34801561016857600080fd5b50610130610437565b34801561017d57600080fd5b506000546001600160a01b03165b6040516001600160a01b039091168152602001610107565b3480156101af57600080fd5b506101db6101be3660046107e7565b600460209081526000928352604080842090915290825290205481565b604051908152602001610107565b3480156101f557600080fd5b506101db6102043660046107e7565b61047b565b34801561021557600080fd5b506001546001600160a01b031661018b565b610130610235366004610871565b6104bd565b34801561024657600080fd5b5061013061025536600461090b565b610697565b34801561026657600080fd5b5060025461018b906001600160a01b031681565b610282610708565b82356102cd5760405162461bcd60e51b8152602060048201526015602482015274746869732066656564206973206e6f7420776f726b60581b60448201526064015b60405180910390fd5b60408051808201825284358082526020808701358184019081526001600160a01b038088166000818152600385528781209289168082529290945286842095518655915160019095019490945593519193917f5fdb06ac298dd1a16e656eed2e855b323ac20139b9f7bdc0f5a7433be4068b029190a4505050565b610350610708565b47806103975760405162461bcd60e51b81526020600482015260166024820152754e6f2062616c616e636520746f20776974686472617760501b60448201526064016102c4565b6000546001600160a01b03166001600160a01b03167f884edad9ce6fa2440d8a54cc123490eb96d2768479d49ff9c7366125a9424364826040516103dd91815260200190565b60405180910390a2600080546040516001600160a01b03909116914780156108fc02929091818181858888f1935050505015801561041f573d6000803e3d6000fd5b5050565b61042b610708565b6104356000610735565b565b60015433906001600160a01b0316811461046f5760405163118cdaa760e01b81526001600160a01b03821660048201526024016102c4565b61047881610735565b50565b6001600160a01b0380831660009081526004602090815260408083209385168352929052908120548082036104b45760009150506104b7565b90505b92915050565b6001600160a01b03808316600090815260036020908152604080832085851684528252808320815180830183528154815260019091015492810192909252600254905163d47eed4560e01b81529193169063d47eed45906105249089908990600401610951565b602060405180830381865afa158015610541573d6000803e3d6000fd5b505050506040513d601f19601f8201168201806040525081019061056591906109f4565b600254604051631df3cbc560e31b81529192506001600160a01b03169063ef9e5e2890839061059a908a908a90600401610951565b6000604051808303818588803b1580156105b357600080fd5b505af11580156105c7573d6000803e3d6000fd5b50506002548551602087015160405163052571af60e51b8152600096506001600160a01b03909316945063a4ae35e0935061060d92600401918252602082015260400190565b608060405180830381865afa15801561062a573d6000803e3d6000fd5b505050506040513d601f19601f8201168201806040525081019061064e9190610a3c565b90506106628160000151826040015161074e565b6001600160a01b0395861660009081526004602090815260408083209790981682529590955294909320939093555050505050565b61069f610708565b600180546001600160a01b0383166001600160a01b031990911681179091556106d06000546001600160a01b031690565b6001600160a01b03167f38d16b8cac22d99fc7c124b9cd0de2d3fa1faef420bfe791d8c362d765e2270060405160405180910390a350565b6000546001600160a01b031633146104355760405163118cdaa760e01b81523360048201526024016102c4565b600180546001600160a01b031916905561047881610782565b60008061075c836012610ae5565b61076a9060030b600a610c40565b905061077a81600786900b610c53565b949350505050565b600080546001600160a01b038381166001600160a01b0319831681178455604051919092169283917f8be0079c531659141344cd1fd0a4f28419497f9722a3daafe3b4186f6b6457e09190a35050565b6001600160a01b038116811461047857600080fd5b600080604083850312156107fa57600080fd5b8235610805816107d2565b91506020830135610815816107d2565b809150509250929050565b6000806000838503608081121561083657600080fd5b604081121561084457600080fd5b508392506040840135610856816107d2565b91506060840135610866816107d2565b809150509250925092565b6000806000806060858703121561088757600080fd5b843567ffffffffffffffff81111561089e57600080fd5b8501601f810187136108af57600080fd5b803567ffffffffffffffff8111156108c657600080fd5b8760208260051b84010111156108db57600080fd5b6020918201955093508501356108f0816107d2565b91506040850135610900816107d2565b939692955090935050565b60006020828403121561091d57600080fd5b81356104b4816107d2565b81835281816020850137506000828201602090810191909152601f909101601f19169091010190565b6020808252810182905260006040600584901b830181019083018583601e1936839003015b878210156109e757868503603f19018452823581811261099557600080fd5b890160208101903567ffffffffffffffff8111156109b257600080fd5b8036038213156109c157600080fd5b6109cc878284610928565b96505050602083019250602084019350600182019150610976565b5092979650505050505050565b600060208284031215610a0657600080fd5b5051919050565b805167ffffffffffffffff81168114610a2557600080fd5b919050565b8051600381900b8114610a2557600080fd5b60006080828403128015610a4f57600080fd5b600090506040516080810181811067ffffffffffffffff82111715610a8257634e487b7160e01b83526041600452602483fd5b6040528351600781900b8114610a96578283fd5b8152610aa460208501610a0d565b6020820152610ab560408501610a2a565b604082015260609384015193810193909352509092915050565b634e487b7160e01b600052601160045260246000fd5b600381810b9083900b01637fffffff8113637fffffff19821217156104b7576104b7610acf565b80825b6001851115610b4657808604811115610b2a57610b2a610acf565b6001851615610b3857908102905b60019490941c938002610b0f565b94509492505050565b6000828015610b655760018114610b6f57610b78565b60019150506104b7565b829150506104b7565b5081610b86575060006104b7565b50600160008213808214610b9f578015610bbe57610bd8565b6001600160ff1b03839004831115610bb957610bb9610acf565b610bd8565b6001600160ff1b03839005831215610bd857610bd8610acf565b5080831615610be45750805b610bfd6001600160ff1b03600185901c84800284610b0c565b600082136001600160ff1b0382900483111615610c1c57610c1c610acf565b60008212600160ff1b82900583121615610c3857610c38610acf565b029392505050565b6000610c4c8383610b4f565b9392505050565b80820260008212600160ff1b84141615610c6f57610c6f610acf565b81810583148215176104b7576104b7610acf56fea2646970667358221220855750d2cc2d9d11c8b4a32d4c5f8115874152640184cb58b0869e99c560fcaa64736f6c634300081c0033",
  "devdoc": {
    "errors": {
      "OwnableInvalidOwner(address)": [
        {
          "details": "The owner is not a valid owner account. (eg. `address(0)`)"
        }
      ],
      "OwnableUnauthorizedAccount(address)": [
        {
          "details": "The caller account is not authorized to perform an operation."
        }
      ]
    },
    "kind": "dev",
    "methods": {
      "acceptOwnership()": {
        "details": "The new owner accepts the ownership transfer."
      },
      "getCurrentPrice(address,address)": {
        "details": "Returns the amount of units of tokenOut that should be received for a uint of tokenIn Requirements: - The underlying oracle(s) are functional. It NEVER returns zero.",
        "returns": {
          "_0": "Returns the amount of units of tokenOut that should be received for a uint of tokenIn (in Wad)"
        }
      },
      "owner()": {
        "details": "Returns the address of the current owner."
      },
      "pendingOwner()": {
        "details": "Returns the address of the pending owner."
      },
      "renounceOwnership()": {
        "details": "Leaves the contract without owner. It will not be possible to call `onlyOwner` functions. Can only be called by the current owner. NOTE: Renouncing ownership will leave the contract without an owner, thereby disabling any functionality that is only available to the owner."
      },
      "transferOwnership(address)": {
        "details": "Starts the ownership transfer of the contract to a new account. Replaces the pending transfer if there is one. Can only be called by the current owner."
      }
    },
    "version": 1
  },
  "userdoc": {
    "kind": "user",
    "methods": {},
    "notice": "This contract assumes that the tokenOut is a token that it's pegged with the USD dollar (1 tokenOut = 1 dollar)",
    "version": 1
  },
  "storageLayout": {
    "storage": [
      {
        "astId": 387,
        "contract": "contracts/oracles/PythPriceOracle.sol:PythPriceOracle",
        "label": "_owner",
        "offset": 0,
        "slot": "0",
        "type": "t_address"
      },
      {
        "astId": 535,
        "contract": "contracts/oracles/PythPriceOracle.sol:PythPriceOracle",
        "label": "_pendingOwner",
        "offset": 0,
        "slot": "1",
        "type": "t_address"
      },
      {
        "astId": 3523,
        "contract": "contracts/oracles/PythPriceOracle.sol:PythPriceOracle",
        "label": "pyth",
        "offset": 0,
        "slot": "2",
        "type": "t_contract(IPyth)2528"
      },
      {
        "astId": 3532,
        "contract": "contracts/oracles/PythPriceOracle.sol:PythPriceOracle",
        "label": "tokenPairPriceFeed",
        "offset": 0,
        "slot": "3",
        "type": "t_mapping(t_contract(IERC20Metadata)716,t_mapping(t_contract(IERC20Metadata)716,t_struct(PythPriceFeed)3520_storage))"
      },
      {
        "astId": 3540,
        "contract": "contracts/oracles/PythPriceOracle.sol:PythPriceOracle",
        "label": "tokenPairPrice",
        "offset": 0,
        "slot": "4",
        "type": "t_mapping(t_contract(IERC20Metadata)716,t_mapping(t_contract(IERC20Metadata)716,t_int256))"
      }
    ],
    "types": {
      "t_address": {
        "encoding": "inplace",
        "label": "address",
        "numberOfBytes": "20"
      },
      "t_bytes32": {
        "encoding": "inplace",
        "label": "bytes32",
        "numberOfBytes": "32"
      },
      "t_contract(IERC20Metadata)716": {
        "encoding": "inplace",
        "label": "contract IERC20Metadata",
        "numberOfBytes": "20"
      },
      "t_contract(IPyth)2528": {
        "encoding": "inplace",
        "label": "contract IPyth",
        "numberOfBytes": "20"
      },
      "t_int256": {
        "encoding": "inplace",
        "label": "int256",
        "numberOfBytes": "32"
      },
      "t_mapping(t_contract(IERC20Metadata)716,t_int256)": {
        "encoding": "mapping",
        "key": "t_contract(IERC20Metadata)716",
        "label": "mapping(contract IERC20Metadata => int256)",
        "numberOfBytes": "32",
        "value": "t_int256"
      },
      "t_mapping(t_contract(IERC20Metadata)716,t_mapping(t_contract(IERC20Metadata)716,t_int256))": {
        "encoding": "mapping",
        "key": "t_contract(IERC20Metadata)716",
        "label": "mapping(contract IERC20Metadata => mapping(contract IERC20Metadata => int256))",
        "numberOfBytes": "32",
        "value": "t_mapping(t_contract(IERC20Metadata)716,t_int256)"
      },
      "t_mapping(t_contract(IERC20Metadata)716,t_mapping(t_contract(IERC20Metadata)716,t_struct(PythPriceFeed)3520_storage))": {
        "encoding": "mapping",
        "key": "t_contract(IERC20Metadata)716",
        "label": "mapping(contract IERC20Metadata => mapping(contract IERC20Metadata => struct PythPriceOracle.PythPriceFeed))",
        "numberOfBytes": "32",
        "value": "t_mapping(t_contract(IERC20Metadata)716,t_struct(PythPriceFeed)3520_storage)"
      },
      "t_mapping(t_contract(IERC20Metadata)716,t_struct(PythPriceFeed)3520_storage)": {
        "encoding": "mapping",
        "key": "t_contract(IERC20Metadata)716",
        "label": "mapping(contract IERC20Metadata => struct PythPriceOracle.PythPriceFeed)",
        "numberOfBytes": "32",
        "value": "t_struct(PythPriceFeed)3520_storage"
      },
      "t_struct(PythPriceFeed)3520_storage": {
        "encoding": "inplace",
        "label": "struct PythPriceOracle.PythPriceFeed",
        "members": [
          {
            "astId": 3517,
            "contract": "contracts/oracles/PythPriceOracle.sol:PythPriceOracle",
            "label": "id",
            "offset": 0,
            "slot": "0",
            "type": "t_bytes32"
          },
          {
            "astId": 3519,
            "contract": "contracts/oracles/PythPriceOracle.sol:PythPriceOracle",
            "label": "age",
            "offset": 0,
            "slot": "1",
            "type": "t_uint256"
          }
        ],
        "numberOfBytes": "64"
      },
      "t_uint256": {
        "encoding": "inplace",
        "label": "uint256",
        "numberOfBytes": "32"
      }
    }
  }
}